:020000040800F2
:10000000005000204DB10008C1400008CD4000085C
:10001000D3400008D9400008DF400008000000007D
:10002000000000000000000000000000E5400008A3
:10003000F140000800000000FD40000809410008F0
:1000400095B1000895B1000895B1000895B1000878
:1000500095B1000895B1000895B1000895B1000868
:1000600095B1000895B1000895B1000895B1000858
:1000700095B1000895B1000895B1000895B1000848
:1000800095B1000895B1000895B1000895B1000838
:100090001541000895B1000895B1000895B1000818
:1000A00095B1000895B1000895B1000895B1000818
:1000B000294100083D41000895B1000895B10008AC
:1000C00095B1000895B1000895B1000895B10008F8
:1000D00095B1000895B1000895B1000895B10008E8
:1000E00095B1000895B1000895B100080000000026
:1000F0000000000000000000000000000000000000
:0C01000000000000000000005FF808F1A3
:1001100010B5054C237833B9044B13B10448AFF341
:1001200000800123237010BD400300200000000068
:10013000C8DE000808B5034B1BB103490348AFF301
:10014000008008BD0000000044030020C8DE000855
:1001500010F8012B11F8013B012A28BF9A42F7D071
:10016000D01A704781F0004102E000BF83F00043E5
:1001700030B54FEA41044FEA430594EA050F08BF42
:1001800090EA020F1FBF54EA000C55EA020C7FEA06
:10019000645C7FEA655C00F0E2804FEA5454D4EB83
:1001A0005555B8BF6D420CDD2C4480EA020281EA4D
:1001B000030382EA000083EA010180EA020281EA85
:1001C0000303362D88BF30BD11F0004F4FEA0131D7
:1001D0004FF4801C4CEA113102D0404261EB4101E6
:1001E00013F0004F4FEA03334CEA133302D052426C
:1001F00063EB430394EA050F00F0A780A4F1010428
:10020000D5F1200E0DDB02FA0EFC22FA05F2801861
:1002100041F1000103FA0EF2801843FA05F3594147
:100220000EE0A5F120050EF1200E012A03FA0EFCC6
:1002300028BF4CF0020C43FA05F3C01851EBE371F0
:1002400001F0004507D54FF0000EDCF1000C7EEB0D
:1002500000006EEB0101B1F5801F1BD3B1F5001F4B
:100260000CD349085FEA30004FEA3C0C04F101046A
:100270004FEA445212F5800F80F09A80BCF1004F93
:1002800008BF5FEA500C50F1000041EB045141EA15
:10029000050130BD5FEA4C0C404141EB010111F416
:1002A000801FA4F10104E9D191F0000F04BF0146C1
:1002B0000020B1FA81F308BF2033A3F10B03B3F19F
:1002C00020020CDA0C3208DD02F1140CC2F10C022F
:1002D00001FA0CF021FA02F10CE002F11402D8BF8D
:1002E000C2F1200C01FA02F120FA0CFCDCBF41EA59
:1002F0000C019040E41AA2BF01EB0451294330BD28
:100300006FEA04041F3C1CDA0C340EDC04F1140404
:10031000C4F1200220FA04F001FA02F340EA0300DB
:1003200021FA04F345EA030130BDC4F10C04C4F121
:10033000200220FA02F001FA04F340EA0300294601
:1003400030BD21FA04F0294630BD94F0000F83F44B
:10035000801306BF81F480110134013D4EE77FEA2E
:10036000645C18BF7FEA655C29D094EA050F08BF7A
:1003700090EA020F05D054EA000C04BF194610465B
:1003800030BD91EA030F1EBF0021002030BD5FEA9F
:10039000545C05D14000494128BF41F0004130BDC7
:1003A00014F580043CBF01F5801130BD01F000451B
:1003B00045F0FE4141F470014FF0000030BD7FEA8E
:1003C000645C1ABF194610467FEA655C1CBF0B4689
:1003D000024650EA013406BF52EA033591EA030FA0
:1003E00041F4002130BD00BF90F0000F04BF002198
:1003F000704730B54FF4806404F132044FF00005CB
:100400004FF0000150E700BF90F0000F04BF002143
:10041000704730B54FF4806404F1320410F00045A9
:1004200048BF40424FF000013EE700BF42004FEAA4
:10043000E2014FEA31014FEA02701FBF12F07F4321
:1004400093F07F4F81F06051704792F0000F14BF1E
:1004500093F07F4F704730B54FF4607401F0004562
:1004600021F0004120E700BF50EA010208BF7047B9
:1004700030B54FF000050AE050EA010208BF7047AE
:1004800030B511F0004502D5404261EB41014FF417
:10049000806404F132045FEA915C3FF4DCAE4FF01B
:1004A00003025FEADC0C18BF03325FEADC0C18BF02
:1004B000033202EBDC02C2F1200300FA03FC20FA53
:1004C00002F001FA03FE40EA0E0021FA02F11444A0
:1004D000C1E600BF70B54FF0FF0C4CF4E06C1CEAB5
:1004E00011541DBF1CEA135594EA0C0F95EA0C0F2A
:1004F00000F0DEF82C4481EA030621EA4C5123EA9D
:100500004C5350EA013518BF52EA033541F48011CB
:1005100043F4801338D0A0FB02CE4FF00005E1FB7E
:1005200002E506F00042E0FB03E54FF00006E1FBC8
:1005300003569CF0000F18BF4EF0010EA4F1FF040B
:10054000B6F5007F64F5407404D25FEA4E0E6D414B
:1005500046EB060642EAC62141EA55514FEAC5205C
:1005600040EA5E504FEACE2EB4F1FD0C88BFBCF5D8
:10057000E06F1ED8BEF1004F08BF5FEA500E50F189
:10058000000041EB045170BD06F0004646EA01014F
:1005900040EA020081EA0301B4EB5C04C2BFD4EB81
:1005A0000C0541EA045170BD41F480114FF0000E7A
:1005B000013C00F3AB8014F1360FDEBF002001F0E8
:1005C000004170BDC4F10004203C35DA0C341BDC62
:1005D00004F11404C4F1200500FA05F320FA04F034
:1005E00001FA05F240EA020001F0004221F0004168
:1005F00010EBD37021FA04F642EB06015EEA430EDB
:1006000008BF20EAD37070BDC4F10C04C4F120050A
:1006100000FA04F320FA05F001FA04F240EA0200BD
:1006200001F0004110EBD37041F100015EEA430E8E
:1006300008BF20EAD37070BDC4F1200500FA05F2AE
:100640004EEA020E20FA04F301FA05F243EA02032D
:1006500021FA04F001F0004121FA04F220EA02003C
:1006600000EBD3705EEA430E08BF20EAD37070BD82
:1006700094F0000F0FD101F00046400041EB010162
:1006800011F4801F08BF013CF7D041EA060195F044
:10069000000F18BF704703F00046520043EB0303FE
:1006A00013F4801F08BF013DF7D043EA06037047EB
:1006B00094EA0C0F0CEA135518BF95EA0C0F0CD0F6
:1006C00050EA410618BF52EA4306D1D181EA03013C
:1006D00001F000414FF0000070BD50EA410606BF36
:1006E0001046194652EA430619D094EA0C0F02D17B
:1006F00050EA013613D195EA0C0F05D152EA0336C0
:100700001CBF104619460AD181EA030101F00041DD
:1007100041F0FE4141F470014FF0000070BD41F026
:10072000FE4141F4780170BD70B54FF0FF0C4CF400
:10073000E06C1CEA11541DBF1CEA135594EA0C0F1F
:1007400095EA0C0F00F0A7F8A4EB050481EA030E6C
:1007500052EA03354FEA013100F088804FEA033353
:100760004FF0805545EA131343EA12634FEA022221
:1007700045EA111545EA10654FEA00260EF00041E2
:100780009D4208BF964244F1FD0404F5407402D234
:100790005B084FEA3202B61A65EB03055B084FEAC5
:1007A00032024FF480104FF4002CB6EB020E75EBC2
:1007B000030E22BFB61A754640EA0C005B084FEAEA
:1007C0003202B6EB020E75EB030E22BFB61A754667
:1007D00040EA5C005B084FEA3202B6EB020E75EBB2
:1007E000030E22BFB61A754640EA9C005B084FEA2A
:1007F0003202B6EB020E75EB030E22BFB61A754637
:1008000040EADC0055EA060E18D04FEA051545EA25
:1008100016754FEA06164FEAC30343EA52734FEACE
:10082000C2025FEA1C1CC0D111F4801F0BD141EA47
:1008300000014FF000004FF0004CB6E711F4801FAC
:1008400004BF01430020B4F1FD0C88BFBCF5E06F8C
:100850003FF6AFAEB5EB030C04BFB6EB020C5FEA9C
:10086000500C50F1000041EB045170BD0EF0004EF1
:100870004EEA113114EB5C04C2BFD4EB0C0541EA23
:10088000045170BD41F480114FF0000E013C90E620
:1008900045EA060E8DE60CEA135594EA0C0F08BFE4
:1008A00095EA0C0F3FF43BAF94EA0C0F0AD150EAE3
:1008B00001347FF434AF95EA0C0F7FF425AF104676
:1008C00019462CE795EA0C0F06D152EA03353FF49E
:1008D000FDAE1046194622E750EA410618BF52EA1B
:1008E00043067FF4C5AE50EA41047FF40DAF52EAEF
:1008F00043057FF4EBAE12E74FF0FF3C06E000BF8C
:100900004FF0010C02E000BF4FF0010C4DF804CD98
:100910004FEA410C7FEA6C5C4FEA430C18BF7FEA58
:100920006C5C1BD001B050EA410C0CBF52EA430C86
:1009300091EA030F02BF90EA020F0020704710F106
:10094000000F91EA030F58BF994208BF90422CBF95
:10095000D8176FEAE37040F0010070474FEA410C8E
:100960007FEA6C5C02D150EA013C07D14FEA430CAC
:100970007FEA6C5CD6D152EA033CD3D05DF8040B1D
:10098000704700BF8446104662468C46194663464F
:1009900000E000BF01B5FFF7B7FF002848BF10F126
:1009A000000F01BD4DF808EDFFF7F4FF0CBF01206B
:1009B00000205DF808FB00BF4DF808EDFFF7EAFFE7
:1009C00034BF012000205DF808FB00BF4DF808EDA2
:1009D000FFF7E0FF94BF012000205DF808FB00BF97
:1009E0004DF808EDFFF7CEFF94BF012000205DF821
:1009F00008FB00BF4DF808EDFFF7C4FF34BF01202E
:100A000000205DF808FB00BF4FEA410C7FEA6C5CF8
:100A100002D150EA013C0AD14FEA430C7FEA6C5CF8
:100A200002D152EA033C02D14FF0000070474FF070
:100A3000010070474FEA410212F5001215D211D59C
:100A40006FF47873B3EB625212D94FEAC12343F0CB
:100A5000004343EA505311F0004F23FA02F018BF4D
:100A6000404270474FF00000704750EA013005D116
:100A700011F0004008BF6FF0004070474FF00000D9
:100A8000704700BF4A0011D212F5001211D20DD5E5
:100A90006FF47873B3EB62520ED44FEAC12343F084
:100AA000004343EA505323FA02F070474FF000002E
:100AB000704750EA013002D14FF0FF3070474FF0DD
:100AC000000070474FEA4102B2F1E04324BFB3F5A2
:100AD000001CDCF1FE5C0DD901F0004C4FEAC002B5
:100AE0004CEA5070B2F1004F40EB830008BF20F099
:100AF0000100704711F0804F21D113F13872BCBF53
:100B000001F00040704741F480114FEA5252C2F1A7
:100B10001802C2F1200C10FA0CF320FA02F018BFF0
:100B200040F001004FEAC1234FEAD32303FA0CFC43
:100B300040EA0C0023FA02F34FEA4303CCE77FEAD2
:100B4000625307D150EA01331EBF4FF0FE4040F41C
:100B50004000704701F0004040F0FE4040F40000CB
:100B6000704700BF80F0004002E000BF81F000410C
:100B700042001FBF5FEA410392EA030F7FEA226C43
:100B80007FEA236C6AD04FEA1262D2EB1363C1BFD3
:100B9000D218414048404140B8BF5B42192B88BF42
:100BA000704710F0004F40F4000020F07F4018BF65
:100BB000404211F0004F41F4000121F07F4118BF85
:100BC000494292EA030F3FD0A2F1010241FA03FC2D
:100BD00010EB0C00C3F1200301FA03F100F0004315
:100BE00002D5494260EB4000B0F5000F13D3B0F1DD
:100BF000807F06D340084FEA310102F10102FE2A4C
:100C000051D2B1F1004F40EBC25008BF20F00100BB
:100C100040EA03007047490040EB000010F4000F69
:100C2000A2F10102EDD1B0FA80FCACF1080CB2EBFC
:100C30000C0200FA0CF0AABF00EBC250524218435B
:100C4000BCBFD0401843704792F0000F81F4000100
:100C500006BF80F400000132013BB5E74FEA4103D3
:100C60007FEA226C18BF7FEA236C21D092EA030F3F
:100C700004D092F0000F08BF0846704790EA010FB9
:100C80001CBF0020704712F07F4F04D1400028BFE6
:100C900040F00040704712F100723CBF00F50000C8
:100CA000704700F0004343F0FE4040F400007047FE
:100CB0007FEA226216BF08467FEA236301464202AA
:100CC00006BF5FEA412390EA010F40F480007047BD
:100CD0004FF0000304E000BF10F0004348BF404263
:100CE0005FEA000C08BF704743F0964301464FF09F
:100CF00000001CE050EA010208BF70474FF00003FB
:100D00000AE000BF50EA010208BF704711F000433B
:100D100002D5404261EB41015FEA010C02BF84460B
:100D20000146002043F0B64308BFA3F18053A3F56A
:100D30000003BCFA8CF2083AA3EBC25310DB01FAB1
:100D400002FC634400FA02FCC2F12002BCF1004F35
:100D500020FA02F243EB020008BF20F001007047C6
:100D600002F1200201FA02FCC2F1200250EA4C001A
:100D700021FA02F243EB020008BF20EADC70704760
:100D80004FF0FF0C1CEAD0521EBF1CEAD15392EA6E
:100D90000C0F93EA0C0F6FD01A4480EA010C40024A
:100DA00018BF5FEA41211ED04FF0006343EA5010A4
:100DB00043EA5111A0FB01310CF00040B1F5000FE6
:100DC0003EBF490041EAD3715B0040EA010062F195
:100DD0007F02FD2A1DD8B3F1004F40EBC25008BF7F
:100DE00020F00100704790F0000F0CF0004C08BF9D
:100DF00049024CEA502040EA51207F3AC2BFD2F16A
:100E0000FF0340EAC250704740F400004FF0000377
:100E1000013A5DDC12F1190FDCBF00F000407047B1
:100E2000C2F10002410021FA02F1C2F1200200FAEF
:100E300002FC5FEA310040F1000053EA4C0308BFB6
:100E400020EADC70704792F0000F00F0004C02BF07
:100E5000400010F4000F013AF9D040EA0C0093F082
:100E6000000F01F0004C02BF490011F4000F013BDC
:100E7000F9D041EA0C018FE70CEAD15392EA0C0F4A
:100E800018BF93EA0C0F0AD030F0004C18BF31F0B5
:100E9000004CD8D180EA010000F00040704790F08B
:100EA000000F17BF90F0004F084691F0000F91F02F
:100EB000004F14D092EA0C0F01D142020FD193EAF5
:100EC0000C0F03D14B0218BF084608D180EA01007D
:100ED00000F0004040F0FE4040F40000704740F059
:100EE000FE4040F4400070474FF0FF0C1CEAD05227
:100EF0001EBF1CEAD15392EA0C0F93EA0C0F69D083
:100F0000A2EB030280EA010C49024FEA402037D0ED
:100F10004FF0805343EA111143EA10130CF00040E4
:100F20008B4238BF5B0042F17D024FF4000C8B42D4
:100F300024BF5B1A40EA0C00B3EB510F24BFA3EBB4
:100F4000510340EA5C00B3EB910F24BFA3EB910384
:100F500040EA9C00B3EBD10F24BFA3EBD10340EADE
:100F6000DC001B0118BF5FEA1C1CE0D1FD2A3FF624
:100F700050AF8B4240EBC25008BF20F001007047D9
:100F80000CF0004C4CEA50207F32C2BFD2F1FF037C
:100F900040EAC250704740F400004FF00003013AAD
:100FA00037E792F0000F00F0004C02BF400010F451
:100FB000000F013AF9D040EA0C0093F0000F01F065
:100FC000004C02BF490011F4000F013BF9D041EA87
:100FD0000C0195E70CEAD15392EA0C0F08D14202BA
:100FE0007FF47DAF93EA0C0F7FF470AF084676E78D
:100FF00093EA0C0F04D14B023FF44CAF08466EE766
:1010000030F0004C18BF31F0004CCAD130F0004233
:101010007FF45CAF31F000437FF43CAF5FE700BF8B
:101020004FF0FF3C06E000BF4FF0010C02E000BFB4
:101030004FF0010C4DF804CD4FEA40024FEA410356
:101040007FEA226C18BF7FEA236C11D001B052EA0C
:10105000530C18BF90EA010F58BFB2EB030088BFD2
:10106000C81738BF6FEAE17018BF40F00100704741
:101070007FEA226C02D15FEA402C05D17FEA236C23
:10108000E4D15FEA412CE1D05DF8040B704700BF6A
:10109000844608466146FFE70FB5FFF7C9FF002801
:1010A00048BF10F1000F0FBD4DF808EDFFF7F4FF3A
:1010B0000CBF012000205DF808FB00BF4DF808EDD3
:1010C000FFF7EAFF34BF012000205DF808FB00BFF6
:1010D0004DF808EDFFF7E0FF94BF012000205DF818
:1010E00008FB00BF4DF808EDFFF7D2FF94BF0120C9
:1010F00000205DF808FB00BF4DF808EDFFF7C8FFC2
:1011000034BF012000205DF808FB00BF80B483B02D
:1011100000AF78607B68B3F901301BB2002B06DAB0
:101120007B681B6843F07F431A467B681A6000BFE8
:101130000C37BD4680BC704780B582B000AF00233D
:101140003B7100237B7180233B7000237B701A4B23
:101150009978194B9B793A1D942002F001FB164BAC
:10116000D978154B9B793A46942002F0F9FA124B44
:101170009978114B9B793A1D922002F0F1FA0E4BAF
:10118000D9780D4B9B793A46922002F0E9FA0A4B46
:101190009978094B9B793A1D902002F0E1FA064BB1
:1011A000D978054B9B793A46902002F0D9FA00BFD6
:1011B0000837BD4680BD00BF0000002000000000D1
:1011C000B0B584B000AF03460A46FB801346BB802F
:1011D0004FF00003FB60FB881846FFF779FD0346DC
:1011E0001846FFF723F924A3D3E90023FFF772F988
:1011F00003460C461846214621A3D3E90023FEF7F7
:10120000B5FF03460C4625461C46FB881846FFF7EB
:101210005FFD03461846FFF709F91BA3D3E9002336
:10122000FFF758F902460B46104619464FF00002E8
:10123000174BFEF79DFF02460B4620462946FFF757
:1012400073FA03460C4618462146FFF73BFC03465B
:10125000BB60B7F904301846FFF73EFD0346B96896
:101260001846FFF741FE0346FB60FB68184610373F
:10127000BD46B0BDAFF3008085ECBC8DCD044E40C3
:101280004F92AE99C073B740CBF0F701C30F293F1F
:101290000000F03F00000000B0B58CB000AFBA60B5
:1012A0001A460346FB810B46BB811346FB71FB7953
:1012B000012B40D14FF000034FF00004C7E9063482
:1012C000B7F90C301846FFF707FD0346B968184612
:1012D000FFF70AFE03461846FFF7A8F803460C4638
:1012E000C7E9063434A3D3E90023D7E90601FEF7A2
:1012F0003FFF03460C4625461C4631A3D3E9002395
:10130000D7E90601FFF7E6F802460B462EA1D1E920
:101310000001FEF72BFF02460B4620462946FFF749
:1013200003FA03460C4618462146FFF7CBFB03465B
:101330007B617B693AE0FB79022B37D14FF00003E8
:101340004FF00004C7E90A34B7F90C301846FFF72C
:101350005BF803460C46C7E90A3417A3D3E9002318
:10136000D7E90A01FEF704FF03460C4625461C4652
:1013700013A3D3E90023D7E90A01FFF7ABF802462C
:101380000B4611A1D1E90001FEF7F0FE02460B4623
:1013900020462946FFF7C8F903460C461846214661
:1013A000FFF790FB03467B627B6AFFE71846303706
:1013B000BD46B0BDAFF300804F92AE99C073B74049
:1013C000CBF0F701C30F293F85ECBC8DCD044E4017
:1013D00090B585B000AF78600B46FB707868FFF77A
:1013E00025F84BA3D3E90023FFF774F803460C4616
:1013F000184621464FF00002554BFEF7B7FE034654
:101400000C4618462146FFF75DFB0346BB604FF0D4
:101410000001B868FFF752FE0346002B4BD0B868B6
:10142000FFF704F83CA3D3E90023FFF753F8034682
:101430000C46184621463AA3D3E90023FEF796FE50
:1014400003460C4618462146FFF73CFB0346FB606B
:10145000B968F868FFF794FC0346FB60F868FEF78C
:10146000E5FF31A3D3E90023FEF782FE03460C46D5
:1014700018462146FFF726FB0346FB60B968F8686B
:10148000FFF77EFC0346FB60F868FEF7CFFF28A35A
:10149000D3E90023FEF76CFE03460C4618462146AE
:1014A000FFF710FB0346FB60B968F868FFF768FCBC
:1014B0000346FB6027E07868FEF7B8FF1EA3D3E978
:1014C0000023FFF707F803460C46184621461CA3E5
:1014D000D3E90023FEF74CFE03460C46184621468E
:1014E0000CF0D8F903460C461A46234616A1D1E95A
:1014F0000001FEF73BFE03460C4618462146FFF767
:10150000E1FA0346FB60FB6818461437BD4690BD00
:101510007B14AE47E17A843F9D8026C286A7FC3FBC
:10152000FAD51C2098630740D122DBF97E4A22407D
:1015300091ED7C3F35FA6F406D91B41B01E9D0C04D
:101540000000001469246941A702EE799E6FAA4049
:101550000000F03F000000002DE9B04384B000AF70
:10156000786039607868FEF761FF03460C461846DC
:1015700021460CF015F92EA3D3E90023FEF7F6FD62
:1015800003460C4625461C463868FEF74FFF2AA343
:10159000D3E90023FEF79EFF02460B46904699468C
:1015A0003868FEF743FF26A3D3E90023FEF7E0FDEA
:1015B00002460B4640464946FFF7B6F802460B4640
:1015C00020462946FEF7D4FD03460C461846214620
:1015D000FFF778FA0346FB60F868FEF727FF1AA3C7
:1015E000D3E90023FEF776FF03460C4625461C464A
:1015F000F868FEF71BFF02460B460FA1D1E9000178
:10160000FEF7B4FD02460B4620462946FFF78CF84C
:1016100003460C4618462146FFF754FA0346BB60C2
:10162000BB6818461037BD46BDE8B083AFF30080F5
:101630001655B5BBB16B12401F85EB51B89E3140BA
:10164000A4703D0AD7636E406666666666FEA24079
:10165000B0B58AB000AF0346FB71FA7913465B0060
:1016600013449B0002330C339BB207F11401022296
:10167000184601F022FFFB79454A1B011344B3F9D8
:1016800005301BB29AB2B7F914309BB2D31A9BB291
:10169000FB84FB79063387F82530FB79033387F821
:1016A000243097F8242013465B0013449B00023338
:1016B0000C339BB207F114010222184601F0FDFE23
:1016C00097F82530324A1B011344B3F905301BB299
:1016D0009AB2B7F914309BB2D31A9BB27B84FA79D1
:1016E00013465B0013449B0008330C339BB207F195
:1016F00010010422184601F0E0FEFA7913465B005F
:1017000013449B000C339BB207F10F0101221846D2
:1017100001F0D3FE3A69FB7BB7F92610B7F9220036
:10172000FFF7BAFDF861FB7B1946F869FFF750FE39
:10173000B8611849B869FFF723FB03461846FEF75E
:1017400075FE04460D46B7F914301846FFF7C4FA83
:1017500003461846FEF76AFE0BA3D3E90023FEF703
:10176000B9FE02460B4620462946FEF701FD034618
:101770000C4618462146FFF7A5F90346BB61BB6935
:1017800018462837BD46B0BD9A9999999999B93F9D
:101790003006002000002041B0B586B000AF3B1DF0
:1017A00000221A609A80BB7943F08003BB71BB7939
:1017B000042262F30613BB71BB79012262F3430377
:1017C000BB71BB7943F00103BB71FB796FF3471326
:1017D000FB71FB796FF30413FB71FB796FF3C303A8
:1017E000FB71FB796FF38203FB71FB7943F0030319
:1017F000FB71A44B5979A34B98793B1D9A1C034666
:10180000942001F0ADFF0346002B30D09D4B1B8888
:10181000184602F065FF9C4B00221A66994B197915
:10182000984B9B793A1D942001F0E0FF034683F02A
:101830000103DBB2002B0ED0934B93F861204FF0E5
:10184000FF3283F8612093F86220002242F07F0289
:1018500083F862200BE0BB881B021AB2BB881B0A0C
:101860009BB21BB213431AB2874BA3F86120BB791A
:10187000052262F30613BB71BB7943F00E03BB7103
:10188000804B59797F4B98793B1D9A1C03469420D5
:1018900001F066FF0346002B2CD07A4B1B881846BC
:1018A00002F01EFF784B00221A60764B1979754BB7
:1018B0009B793A1D942001F099FF034683F00103C0
:1018C000DBB2002B0AD0704B5A784FF0FF325A70BF
:1018D0009A78002242F07F029A700BE0BB881B02CC
:1018E0001AB2BB881B0A9BB21BB213431AB2664BD7
:1018F000A3F80120BB79062262F30613BB71BB7902
:10190000012262F34303BB715E4B59795D4B9879B9
:101910003B1D9A1C0346942001F022FF0346002B36
:1019200030D0584B1B88184602F0DAFE564B002286
:101930001A67544B1979534B9B793A1D942001F047
:1019400055FF034683F00103DBB2002B0ED04E4B54
:1019500093F871204FF0FF3283F8712093F87220D2
:10196000002242F07F0283F872200BE0BB881B024A
:101970001AB2BB881B0A9BB21BB213431AB2424B6A
:10198000A3F87120BB7943F07003BB71BB7943F0BE
:101990000E03BB713B4B59793A4B98793B1D9A1C0E
:1019A0000346942001F0DCFE0346002B2CD0354B7F
:1019B0001B88184602F094FE334B00221A61314B0B
:1019C0001979304B9B793A1D942001F00FFF0346A3
:1019D00083F00103DBB2002B0AD02B4B5A7C4FF073
:1019E000FF325A749A7C002242F07F029A740BE014
:1019F000BB881B021AB2BB881B0A9BB21BB21343E3
:101A00001AB2214BA3F81120BB79062262F3061308
:101A1000BB71BB79012262F34303BB71194B597946
:101A2000184B98793B1D9A1C0346922001F098FEB2
:101A30000346002B36D0134B1B88184602F050FE8D
:101A4000114B0022C3F880200E4B19790D4B9B7966
:101A50003A1D922001F0CAFE034683F00103DBB277
:101A6000002B13D0084B93F881204FF0FF3283F8FE
:101A7000812093F88220002242F07F0283F88220A6
:101A800010E000BF0000002030060020BB881B02D1
:101A90001AB2BB881B0A9BB21BB213431AB29C4BEF
:101AA000A3F88120BB7943F07003BB71BB7943F08D
:101AB0000E03BB71974B5979964B98793B1D9A1C35
:101AC0000346922001F04CFE0346002B30D0914B90
:101AD0001B88184602F004FE8D4B00221A628D4BC3
:101AE00019798C4B9B793A1D922001F07FFE0346B9
:101AF00083F00103DBB2002B0ED0854B93F821203D
:101B00004FF0FF3283F8212093F82220002242F088
:101B10007F0283F822200BE0BB881B021AB2BB882D
:101B20001B0A9BB21BB213431AB2794BA3F82120B4
:101B30000023FB7429E0FB7C754A1B011344B3F9B5
:101B400001301BB247F6FF7293421AD0FB7C1B0197
:101B50006F4A1344184601F023FCFB7C1B016C4ABE
:101B600013441846FFF7D2FAFB7C1B01684A981809
:101B7000FB7C1B01664A13440433194601F076FCD2
:101B800000E000BFFB7C0133FB74FB7C022BD2D94D
:101B90000623BB7429E0BB7C5D4A1B011344B3F9E7
:101BA00001301BB247F6FF7293421AD0BB7C1B0177
:101BB000574A1344184601F0F3FBBB7C1B01544AFF
:101BC00013441846FFF7A2FABB7C1B01504A981831
:101BD000BB7C1B014E4A13440433194601F046FCFA
:101BE00000E000BFBB7C0133BB74BB7C082BD2D9A7
:101BF000474BB3F901301BB247F6FF7293421BD03B
:101C00000020FFF725FD78610020FFF721FD034646
:101C10001846FEF70BFC03460C46184621460BF00F
:101C200079FD03460C4618462146FEF703FF03469E
:101C30001AB2394B1A8003E0374B4DF6F1021A8085
:101C4000334BB3F911301BB247F6FF72934217D0F2
:101C50000120FFF7FDFC03461846FEF7E7FB0346AD
:101C60000C46184621460BF055FD03460C46184617
:101C70002146FEF7DFFE03461AB2274B9A8303E0A4
:101C8000254B4DF6F1029A83214BB3F921301BB25B
:101C900047F6FF72934217D00220FFF7D9FC0346A4
:101CA0001846FEF7C3FB03460C46184621460BF0C8
:101CB00031FD03460C4618462146FEF7BBFE03469F
:101CC0001AB2154BDA8303E0134B4DF6F102DA83B7
:101CD000114B1B881BB2114A934200F0EA800C4B57
:101CE000B3F935301BB21846FEF78EFB06A3D3E9D5
:101CF0000023FEF761FE0346002B11D04FF00003D6
:101D0000FB6060E0AFF3008011111111111111405F
:101D10003006002000000020DC030020F1D8FFFF87
:101D2000774BB3F935301BB21846FEF7D5FF0346A3
:101D30001846FEF77BFB66A3D3E90023FEF716FAED
:101D400003460C4618462146FEF7BCFE0346FB60E0
:101D5000F868FEF76BFB04460D467869FEF766FBF4
:101D60005DA3D3E90023FEF7B5FB02460B465CA159
:101D7000D1E90001FEF7FAF902460B462046294652
:101D8000FEF7D2FC03460C4618462146FEF79AFEA3
:101D90000346FB60F868FEF749FB53A3D3E9002331
:101DA000FEF798FB03460C461846214650A3D3E99C
:101DB0000023FEF7DDF903460C4618462146FEF7E0
:101DC00081FE0346FB60BB1C02221946582001F02D
:101DD00074FBF868FEF72AFB04460D46B7F902309B
:101DE0001846FEF779FF03461846FEF71FFB42A38D
:101DF000D3E90023FEF76EFB02460B462046294638
:101E0000FEF7B6F903460C4618462146FEF75AFE81
:101E10000346FB603B49F868FFF76EF90346002B69
:101E200002D0384BFB600AE04FF00001F868FFF782
:101E300045F90346002B02D04FF00003FB60F86821
:101E4000FEF7F4FA4FF000022F4BFEF743FB034678
:101E50000C4618462146FEF7EDFD03461AB22B4B01
:101E60001A817869FEF7E2FA23A3D3E90023FEF78B
:101E700031FB03460C4618462146FEF723FE034677
:101E80001946F868FFF768FB03461846FEF7CEFAD6
:101E900003460C46184621460BF03CFC03460C4614
:101EA00018462146FEF7C6FD03461AB2174B5A8163
:101EB00007E0164B4DF6F1021A81144B4DF6F10274
:101EC0005A8100BF1837BD46B0BD00BFAFF30080D8
:101ED0001111111111111140258FAD7154C22C3FF8
:101EE000E7E2BC2EED23F13FFA7E6ABC7493184002
:101EF0009A9999999999A93F9A9999999999B93FD4
:101F0000300600200000C84200002440DC0300200E
:101F100080B582B000AF3B4600221A609A80A04B89
:101F200059799F4B98793B469A1C0346922001F0C1
:101F300017FC0346002B31D0994B1B88184602F042
:101F4000CFFB984B00221A62954B1979944B9B79E1
:101F50003A46922001F04AFC034683F00103DBB2CB
:101F6000002B0ED08F4B93F821204FF0FF3283F8D7
:101F7000212093F82220002242F07F0283F82220C1
:101F800011E03B881B021AB23B881B0A9BB21BB2B2
:101F900013431AB2834BA3F8212004E0804B1B8823
:101FA000184602F09DFBBB7843F08003BB70BB7802
:101FB000042262F30613BB70BB786FF34303BB705C
:101FC000BB7843F00103BB70FB786FF34713FB70E2
:101FD000FB786FF30413FB70FB786FF3C303FB70A4
:101FE000FB786FF38203FB70FB7843F00303FB7015
:101FF0006B4B59796A4B98793B469A1C0346902063
:1020000001F0AEFB664B1B88184602F069FB654B7E
:1020100000221A63624B1979614B9B793A469020F2
:1020200001F0E4FB3B881B021AB23B881B0A9BB2FF
:102030001BB213431AB25B4BA3F83120594BB3F9CF
:1020400031301BB2DB131BB29BB203F00103002B38
:102050000AD0544B93F83120002283F8312093F8B2
:102060003220002283F832204F4801F099F94F497D
:102070004D4801F0FBF9BB78052262F30613BB70F3
:10208000474B5979464B98793B469A1C034690201A
:1020900001F066FB424B1B88184602F021FB414BC6
:1020A00000221A653E4B19793D4B9B793A469020A8
:1020B00001F09CFB3B881B021AB23B881B0A9BB2B7
:1020C0001BB213431AB2374BA3F85120354BB3F967
:1020D00051301BB2DB131BB29BB203F00103002B88
:1020E0000AD0304B93F85120002283F8512093F806
:1020F0005220002283F852202D4801F051F92D4939
:102100002B4801F0B3F9BB78062262F30613BB70CB
:10211000234B5979224B98793B469A1C03469020D1
:1021200001F01EFB1E4B1B88184602F0D9FA1D4B0E
:1021300000221A641A4B1979194B9B793A46902060
:1021400001F054FB3B881B021AB23B881B0A9BB26E
:102150001BB213431AB2134BA3F84120114BB3F92E
:1021600041301BB2DB131BB29BB203F00103002B07
:102170000AD00C4B93F84120002283F8412093F8B9
:102180004220002283F842200B4801F009F90B4954
:10219000094801F06BF900BF0837BD4680BD00BF9C
:1021A00000000020300600206006002064060020A9
:1021B000800600208406002070060020740600209F
:1021C00080B582B000AF03463960FB710B4B1B78C2
:1021D000002B0ED1094B01221A70084B5A225A606B
:1021E000064B00221A61054B00225A61044809F08F
:1021F000C9F8012318460837BD4680BDC006002037
:10220000E0DE00080000000090B583B000AF034698
:10221000FB80FB88002B1ED0FB881846FEF758FD7C
:1022200003461846FEF702F90DA3D3E90023FEF793
:1022300051F903460C46184621464FF000020A4B5E
:10224000FDF796FF03460C4618462146FEF71AFC9A
:1022500003469BB200E0002318460C37BD4690BDF4
:102260007B14AE47E17AE83F00000C40F0B585B042
:1022700002AF03463960FB71174BDB891BB29BB27F
:102280001846FFF7C1FF03461C46134B1B8A1BB2BF
:102290009BB21846FFF7B8FF03461D460E4B5B8AFC
:1022A0001BB29BB21846FFF7AFFF03461E460A4B10
:1022B0009B8A1BB29BB21846FFF7A6FF034600930A
:1022C00033462A462146054808F0E8FF0123184610
:1022D0000C37BD46F0BD00BFDC030020F4DE000873
:1022E0002DE9F0419EB008AF0346B960FB734FF48F
:1022F00080719B4801F068FE002387F8573070E139
:1023000097F85730974A1B011344B3F901301BB2B9
:1023100013F5004F0CD197F85730924A1B01134424
:10232000043300221A60904B3B658F4BFB6473E0D3
:1023300097F8572013465B0013449B0002330C337D
:102340009BB207F11A010222184601F0B6F897F87D
:102350005730844A1B011344B3F905301BB29AB2BB
:10236000B7F91A309BB2D31A9BB2A7F8483097F846
:102370005730063387F8473097F85730033387F8DC
:10238000463097F8462013465B0013449B00023307
:102390000C339BB207F11A010222184601F08DF8A6
:1023A00097F847306F4A1B011344B3F905301BB24D
:1023B0009AB2B7F91A309BB2D31A9BB2A7F844303D
:1023C00097F8572013465B0013449B0008330C33E7
:1023D0009BB207F114010422184601F06EF897F839
:1023E000572013465B0013449B000C339BB207F14C
:1023F00013010122184601F060F87A69FB7CB7F9F5
:102400004810B7F94400FEF747FF3865FB7C1946D2
:10241000386DFEF7DDFFF8645449386DFEF74EFE67
:102420000346002B26D04FF00001386DFEF75AFE10
:102430000346002B0CD0386DFDF7F8FF46A3D3E917
:102440000023FDF795FE03460C46184621460BE097
:10245000386DFDF7EBFF40A3D3E90023FDF786FEBF
:1024600003460C461846214607F12803052208F0CA
:1024700093FE25E04FF00001386DFEF733FE034672
:10248000002B0CD0386DFDF7D1FF33A3D3E9002327
:10249000FDF76EFE03460C46184621460BE0386DEC
:1024A000FDF7C4FF2CA3D3E90023FDF75FFE03462D
:1024B0000C461846214607F12803062208F06CFE58
:1024C0002B49F86CFEF7FAFD0346002B2DD0294965
:1024D000F86CFEF711FE0346002B26D04FF00001EA
:1024E000F86CFEF7FFFD0346002B0CD0F86CFDF7EF
:1024F0009DFF19A3D3E90023FDF73AFE03460C46DE
:10250000184621460BE0F86CFDF790FF12A3D3E9C3
:102510000023FDF72BFE03460C461846214607F123
:102520001C03032208F038FE37E04FF00001F86C7E
:10253000FEF7D8FD0346002B1ED0F86CFDF776FFA2
:1025400005A3D3E90023FDF713FE03460C46184606
:1025500021461DE0AFF300807B14AE47E17A743F63
:10256000D4080020300600205CFF79C40000C84277
:1025700000002041000020C1F86CFDF757FF78A350
:10258000D3E90023FDF7F2FD03460C461846214629
:1025900007F11C03042208F0FFFD97F8571097F885
:1025A0005730714A1B011344B3F901301BB218466E
:1025B00097F857306C4A1B011344B3F905301BB22E
:1025C0001A4607F11C03019307F1280300931346F1
:1025D0000246664808F062FE97F85730013387F8E4
:1025E000573097F85730022B7FF68AAE604B1B7836
:1025F000013BDBB287F84B3097F94B30002B02DA06
:102600001D2387F84B3097F94B30594A04335B0050
:1026100013449B881846FEF75BFB03461846FDF7FC
:1026200005FF4FF01132534BFDF754FF03460C46A4
:1026300018462146FEF746FA03463B644E49386C7D
:10264000FEF73CFD0346002B11D0386CFDF7EEFE83
:1026500043A3D3E90023FDF78BFD03460C46184640
:10266000214607F13403032208F096FD10E0386C90
:10267000FDF7DCFE3AA3D3E90023FDF779FD03461D
:102680000C461846214607F13403042208F084FD65
:10269000354BB3F931301BB29E46334BB3F935306D
:1026A0001BB29C46304BB3F935301BB21A46134669
:1026B0005B001344DB0203F58043DB0B9BB29846BF
:1026C000294BB3F951301BB21946274BB3F955309A
:1026D0001BB21846244BB3F955301BB21A461346A9
:1026E0005B001344DB0203F58043DB0B9BB21C460B
:1026F0001D4BB3F941301BB21D461B4BB3F945309E
:102700001BB21E46184BB3F945301BB21A4613468E
:102710005B001344DB0203F58043DB0B9BB27B6061
:1027200097F94B30124A04335B0013449B881A46D6
:1027300007F13403079306927B680593049603958B
:102740000294019000914346624671460B4808F09E
:10275000A5FD012318465837BD46BDE8F08100BFEE
:102760007B14AE47E17A743F3006002008DF000892
:10277000D80800201111913F000020413CDF0008E3
:10278000B0B584B000AF0346FB71474BB3F93530A9
:102790001BB21846FDF738FE37A3D3E90023FEF736
:1027A0000BF90346002B03D04FF00003FB605CE005
:1027B000FB793D4A1B011344B3F905301BB218469F
:1027C000FEF78AFA03461846FDF730FE2CA3D3E93C
:1027D0000023FDF7CBFC03460C4618462146FEF7C6
:1027E00071F90346FB60F868FDF720FE04460D46CC
:1027F0002E4B1B881BB21846FEF76EFA034618468E
:10280000FDF714FE20A3D3E90023FDF763FE024683
:102810000B461FA1D1E90001FDF7A8FC02460B46BB
:1028200020462946FDF780FF03460C461846214600
:10283000FEF748F90346FB60F868FDF7F7FD16A3BD
:10284000D3E90023FDF746FE03460C461846214611
:1028500013A3D3E90023FDF78BFC03460C4618466F
:102860002146FEF72FF90346FB60FB681846103738
:10287000BD46B0BDAFF300805555555589AAB0404F
:102880005655555589AAB040C28F764B8E15CC3F10
:102890004C367925F4BC9040FA7E6ABC749318409B
:1028A0009A9999999999A93F30060020DC03002054
:1028B000B0B592B004AF03463960FB71FB79012BD0
:1028C00040F261823B6804331B681B7887F837301D
:1028D00008F0BCFC024697F83730013313441B78EC
:1028E00003F00303022B03D197F83730203B01E0BC
:1028F00097F8373087F8363097F83630482B00F0A5
:10290000ED80542B03D0432B00F02E814AE23B682C
:1029100004331B685B7887F83630FB79022B40F074
:10292000418297F83630002B00F03C823B6804333C
:102930001B6802331B78002B40F0348208F086FCC1
:10294000024697F83630013313441B7803F0040332
:10295000002B41D097F83630303B3B633B6B022B6A
:102960003AD8C54A3B6B1B011344B3F905301BB27F
:10297000FB843A6B13465B0013449B0002330C3319
:102980009BB207F126010222184600F0C0FD034663
:1029900083F00103DBB2002B40F0F7813A6B134662
:1029A0005B0013449B0002330C339BB207F12601FA
:1029B0000222184600F081FDAF4A3B6B1B01134415
:1029C000B3F905301BB21A46B7F92630396BAB485C
:1029D00008F064FC00BFD4E197F8363087F82F3058
:1029E00008F034FC024697F82F30013313441B786B
:1029F00003F00303022B03D197F82F30203B01E0B3
:102A000097F82F30412B40F0C2819B4BB3F9053032
:102A10001BB23B84984BB3F915301BB27B84964BA9
:102A2000B3F925301BB2BB8407F1200302221946FB
:102A30000E2000F06CFD0346002B40F0AA8107F148
:102A400020030233022219461A2000F060FD0346DB
:102A5000002B40F0A08107F1200304330222194625
:102A6000262000F054FD0346002B40F0968107F12C
:102A70002003022219460E2000F01FFD07F120035B
:102A80000233022219461A2000F017FD07F1200335
:102A9000043302221946262000F00FFD764BB3F9CD
:102AA00005301BB21846B7F920301C46724BB3F9FB
:102AB00015301BB21D46B7F922301A466E4BB3F9DA
:102AC00025301BB2B7F924100291019300922B46D6
:102AD000224601466A4808F0E1FB52E10320FFF775
:102AE0004FFE03461846FDF7A1FC4FF00002654B70
:102AF000FDF7F0FC03460C4618462146FDF79AFF09
:102B00000346BB85FB79032B1ED13B6808331B684A
:102B1000184600F06FFA03461BB23B85B7F9283020
:102B20009AB2BB8DD31A9BB21BB23B8507F1280327
:102B300002221946582000F0EAFC034683F0010304
:102B4000DBB2002B40F02B8107F12803022219464B
:102B5000582000F0B2FCB7F92C30B7F928201946FC
:102B6000494808F09BFB0CE13B6804331B685B7829
:102B700087F83630FB79032B40F0028197F8363026
:102B8000002B00F0FD803B6804331B6802331B7888
:102B9000002B40F0F58008F059FB024697F83630DC
:102BA000013313441B7803F00403002B00F0A380CF
:102BB00097F83630303BDAB2344B1A70334B1B780F
:102BC000022B00F29880314B1B781A4613465B00AB
:102BD00013449B0006330C339BB202222C49184647
:102BE00000F06BFC294B1B781A4613465B0013441C
:102BF0009B0002330C339BB202222649184600F098
:102C00005CFC224B1B781C4A1B011344B3F90530B2
:102C10001BB29AB21F4BB3F900309BB2D31A9BB2CE
:102C20007B853B6808331B68184600F078FA03463A
:102C300019461948FDF78CFA0346002B2ED1144B88
:102C400000221A804FF00003FB60104B1B781A46DD
:102C500013465B0013449B0008330C339BB207F10F
:102C60000C010422184600F052FC034683F00103D5
:102C7000DBB2002B3FD095E030060020D8DF000803
:102C8000E8DF0008000024400CE000085C0300209E
:102C90005E030020600300201CE000084FF00003EA
:102CA000BB603B6808331B68184600F0A3F9034675
:102CB0009AB2434B1A80424B1B88B7F92A2011461F
:102CC0001846FEF77DFA0346BB603E4B1B781A465A
:102CD00013465B0013449B0008330C339BB207F18F
:102CE00008010422184600F012FC034683F0010399
:102CF000DBB2002B55D14FF00003FB61314B1B7849
:102D00001A4613465B0013449B0008330C339BB2F6
:102D100007F11C010422184600F0CFFBFB694FF0BD
:102D200000011846FEF7DEF90346002B0DD0FB69C3
:102D30001846FDF77BFB20A3D3E90023FDF718FA23
:102D400003460C46184621460CE0FB691846FDF781
:102D50006DFB19A3D3E90023FDF708FA03460C46DF
:102D60001846214607F11003052208F015FA154B05
:102D70001B78194607F110031A46134808F08EFA1B
:102D800000BF012312E000BF0CE000BF0AE000BF5B
:102D900008E000BF06E000BF04E000BF02E000BFA3
:102DA00000E000BF094808F0EDFA01231846383763
:102DB000BD46B0BDAFF300807B14AE47E17A743FEF
:102DC000620300205C03002020E0000830E00008DF
:102DD00080B582B000AF03463960FB711C4B1B7895
:102DE000002B1BD101224FF480711A4801F01CFF07
:102DF000012001F075FC184808F0C4FA012001F028
:102E00006FFC00224FF48071124801F00DFF104B4F
:102E10001B780133DAB20E4B1A700EE00F4B002212
:102E20001A700E4B00225A600C4B05221A610B4B94
:102E300005225A61064B00221A70054B1B78002BA5
:102E400001D1012300E0022318460837BD4680BDAA
:102E500064030020000801403CE00008C006002098
:102E600080B400AF244B254AC3F8A821224B80220E
:102E7000A3F8AC21204B0022A3F8AE211E4B002268
:102E8000A3F8B0211C4B0022A3F8B4211A4B002256
:102E9000A3F8B221184B1A4AC3F81821164B4FF465
:102EA0008072A3F81C21144B0022A3F81E21124BA0
:102EB0000022A3F82021104B0022A3F824210E4B5E
:102EC0000022A3F822210C4B00221A700A4B002288
:102ED0005A60094B05221A61074B05225A61064BBD
:102EE000D3F8183100221A70034B0022A3F81E21D8
:102EF00000BFBD4680BC7047C0060020E807002028
:102F0000D806002080B588B000AFF860B9601346DD
:102F1000FB710023BB770023FB7558E0FB680022A0
:102F20001A70FB680133FB60FB681B78184608F0D9
:102F30007BF90346002BF1D1FB681B78002B50D0A6
:102F4000BB68FA681A60BB680433BB60FB7D013361
:102F5000FB750023FB7725E0FB681B78222B14D13F
:102F6000BB7F002B0CBF01230023DBB2BB77FB7FB1
:102F7000002B03D1FB68BB610123FB77BB690022F7
:102F80001A70FB680133FB600CE0FB7F002B06D05E
:102F9000FB681A78BB691A70BB690133BB61FB68B7
:102FA0000133FB60FB681B78002B0AD0BB7F002B32
:102FB000D2D1FB681B78184608F036F90346002B7F
:102FC000CAD0FB7F002B02D0BB6900221A70FB68BD
:102FD0001B78002B06D0FA7DFB79013B9A42A3DBDC
:102FE00000E000BFBB6800221A60FB7D1846203756
:102FF000BD4680BD80B584B000AF78607B68002B93
:1030000003D07B681B78002B01D1002383E07B6811
:103010001B78FB730023BB73FB7B2D2B08D1012393
:10302000BB737B6801337B607B681B78FB7308E0B4
:10303000FB7B2B2B05D17B6801337B607B681B7886
:10304000FB730A237B730023BB6005E07B680133BD
:103050007B607B681B78FB73FB7B302BF6D0FB7BA4
:10306000782B02D0FB7B582B07D110237B737B6816
:1030700001337B607B681B78FB737B7B0A2B18D149
:1030800012E0BB685B00BB60BB689B00BA6813447E
:10309000BB60FB7B303BBA681344BB607B68013389
:1030A0007B607B681B78FB73FB7B303B092BE8D98B
:1030B00027E07B7B102B24D11CE0FB7B184608F01B
:1030C00069F90346FB73BB681B01BB60FB7B402BAC
:1030D00005D8FB7B303BBA681344BB6004E0FB7B44
:1030E000373BBA681344BB607B6801337B607B6805
:1030F0001B78FB73FB7B184608F09FF80346002BF8
:10310000DBD17B7B0A2B05D1BB7B012B02D1BB68BA
:103110005B42BB60BB6818461037BD4680BD80B5BA
:1031200084B000AF78607B68FB600BE07B681B7845
:10313000184608F02FF90346DAB27B681A707B68EC
:1031400001337B607B681B78002BEFD1FB6818464E
:103150001037BD4680BD000080B483B000AF0023AF
:10316000FB800023FB8007E0FB880D4A134400220C
:103170001A76FB880133FB80094BB3F81E319BB2F2
:10318000FA889A42F0D3064B0022A3F81E21044B82
:103190000022A3F8222100BF0C37BD4680BC704737
:1031A000C006002090B585B000AF78600B46FB707C
:1031B0000223FB727B680022A3F8AE217B68002209
:1031C000A3F8B021554B1B68002B4ED17B68D3F878
:1031D00018310A2252491846FFF794FE03461A4650
:1031E000504B1A704F4B1B78002B02D10123FB72FE
:1031F0008FE04B4B1B681846FFF791FF4A4BFB6073
:10320000464AFB6814460FCB84E80F0027E0434B87
:103210001A68434B1B6819461046FCF799FF034692
:10322000002B13D13D4B1A7BFB781340DBB2002BF4
:1032300002D10123FB7217E03C4B1B78012B13D109
:103240003B4808F09FF80223FB7262E0FB681033F2
:10325000FB60324AFB6814460FCB84E80F002F4B0B
:103260001B68002BD3D100E000BF2C4B1B68002B48
:103270000BD0FB7A012B08D1284B00221A607B6807
:10328000D3F8183100221A7043E0244B1B68002B3E
:1032900014D0224B5B68234A127821491046984784
:1032A0000346FB72FB7A012B33D11C4B00221A60C0
:1032B0007B68D3F8183100221A702AE0FB78012BC2
:1032C00025D101224FF480711A4801F0ADFC012094
:1032D00001F006FA184808F055F8012001F000FA4C
:1032E00000224FF48071134801F09EFC7B68B3F814
:1032F0001E319AB27B68B3F81C319BB29A4206D356
:103300007B68B3F81C319AB27B68A3F81E210123B5
:10331000FB72FB7A18461437BD4690BD6803002047
:1033200078030020A003002050E10008C006002020
:10333000A4E0000800080140A8E0000880B500AF44
:10334000064B074A1A60054801F0F3FA0346002BC2
:1033500001D000F0A9FB00BF80BD00BF78080020AD
:103360000030024080B485B000AF78607B681B6895
:10337000094A93420BD1094A084B5B6943F0400369
:103380005361064B5B6903F04003FB60FB6800BFC1
:103390001437BD4680BC7047003002400010024028
:1033A00080B485B000AF78607B681B7A18467B6874
:1033B000B3F9013019B27A68031D5B0013440A4661
:1033C0005A807B681B7A0133DAB27B681A727B6899
:1033D0001B7A022B02D97B6800221A727B68B3F930
:1033E0000A207B68B3F90C309A421BDA7B68B3F988
:1033F0000A207B68B3F90E309A420FDA7B68B3F982
:103400000C207B68B3F90E309A4203DA7B689B8903
:10341000FB8122E07B68DB89FB811EE07B685B89A6
:10342000FB811AE07B68B3F90C207B68B3F90E309E
:103430009A420FDA7B68B3F90A207B68B3F90E3041
:103440009A4203DA7B685B89FB8106E07B68DB8953
:10345000FB8102E07B689B89FB817B68FA89A3F88A
:10346000012000BF1437BD4680BC704780B485B0D2
:1034700000AF786039607B681B68FB603B681B6845
:10348000BB60FA68BB68D31AFB60FB681B11FB606A
:10349000FB6803F00063002B03D0FB6843F070432C
:1034A000FB60BA68FB681344BB60BA683B681A608B
:1034B00000BF1437BD4680BC704780B586B000AFF2
:1034C0000346B9607A60FB810023FB75FB897F2B83
:1034D0000AD8FA897B6813447F2B05D8BB68002B78
:1034E00002D07B68002B01D100230CE07B68DBB2AB
:1034F000F989BA68A02000F001FA0346002B01D038
:103500000123FB75FB7D18461837BD4680BD80B58D
:1035100086B000AF0346B9607A60FB810023FB757B
:10352000FB897F2B0AD8FA897B6813447F2B05D847
:10353000BB68002B02D07B68002B01D100230CE07C
:103540007B68DBB2F989BA68A02000F081F90346F4
:10355000002B01D00123FB75FB7D18461837BD46B3
:1035600080BD000080B588B000AF07F110030022D5
:103570001A605A609A60DA603F4A3F4B9B6943F099
:10358000100393613C4B9B6903F01003FB60FB68E5
:10359000394A394B9B6943F020039361364B9B6951
:1035A00003F02003BB60BB68334A334B9B6943F095
:1035B00004039361304B9B6903F004037B607B68D9
:1035C0002D4A2D4B9B6943F0080393612A4B9B695D
:1035D00003F008033B603B6800224FF48851274802
:1035E00001F022FB00224FF48071254801F01CFB02
:1035F0004FF460433B6103237B6107F110031946DD
:10360000204801F0B3F948F23C033B6103237B619E
:1036100007F1100319461A4801F0A8F94EF63F6366
:103620003B6103237B6107F110031946134801F046
:103630009DF94FF488533B6101237B610023BB61FB
:103640000223FB6107F1100319460C4801F08EF9C3
:103650004FF480733B6101237B610023BB61022334
:10366000FB6107F110031946054801F07FF900BF1F
:103670002037BD4680BD00BF00100240000C014055
:10368000000801400010014080B500AF124B134A02
:103690001A60114B124A5A600F4B00229A600E4B6F
:1036A0000022DA600C4B4FF480421A610A4B002270
:1036B0005A61094B00229A61074B0022DA61064BDE
:1036C00000221A62044801F0C7FA0346002B01D019
:1036D00000F0EAF900BF80BD8008002000540040DF
:1036E000801A060080B588B000AF786007F110033B
:1036F00000221A605A609A60DA607B681B68154A7B
:10370000934223D1144A144B9B6943F008039361FD
:10371000114B9B6903F00803FB60FB68C0233B610E
:1037200012237B610323FB6107F1100319460B4849
:1037300001F01CF9084A084BDB6943F40013D3611C
:10374000054BDB6903F40013BB60BB6800BF203787
:10375000BD4680BD0054004000100240000C0140F6
:1037600080B586B002AF3A601A460346FB710B463D
:10377000BB7113467B710023FB730023BB7307F1FE
:10378000080300221A601A71BB793B720023BB73D5
:103790000DE0BB7B0133BA7B39680A44127807F12C
:1037A00010010B4403F8082CBB7B0133BB73BA7BBD
:1037B0007B799A42EDD3FB7999B27B799BB2013345
:1037C00098B207F10802052300930346064801F06A
:1037D00047FB0346002B01D10123FB73FB7B1846FB
:1037E0001037BD4680BD00BF8008002080B586B080
:1037F00002AF3A601A460346FB710B46BB71134693
:103800007B710023FB73FB7999B2BA1D05230093EA
:1038100001230E4801F024FB0346002B01D10123B4
:10382000FB73FB7999B27B799AB205230093134617
:103830003A68064801F022FC0346002B01D101231F
:10384000FB73FB7B18461037BD4680BD8008002007
:1038500080B5A0B002AF3A601A460346FB710B4632
:10386000BB801346BB71002387F87730002387F8AD
:10387000763007F108036E220021184607F006FD96
:10388000BB881B0A9BB2DBB23B72BB88DBB27B728C
:10389000022387F8763011E097F8763097F8762093
:1038A000023A39680A44127807F178010B4403F8A8
:1038B000702C97F87630013387F8763097F87630A9
:1038C0006D2BE9D9FB7999B2BB799BB2023398B2DF
:1038D00007F108020F2300930346074801F0C0FADE
:1038E0000346002B02D1012387F8773097F8773011
:1038F00018467837BD4680BD8008002080B586B068
:1039000002AF3A601A460346FB710B46BB80134672
:10391000BB710023FB730023BB81BB881B0A9BB2D6
:10392000DBB23B73BB88DBB27B73FB7999B207F1E7
:103930000C020A23009302230F4801F091FA034678
:10394000002B01D10123FB73FB7999B2BB799AB2A9
:103950000F23009313463A68074801F08FFB034694
:10396000002B01D10123FB730123FB73FB7B184662
:103970001037BD4680BD00BF8008002080B500AF75
:1039800000F04CFE00F030F8FFF7ECFDFFF77CFE96
:10399000FFF7D4FC06F0D2FE00F05AFC00F0D4FC95
:1039A00000F0C6FD0E4B022283F834200C4800F0D4
:1039B00059FA41F2883000F093FE0421094800F0E2
:1039C00003FB0121074800F0FFFA064800F016FB50
:1039D0000246034B1A63024800F08EFAF5E700BF77
:1039E000A4030020D408002080B594B000AF07F1F4
:1039F000280328220021184607F048FC07F1140389
:103A000000221A605A609A60DA601A613B1D002237
:103A10001A605A609A60DA600923BB624FF48033FF
:103A2000FB6200233B630123BB6301233B6402234E
:103A30007B644FF48033BB644FF48013FB6407F165
:103A40002803184602F09AFF0346002B01D000F02D
:103A50002BF80F237B610223BB618023FB614FF4B2
:103A600080633B624FF480637B6207F114030121A2
:103A7000184603F0E7F90346002B01D000F014F8D4
:103A800010237B604FF480033B613B1D184603F01D
:103A9000BDFB0346002B01D000F006F803F0DEFA70
:103AA00000BF5037BD4680BD80B400AF00BFBD46EB
:103AB00080BC704780B483B000AF786039603B68E9
:103AC0005A087B681A443B68B2FBF3F318460C377C
:103AD000BD4680BC704780B483B000AF03460A4641
:103AE000FB801346BB80FB88BA88520892B21A4406
:103AF000BB8892FBF3F39BB218460C37BD4680BCE3
:103B00007047000080B584B000AF78600123FB608F
:103B100028E07B681A68FB681340022B12D0402B08
:103B200009D0012B00D00EE0FDF736FE40211148F0
:103B300000F04AFA07E0FEF7EBF901210D4800F02A
:103B400043FA00E000BF7B681A68FB68DB431A4059
:103B50007B681A60FB685B00FB60FB68002B01D18F
:103B60000123FB607B681B68002BD2D100BF10379C
:103B7000BD4680BDD408002080B584B000AF786019
:103B80000123FB60FAE07B681A68FB681340202B76
:103B900016D0B3F5807F0AD0042B00D0DFE07C483C
:103BA00003F015FC00217A4803F08AFCD7E07B681B
:103BB0005B7A032B40F0D280764803F008FCCDE01E
:103BC000754B5B78DBB2744A04335B0013449B880B
:103BD0009AB2714B9B689B1A6F4A93606F4B9B899B
:103BE0009AB26D4B9B6813446B4A93606A4B1B7887
:103BF000DBB2694A04335B0013449B889AB2664B7C
:103C00005B689B1A644A5360644B9B899AB2624B0F
:103C10005B681344604A53605F4B1B78DBB2184605
:103C20005E4B9B8999B25C4A031D5B0013440A46B4
:103C30009A80594B1B78DBB20133DAB2564B1A70BB
:103C4000554B1B78DBB21D2B02D9534B00221A7047
:103C5000514B1B78DBB20F3BDAB24F4B5A704E4BD5
:103C60005B78DBB25BB2002B06DA4B4B5B78DBB2E6
:103C70001E33DAB2484B5A70474BDB78DBB20E2B5F
:103C800006D8454BDB78DBB20133DAB2424BDA704F
:103C9000414B9B78DBB21D2B06D83F4B9B78DBB2A8
:103CA0000133DAB23C4B9A703C4B9B899BB20621A4
:103CB0001846FFF710FF03461AB2384BDA81364B2D
:103CC0009868354BDB78DBB21A4613465B00134429
:103CD0005B001946FFF7EEFE03461AB22F4B1A821D
:103CE0002D4B58682C4B9B78DBB21A4613465B0071
:103CF00013445B001946FFF7DDFE03461AB2274B5B
:103D00005A8200237B8100237B7213E07B7A224A54
:103D100004335B0013449B889BB27A899A4206D293
:103D20007B7A1D4A04335B0013449B887B817B7A3A
:103D300001337B727B7A1D2BE8D97B8906211846DB
:103D4000FFF7C9FE03461AB2144B9A8204211448A5
:103D500000F03AF9114B00229A8100E000BF7B6825
:103D60001A68FB68DB431A407B681A60FB685B00DB
:103D7000FB60FB68002B01D10123FB607B681B68A3
:103D8000002B7FF400AF00BF1037BD4680BD00BFE1
:103D90006009002020090020D8080020DC03002052
:103DA000D408002080B584B000AF78600123FB60A8
:103DB00047E07B681A68FB681340102B2FD0802BDC
:103DC00022D0082B00D02DE0224B012283F826219F
:103DD000204B1B78012B03D11F4B01221A7002E0EC
:103DE0001D4B02221A701C4B1B7819461948FFF70D
:103DF000D9F903461A46194B1A70184B1B78012B38
:103E0000F1D1FFF7A9F90DE07B685B7A032B08D1AC
:103E1000104B1B7812491846FEF762FA01E000BF0A
:103E200000E000BF7B681A68FB68DB431A407B68D0
:103E30001A60FB685B00FB60FB68002B01D101236B
:103E4000FB607B681B68002BB3D100BF1037BD46F9
:103E500080BD00BFC0060020000400200800002034
:103E6000D806002080B582B000AF78607B68012260
:103E70009A727B6800221A727B681C4A5A607B68BF
:103E800098229A817B6893F834207B685A727B6809
:103E900003229A767B6807221A767B68144A5A6155
:103EA0007B684FF492729A837B6893F834207B6826
:103EB0005A767B68022283F82A207B68042283F8E2
:103EC00028207B680B4A5A627B6843229A857B686C
:103ED00093F834207B6883F82920FEF7C1FFFDF7B3
:103EE0002BF900BF0837BD4680BD00BFA53D0008C7
:103EF000793B0008053B000880B584B000AF7860CE
:103F00000023FB607B681B6B03F48073002B04D0E1
:103F10007B68032283F834204EE07B681B6B03F040
:103F20000803002B48D07B68022283F8342043E04A
:103F30007B681B6B7968FA6812010A440C3212889C
:103F40001340002B23D07B6893F834107A68FB6809
:103F50001B01134409330A461A707B681B6B79688E
:103F6000FA6812010A440C3212881A407968FB6818
:103F70001B010B441A607A68FB681B01134404336D
:103F80001B68FA68120179680A44104698477B68F2
:103F90001A6B7968FB681B010B440C331B88DB43ED
:103FA0001A407B681A63FB68022B02D90023FB606E
:103FB00002E0FB680133FB607B681B6B002BB7D111
:103FC00000BF1037BD4680BD80B485B000AF7860BB
:103FD0003960EFF31083BB60BB68FB6072B67B682F
:103FE0001A683B681A447B681A60FB68002B00D192
:103FF00062B600BF1437BD4680BC704780B487B03E
:1040000000AF7860EFF31083FB60FB687B6172B6F2
:104010007B681B683B617B6800221A607B69002B10
:1040200000D162B63B6918461C37BD4680BC70475C
:1040300080B584B000AFF860B9607A607A68B9681A
:10404000054805F0DFFB044805F008FC7B681846CE
:104050001037BD4680BD00BFE409002080B485B0A4
:1040600000AF154A144B9B6943F001039361124B57
:104070009B6903F00103BB60BB680F4A0E4BDB6911
:1040800043F08053D3610C4BDB6903F080537B60BA
:104090007B680A4B5B68FB60FB6823F0E063FB60B6
:1040A000FB6843F00073FB60044AFB68536000BF89
:1040B0001437BD4680BC704700100240000001402C
:1040C00080B500AF03F06AF800BF80BD80B400AFD8
:1040D000FEE780B400AFFEE780B400AFFEE780B437
:1040E00000AFFEE780B400AF00BFBD4680BC7047A4
:1040F00080B400AF00BFBD4680BC704780B400AF45
:1041000000BFBD4680BC704780B500AF00F0CCFA60
:1041100000BF80BD80B500AF024801F0DDFD00BFEB
:1041200080BD00BFD815002080B500AF024803F065
:1041300027FA00BF80BD00BF6009002080B500AF36
:10414000024803F01DFA00BF80BD00BF2009002017
:1041500080B582B000AF78607B681B68B3F1804F98
:1041600003D120210948FFF72FFF7B681B68084A0D
:10417000934206D180210548FFF726FF054803F04A
:1041800040F900BF0837BD4680BD00BFD4080020FD
:10419000000400402009002080B483B000AF7860A4
:1041A0007B681B68B3F1804F17D17B681B7F012BA5
:1041B00013D10C4B9B899BB201339AB2094B9A8164
:1041C0007B681B681B6903F40073B3F5007F04D19F
:1041D0007B681B686FF400721A6100BF0C37BD4624
:1041E00080BC7047DC03002080B400AF154A154B3B
:1041F0001B6843F0010313601249124B5A68124BBB
:1042000013404B600F4A0F4B1B6823F0847323F459
:10421000803313600B4A0B4B1B6823F4802313601D
:10422000084A084B5B6823F4FE035360054B4FF4C8
:104230001F029A60054B4FF000629A6000BFBD46B6
:1042400080BC7047001002400000FFF800ED00E065
:1042500080B58AB000AF07F1180300221A605A60D7
:104260009A60DA6007F1100300221A605A603B4638
:1042700000221A605A609A60DA60324B4FF0804236
:104280001A60304B48F69F425A602E4B00229A60CB
:104290002C4B49F64042DA602A4B00221A61294B26
:1042A00080229A61274803F067F80346002B01D06B
:1042B000FFF7FAFB4FF48053BB6107F1180319466F
:1042C000204803F001FB0346002B01D0FFF7ECFB75
:1042D0001C4803F0C0F80346002B01D0FFF7E4FBB5
:1042E00000233B6100237B6107F110031946154849
:1042F00003F02AFE0346002B01D0FFF7D5FB002375
:104300003B6001237B600023BB600323FB603B46D3
:10431000002219460B4803F03BFA0346002B01D05C
:10432000FFF7C2FB3B4604221946064803F030FA69
:104330000346002B01D0FFF7B7FB00BF2837BD466F
:1043400080BD00BF6009002080B58AB000AF07F1D2
:10435000180300221A605A609A60DA6007F11003AD
:1043600000221A605A603B4600221A605A609A6026
:10437000DA60314B314A1A602F4B48F69F425A603F
:104380002D4B00229A602C4B40F60552DA602A4BE6
:1043900000221A61284B80229A61274802F0ECFF24
:1043A0000346002B01D0FFF77FFB4FF48053BB6126
:1043B00007F118031946204803F086FA0346002B3C
:1043C00001D0FFF771FB1C4803F045F80346002BB2
:1043D00001D0FFF769FB00233B6100237B6107F1FC
:1043E00010031946144803F0AFFD0346002B01D01B
:1043F000FFF75AFB0A233B6001237B600023BB606D
:104400000323FB603B46002219460B4803F0C0F92A
:104410000346002B01D0FFF747FB3B460422194619
:10442000054803F0B5F90346002B01D0FFF73CFB2C
:1044300000BF2837BD4680BD200900200004004091
:1044400080B58AB000AF786007F1180300221A60C7
:104450005A609A60DA607B681B68B3F1804F2CD198
:10446000304A304BDB6943F00103D3612D4BDB69EC
:1044700003F001037B617B692A4A2A4B9B6943F065
:1044800004039361274B9B6903F004033B613B6981
:104490000323BB610023FB6100233B6207F1180388
:1044A0001946214800F062FA002200211C2000F089
:1044B0000AFA1C2000F023FA30E07B681B681B4AD4
:1044C00093422BD1174A174BDB6943F00203D361A8
:1044D000144BDB6903F00203FB60FB68114A114BCC
:1044E0009B6943F0040393610E4B9B6903F0040343
:1044F000BB60BB68C023BB610023FB6100233B6240
:1045000007F118031946084800F030FA002200218C
:104510001D2000F0D8F91D2000F0F1F900BF283768
:10452000BD4680BD0010024000080140000400406C
:1045300080B500AF114B124A1A60104B4FF4E132B4
:104540005A600E4B00229A600C4B0022DA600B4B33
:1045500000221A61094B0C225A61084B00229A6111
:10456000064B0022DA61054803F044FD0346002BA8
:1045700001D0FFF799FA00BF80BD00BFA00900205D
:104580000038014080B588B000AF786007F11003B3
:1045900000221A605A609A60DA607B681B681C4AC5
:1045A000934231D11B4A1B4B9B6943F48043936177
:1045B000184B9B6903F48043FB60FB68154A154B5D
:1045C0009B6943F004039361124B9B6903F004035E
:1045D000BB60BB684FF400733B6102237B61032324
:1045E000FB6107F1100319460B4800F0BFF94FF4C7
:1045F00080633B6100237B610023BB6107F11003F3
:104600001946054800F0B2F900BF2037BD4680BD0D
:1046100000380140001002400008014080B500AFA2
:10462000084A084B1B6843F010031360032000F096
:104630003FF9002000F008F8FFF710FD00231846AE
:1046400080BD00BF0020024080B582B000AF78601E
:10465000124B1A68124B1B7819464FF47A73B3FB4E
:10466000F1F3B2FBF3F3184600F057F90346002BC1
:1046700001D001230EE07B680F2B0AD80022796855
:104680004FF0FF3000F01FF9064A7B6813600023EB
:1046900000E0012318460837BD4680BD0C0000200D
:1046A000140000201000002080B400AF054B1B78E0
:1046B0001A46054B1B681344034A136000BFBD46EE
:1046C00080BC704714000020E009002080B400AFD7
:1046D000024B1B681846BD4680BC7047E0090020AD
:1046E00080B584B000AF7860FFF7F0FFB8607B68FA
:1046F000FB60FB68B3F1FF3F05D0094B1B781A46FE
:10470000FB681344FB6000BFFFF7E0FF0246BB6895
:10471000D21AFB689A42F7D300BF1037BD4680BD5E
:104720001400002080B485B000AF78607B6803F08F
:104730000703FB600C4BDB68BB60BA684FF6FF03F6
:104740001340BB60FB681A02BB68134343F0BF63AE
:1047500043F40033BB60044ABB68D36000BF143726
:10476000BD4680BC704700BF00ED00E080B400AFE4
:10477000044BDB681B0A03F007031846BD4680BCE8
:10478000704700BF00ED00E080B483B000AF034687
:10479000FB71084997F907305B09FA7902F01F02AB
:1047A000012000FA02F241F8232000BF0C37BD4679
:1047B00080BC704700E100E080B483B000AF0346E6
:1047C0003960FB7197F90730002B0BDA0D49FB7943
:1047D00003F00F03043B3A68D2B21201D2B20B4489
:1047E0001A7609E0084997F907303A68D2B21201FF
:1047F000D2B20B4483F8002300BF0C37BD4680BC07
:10480000704700BF00ED00E000E100E080B489B037
:1048100000AFF860B9607A60FB6803F00703FB61E2
:10482000FB69C3F10703042B28BF0423BB61FB69A9
:104830000433062B02D9FB69033B00E000237B61B4
:104840000122BB6902FA03F35A1EBB681A407B6956
:104850009A4001217B6901FA03F3591E7B680B40E2
:10486000134318462437BD4680BC704780B582B0DC
:1048700000AF78607B68013BB3F1807F01D30123F7
:104880000FE00A4A7B68013B53600F214FF0FF3075
:10489000FFF792FF054B00229A60044B07221A6033
:1048A000002318460837BD4680BD00BF10E000E079
:1048B00080B582B000AF78607868FFF733FF00BF43
:1048C0000837BD4680BD80B586B000AF0346B960ED
:1048D0007A60FB7300237B61FFF748FF78617A6899
:1048E000B9687869FFF792FF024697F90F301146D1
:1048F0001846FFF761FF00BF1837BD4680BD80B581
:1049000082B000AF0346FB7197F907301846FFF7F6
:104910003BFF00BF0837BD4680BD80B582B000AF09
:1049200078607868FFF7A2FF034618460837BD464F
:1049300080BD80B582B000AF78607B68002B01D16C
:1049400001230EE07B685B79DBB2002B05D17B682D
:1049500000221A717868FEF705FD7B6801225A7102
:10496000002318460837BD4680BD000080B48BB0D8
:1049700000AF786039600023FB610023BB61002336
:104980007B6100233B6200233B6100237B6227E1C4
:1049900001227B6A02FA03F3FB613B681A68FB6938
:1049A0001340BB61BA69FB699A4240F016813B68CB
:1049B0005B68122B34D0122B0DD8022B2BD0022B7C
:1049C00004D8002B31D0012B1CD048E0032B43D05E
:1049D000112B1BD043E0874A934226D0854A93424D
:1049E00006D8854A934220D0844A93421DD036E0AF
:1049F000834A934219D0834A934216D0824A934203
:104A000013D02CE03B68DB683B6228E03B68DB6846
:104A100004333B6223E03B68DB6808333B621EE003
:104A20003B68DB680C333B6219E03B689B68002BFA
:104A300002D104233B6212E03B689B68012B05D145
:104A400008233B627B68FA691A6108E008233B622D
:104A50007B68FA695A6102E000233B6200BFBB69D0
:104A6000FF2B01D87B6801E07B680433FB60BB69E6
:104A7000FF2B02D87B6A9B0002E07B6A083B9B000D
:104A80003B61FB681A680F213B6901FA03F3DB43C2
:104A90001A40396A3B6901FA03F31A43FB681A604A
:104AA0003B685B6803F08053002B00F09680574A08
:104AB000564B9B6943F001039361544B9B6903F090
:104AC0000103BB60BB68524A7B6A9B08023352F801
:104AD00023307B617B6A03F003039B000F2202FA01
:104AE00003F3DB437A6913407B617B68494A934255
:104AF00013D07B68484A93420DD07B68474A934263
:104B000007D07B68464A934201D1032306E0042381
:104B100004E0022302E0012300E000237A6A02F0AD
:104B20000302920093407A6913437B6138497B6AA0
:104B30009B0802337A6941F823203B685B6803F4E1
:104B40008033002B06D03749364B1A68BB691343B4
:104B50000B6006E03349334B1A68BB69DB431340F3
:104B60000B603B685B6803F40033002B06D02D49D3
:104B70002C4B5A68BB6913434B6006E02949294B0B
:104B80005A68BB69DB4313404B603B685B6803F4C6
:104B90008013002B06D02349224B9A68BB6913432C
:104BA0008B6006E01F491F4B9A68BB69DB431340CB
:104BB0008B603B685B6803F40013002B06D0194937
:104BC000184BDA68BB691343CB6006E01549154BF7
:104BD000DA68BB69DB431340CB607B6A01337B62DD
:104BE0007B6A0F2B7FF6D4AE00BF2C37BD4680BC4E
:104BF000704700BF000021100000111000001210CB
:104C0000000031100000321000002210001002409D
:104C10000000014000080140000C0140001001406C
:104C2000001401400004014080B483B000AF7860FC
:104C30000B467B8013467B707B78002B03D07A88F1
:104C40007B681A6103E07B881A047B681A6100BFE5
:104C50000C37BD4680BC704780B584B000AF78602B
:104C60000023FB600023BB607B68002B01D1012384
:104C7000E7E07B6893F83D30DBB2002B06D17B6820
:104C8000002283F83C207868FEF72CFD7B68242204
:104C900083F83D207B681B687A681268126822F0EE
:104CA00001021A6002F052FAB8607B685B68674ADA
:104CB000934207D8BB68664A934294BF01230023FE
:104CC000DBB206E0BB68634A934294BF0123002332
:104CD000DBB2002B01D00123B3E0BB685E4AA2FB2C
:104CE00003239B0CFB607B681B68FA685A607B6837
:104CF0001A687B685B6855498B4202D8FB680133B0
:104D000009E0FB684FF4967101FB03F35349A1FBE3
:104D100003139B09013313627B6819687B685B6826
:104D20004A4A93420DD8BB685A1E7B685B685B0099
:104D3000B2FBF3F30133C3F30B03042B38BF04239B
:104D40004FE07B689B68002B11D1BB68581E7B68C5
:104D50005A6813465B001344B0FBF3F30133C3F30B
:104D60000B03002B0CBF01230023DBB212E0BB6856
:104D7000581E7B685A6813469B0013449A001344DC
:104D8000B0FBF3F30133C3F30B03002B0CBF012380
:104D90000023DBB2002B01D0012322E07B689B685B
:104DA000002B0ED1BB68581E7B685A6813465B0007
:104DB0001344B0FBF3F30133C3F30B0343F4004399
:104DC0000FE0BB68581E7B685A6813469B0013446B
:104DD0009A001344B0FBF3F30133C3F30B0343F422
:104DE0004043CB617B681B687A68D1697A68126A34
:104DF0000A431A607B681B687A6811697A68D2680E
:104E00000A439A607B681B687A6851697A6892697C
:104E10000A43DA607B681B687A681268126842F09D
:104E200001021A607B6800221A647B68202283F8E2
:104E30003D207B6800221A637B68002283F83E20B5
:104E4000002318461037BD4680BD00BFA086010074
:104E50007F841E00FF083D0083DE1B43D34D62109C
:104E600080B588B002AFF8607A601A460B467B8145
:104E700013463B8100237B61FFF728FC7861FB68C8
:104E800093F83D30DBB2202B40F0EE807B6900933D
:104E9000192301227749F86800F074FC0346002BBF
:104EA00001D00223E1E0FB6893F83C30012B01D1F3
:104EB0000223DAE0FB68012283F83C20FB681B68D0
:104EC0001B6803F00103012B07D0FB681B68FA681D
:104ED0001268126842F001021A60FB681B68FA68E7
:104EE0001268126822F400621A60FB68212283F8BB
:104EF0003D20FB68102283F83E20FB6800221A64E4
:104F0000FB687A685A62FB683A895A85FB685A4A94
:104F1000DA62FB685B8D9AB2FB681A8579897B69D6
:104F20003A6AF86800F0E4FA0346002B0FD0FB68F9
:104F30001B6C042B05D1FB68002283F83C20012365
:104F400093E0FB68002283F83C2003238DE00023DC
:104F50003B61FB681B685B693B61FB681B689B6985
:104F60003B613B6966E07A69396AF86800F0C9FC20
:104F70000346002B0FD0FB681B6C042B09D1FB6888
:104F80001B68FA681268126842F400721A60012302
:104F90006BE0032369E0FB681A68FB685B6A581CD6
:104FA000F96848621B781361FB685B8D9BB2013B1B
:104FB0009AB2FB685A85FB681B8D013B9AB2FB686D
:104FC0001A85FB681B685B6903F00403042B19D185
:104FD000FB681B8D002B15D0FB681A68FB685B6AA9
:104FE000581CF96848621B781361FB685B8D9BB2A3
:104FF000013B9AB2FB685A85FB681B8D013B9AB254
:10500000FB681A857A69396AF86800F0B7FC0346CC
:10501000002B0FD0FB681B6C042B09D1FB681B68AD
:10502000FA681268126842F400721A6001231CE0E8
:1050300003231AE0FB681B8D002B94D1FB681B68CF
:10504000FA681268126842F400721A60FB68202243
:1050500083F83D20FB68002283F83E20FB68002295
:1050600083F83C20002300E0022318461837BD4691
:1050700080BD00BF020010000000FFFF80B58CB0B3
:1050800002AFF8607A601A460B467B8113463B817B
:1050900000237B62FFF71AFB7862FB6893F83D30D0
:1050A000DBB2202B40F01D827B6A00931923012282
:1050B0008749F86800F066FB0346002B01D0022305
:1050C00010E2FB6893F83C30012B01D1022309E286
:1050D000FB68012283F83C20FB681B681B6803F017
:1050E0000103012B07D0FB681B68FA68126812687D
:1050F00042F001021A60FB681B68FA6812681268C5
:1051000022F400621A60FB68222283F83D20FB68CB
:10511000102283F83E20FB6800221A64FB687A683C
:105120005A62FB683A895A85FB686A4ADA62FB6808
:105130005B8D9AB2FB681A8579897B6A3A6BF8684D
:1051400000F058FA0346002B0FD0FB681B6C042BB1
:1051500005D1FB68002283F83C200123C2E1FB68F3
:10516000002283F83C200323BCE1FB681B8D002B4D
:1051700013D100233B62FB681B685B693B62FB68E1
:105180001B689B693B623B6AFB681B68FA68126894
:10519000126842F400721A6090E1FB681B8D012BCB
:1051A0001DD1FB681B68FA681268126822F48062DD
:1051B0001A6072B60023FB61FB681B685B69FB61C8
:1051C000FB681B689B69FB61FB69FB681B68FA68ED
:1051D0001268126842F400721A6062B66EE1FB68EF
:1051E0001B8D022B1DD1FB681B68FA6812681268C0
:1051F00042F400621A6072B60023BB61FB681B6850
:105200005B69BB61FB681B689B69BB61BB69FB6831
:105210001B68FA681268126822F480621A6062B62B
:105220004CE1FB681B68FA681268126842F48062FD
:105230001A6000237B61FB681B685B697B61FB680C
:105240001B689B697B617B6938E1FB681B8D032BC5
:1052500000F2EF80FB681B8D012B27D17A6A396B36
:10526000F86800F0C8FB0346002B07D0FB681B6CF6
:10527000202B01D1032335E1012333E1FB685B6A75
:10528000591CFA685162FA6812681269D2B21A702F
:10529000FB681B8D013B9AB2FB681A85FB685B8D2E
:1052A0009BB2013B9AB2FB685A8507E1FB681B8DF4
:1052B000022B4CD17B6A00933B6B00220649F868B5
:1052C00000F060FA0346002B08D003230AE100BF78
:1052D000020010000000FFFF0400010072B6FB682E
:1052E0001B68FA681268126842F400721A60FB6860
:1052F0005B6A591CFA685162FA6812681269D2B284
:105300001A70FB681B8D013B9AB2FB681A85FB681B
:105310005B8D9BB2013B9AB2FB685A8562B6FB6813
:105320005B6A591CFA685162FA6812681269D2B253
:105330001A70FB681B8D013B9AB2FB681A85FB68EB
:105340005B8D9BB2013B9AB2FB685A85B6E07B6AE3
:1053500000933B6B00226549F86800F013FA03469E
:10536000002B01D00323BDE0FB681B68FA681268BC
:10537000126822F480621A6072B6FB685B6A591C7C
:10538000FA685162FA6812681269D2B21A70FB6840
:105390001B8D013B9AB2FB681A85FB685B8D9BB243
:1053A000013B9AB2FB685A857B6A00933B6B0022F3
:1053B0004E49F86800F0E6F90346002B01D00323BC
:1053C00090E0FB681B68FA681268126842F4007289
:1053D0001A60FB685B6A591CFA685162FA681268C5
:1053E0001269D2B21A70FB681B8D013B9AB2FB683E
:1053F0001A85FB685B8D9BB2013B9AB2FB685A85AC
:1054000062B6FB685B6A591CFA685162FA681268F6
:105410001269D2B21A70FB681B8D013B9AB2FB680D
:105420001A85FB685B8D9BB2013B9AB2FB685A857B
:1054300044E07A6A396BF86800F0DDFA0346002B25
:1054400007D0FB681B6C202B01D103234AE001230A
:1054500048E0FB685B6A591CFA685162FA68126896
:105460001269D2B21A70FB681B8D013B9AB2FB68BD
:105470001A85FB685B8D9BB2013B9AB2FB685A852B
:10548000FB681B685B6903F00403042B16D1FB68FF
:105490005B6A591CFA685162FA6812681269D2B2E2
:1054A0001A70FB681B8D013B9AB2FB681A85FB687A
:1054B0005B8D9BB2013B9AB2FB685A85FB681B8DE2
:1054C000002B7FF4C2AEFB68202283F83D20FB68EE
:1054D000002283F83E20FB68002283F83C20002352
:1054E00000E0022318462837BD4680BD04000100B5
:1054F00080B588B002AFF8607A603B600B467B8174
:10550000FB68DB6A7B617B69042B06D07B69012B1E
:1055100003D07B6913F5803F08D1FB681B68FA68EC
:105520001268126842F480721A600BE0FB681B6B11
:10553000122B07D1FB681B68FA681268126842F4E4
:1055400080721A603B6800937B6800224FF0011163
:10555000F86800F017F90346002B01D0032340E060
:10556000FB681B69B3F5804F07D1FB681B687A891C
:10557000D2B202F0FE021A6121E0FB681B687A8950
:10558000D211D2B202F00602D2B262F00F02D2B24F
:105590001A613B687A681549F86800F044F90346D7
:1055A000002B07D0FB681B6C042B01D1012318E0F2
:1055B000032316E0FB681B687A89D2B21A613B6844
:1055C0007A680B49F86800F02EF90346002B07D0E3
:1055D000FB681B6C042B01D1012302E0032300E0D4
:1055E000002318461837BD4680BD00BF08000100E3
:1055F0000200010080B588B002AFF8607A603B60BD
:105600000B467B81FB68DB6A7B61FB681B68FA6881
:105610001268126842F480621A607B69042B06D01B
:105620007B69012B03D07B6913F5803F08D1FB68B0
:105630001B68FA681268126842F480721A600BE004
:10564000FB681B6B112B07D1FB681B68FA6812689B
:10565000126842F480721A603B6800937B680022F3
:105660004FF00111F86800F08DF80346002B01D0CF
:1056700003237FE0FB681B69B3F5804F08D1FB680B
:105680001B687A89D2B242F00102D2B21A615FE09D
:10569000FB681B687A89D211D2B202F00602D2B23C
:1056A00062F00F02D2B21A613B687A683349F86837
:1056B00000F0B9F80346002B07D0FB681B6C042BE5
:1056C00001D1012356E0032354E0FB681B687A896B
:1056D000D2B21A613B687A682949F86800F0A3F8E9
:1056E0000346002B07D0FB681B6C042B01D1012360
:1056F00040E003233EE000233B61FB681B685B69DD
:105700003B61FB681B689B693B613B69FB681B68ED
:10571000FA681268126842F480721A603B6800935B
:105720007B6800224FF00111F86800F02BF8034667
:10573000002B01D003231DE0FB681B687A89D2117E
:10574000D2B202F00602D2B262F00E02D2B21A61F6
:105750003B687A680A49F86800F065F80346002B50
:1057600007D0FB681B6C042B01D1012302E003234B
:1057700000E0002318461837BD4680BD0800010030
:105780000200010080B584B000AFF860B9603B60F2
:105790001346FB711FE03B68B3F1FF3F1BD03B6832
:1057A000002B07D0FEF792FF0246BB69D21A3B6876
:1057B0009A4210D9FB6800221A63FB68202283F802
:1057C0003D20FB68002283F83E20FB68002283F81E
:1057D0003C20032323E0BB681B0CDBB2012B0DD163
:1057E000FB681B685B69DA43BB6813409BB2002B04
:1057F0000CBF01230023DBB21A460CE0FB681B68D8
:105800009B69DA43BB6813409BB2002B0CBF01239A
:105810000023DBB21A46FB799A42BCD0002318461B
:105820001037BD4680BD80B584B000AFF860B96068
:105830007A603B6040E0FB681B685B6903F480634F
:10584000B3F5806F1CD1FB681B68FA681268126898
:1058500042F400721A60FB681B686FF480625A6140
:10586000FB6804221A64FB6800221A63FB6820228A
:1058700083F83D20FB68002283F83C2001233CE0B4
:105880007B68B3F1FF3F17D07B68002B07D0FEF792
:105890001DFF02463B68D21A7B689A420CD9FB680E
:1058A00000221A63FB68202283F83D20FB68002257
:1058B00083F83C20032320E0BB681B0CDBB2012BE8
:1058C0000CD1FB681B685B69DA43BB6813409BB271
:1058D000002B14BF01230023DBB20BE0FB681B6825
:1058E0009B69DA43BB6813409BB2002B14BF0123B2
:1058F0000023DBB2002B9ED1002318461037BD4693
:1059000080BD80B584B000AFF860B9607A6029E0EE
:10591000F86800F0BAF80346002B01D0012329E013
:10592000BB68B3F1FF3F1DD0BB68002B07D0FEF76B
:10593000CDFE02467B68D21ABB689A4212D9FB6838
:105940001B6C43F02002FB681A64FB6800221A6398
:10595000FB68202283F83D20FB68002283F83C206E
:10596000032307E0FB681B685B6903F08003802B5F
:10597000CED1002318461037BD4680BD80B584B017
:1059800000AFF860B9607A6029E0F86800F07DF84F
:105990000346002B01D0012329E0BB68B3F1FF3F90
:1059A0001DD0BB68002B07D0FEF790FE02467B6837
:1059B000D21ABB689A4212D9FB681B6C43F02002D2
:1059C000FB681A64FB6800221A63FB68202283F8D4
:1059D0003D20FB68002283F83C20032307E0FB689E
:1059E0001B685B6903F00403042BCED10023184627
:1059F0001037BD4680BD80B584B000AFF860B96097
:105A00007A6036E0FB681B685B6903F01003102BBB
:105A100014D1FB681B686FF010025A61FB6800220A
:105A20001A64FB6800221A63FB68202283F83D2079
:105A3000FB68002283F83C20012322E0BB68002B96
:105A400007D0FEF743FE02467B68D21ABB689A4233
:105A50000FD9FB681B6C43F02002FB681A64FB68DB
:105A6000202283F83D20FB68002283F83C2003239A
:105A700007E0FB681B685B6903F04003402BC1D162
:105A8000002318461037BD4680BD80B483B000AFF8
:105A900078607B681B685B6903F48063B3F5806F93
:105AA00014D17B681B686FF480625A617B680422A2
:105AB0001A647B6800221A637B68202283F83D20E9
:105AC0007B68002283F83C20012300E00023184675
:105AD0000C37BD4680BC7047F0B58BB006AF786020
