:020000040800F2
:1000000000500020416E0008913000089530000833
:1000100097300008993000089B300008000000006D
:100020000000000000000000000000009D300008FB
:100030009F30000800000000A1300008A330000835
:10004000896E0008896E0008896E0008896E0008B4
:10005000896E0008896E0008896E0008896E0008A4
:10006000896E0008896E0008896E0008896E000894
:10007000896E0008896E0008896E0008896E000884
:10008000896E0008896E0008896E0008896E000874
:10009000A9300008896E0008896E0008896E000882
:1000A000896E0008896E0008896E0008896E000854
:1000B000B5300008C1300008896E0008896E00085C
:1000C000896E0008896E0008896E0008896E000834
:1000D000896E000871310008896E0008896E000879
:1000E000896E0008896E0008896E00080000000013
:1000F0000000000000000000000000000000000000
:0C01000000000000000000005FF808F1A3
:1001100010B5054C237833B9044B13B10448AFF341
:1001200000800123237010BD400300200000000068
:10013000C09B000808B5034B1BB103490348AFF34C
:10014000008008BD0000000044030020C09B0008A0
:1001500010F8012B11F8013B012A28BF9A42F7D071
:10016000D01A704781F0004102E000BF83F00043E5
:1001700030B54FEA41044FEA430594EA050F08BF42
:1001800090EA020F1FBF54EA000C55EA020C7FEA06
:10019000645C7FEA655C00F0E2804FEA5454D4EB83
:1001A0005555B8BF6D420CDD2C4480EA020281EA4D
:1001B000030382EA000083EA010180EA020281EA85
:1001C0000303362D88BF30BD11F0004F4FEA0131D7
:1001D0004FF4801C4CEA113102D0404261EB4101E6
:1001E00013F0004F4FEA03334CEA133302D052426C
:1001F00063EB430394EA050F00F0A780A4F1010428
:10020000D5F1200E0DDB02FA0EFC22FA05F2801861
:1002100041F1000103FA0EF2801843FA05F3594147
:100220000EE0A5F120050EF1200E012A03FA0EFCC6
:1002300028BF4CF0020C43FA05F3C01851EBE371F0
:1002400001F0004507D54FF0000EDCF1000C7EEB0D
:1002500000006EEB0101B1F5801F1BD3B1F5001F4B
:100260000CD349085FEA30004FEA3C0C04F101046A
:100270004FEA445212F5800F80F09A80BCF1004F93
:1002800008BF5FEA500C50F1000041EB045141EA15
:10029000050130BD5FEA4C0C404141EB010111F416
:1002A000801FA4F10104E9D191F0000F04BF0146C1
:1002B0000020B1FA81F308BF2033A3F10B03B3F19F
:1002C00020020CDA0C3208DD02F1140CC2F10C022F
:1002D00001FA0CF021FA02F10CE002F11402D8BF8D
:1002E000C2F1200C01FA02F120FA0CFCDCBF41EA59
:1002F0000C019040E41AA2BF01EB0451294330BD28
:100300006FEA04041F3C1CDA0C340EDC04F1140404
:10031000C4F1200220FA04F001FA02F340EA0300DB
:1003200021FA04F345EA030130BDC4F10C04C4F121
:10033000200220FA02F001FA04F340EA0300294601
:1003400030BD21FA04F0294630BD94F0000F83F44B
:10035000801306BF81F480110134013D4EE77FEA2E
:10036000645C18BF7FEA655C29D094EA050F08BF7A
:1003700090EA020F05D054EA000C04BF194610465B
:1003800030BD91EA030F1EBF0021002030BD5FEA9F
:10039000545C05D14000494128BF41F0004130BDC7
:1003A00014F580043CBF01F5801130BD01F000451B
:1003B00045F0FE4141F470014FF0000030BD7FEA8E
:1003C000645C1ABF194610467FEA655C1CBF0B4689
:1003D000024650EA013406BF52EA033591EA030FA0
:1003E00041F4002130BD00BF90F0000F04BF002198
:1003F000704730B54FF4806404F132044FF00005CB
:100400004FF0000150E700BF90F0000F04BF002143
:10041000704730B54FF4806404F1320410F00045A9
:1004200048BF40424FF000013EE700BF42004FEAA4
:10043000E2014FEA31014FEA02701FBF12F07F4321
:1004400093F07F4F81F06051704792F0000F14BF1E
:1004500093F07F4F704730B54FF4607401F0004562
:1004600021F0004120E700BF50EA010208BF7047B9
:1004700030B54FF000050AE050EA010208BF7047AE
:1004800030B511F0004502D5404261EB41014FF417
:10049000806404F132045FEA915C3FF4DCAE4FF01B
:1004A00003025FEADC0C18BF03325FEADC0C18BF02
:1004B000033202EBDC02C2F1200300FA03FC20FA53
:1004C00002F001FA03FE40EA0E0021FA02F11444A0
:1004D000C1E600BF70B54FF0FF0C4CF4E06C1CEAB5
:1004E00011541DBF1CEA135594EA0C0F95EA0C0F2A
:1004F00000F0DEF82C4481EA030621EA4C5123EA9D
:100500004C5350EA013518BF52EA033541F48011CB
:1005100043F4801338D0A0FB02CE4FF00005E1FB7E
:1005200002E506F00042E0FB03E54FF00006E1FBC8
:1005300003569CF0000F18BF4EF0010EA4F1FF040B
:10054000B6F5007F64F5407404D25FEA4E0E6D414B
:1005500046EB060642EAC62141EA55514FEAC5205C
:1005600040EA5E504FEACE2EB4F1FD0C88BFBCF5D8
:10057000E06F1ED8BEF1004F08BF5FEA500E50F189
:10058000000041EB045170BD06F0004646EA01014F
:1005900040EA020081EA0301B4EB5C04C2BFD4EB81
:1005A0000C0541EA045170BD41F480114FF0000E7A
:1005B000013C00F3AB8014F1360FDEBF002001F0E8
:1005C000004170BDC4F10004203C35DA0C341BDC62
:1005D00004F11404C4F1200500FA05F320FA04F034
:1005E00001FA05F240EA020001F0004221F0004168
:1005F00010EBD37021FA04F642EB06015EEA430EDB
:1006000008BF20EAD37070BDC4F10C04C4F120050A
:1006100000FA04F320FA05F001FA04F240EA0200BD
:1006200001F0004110EBD37041F100015EEA430E8E
:1006300008BF20EAD37070BDC4F1200500FA05F2AE
:100640004EEA020E20FA04F301FA05F243EA02032D
:1006500021FA04F001F0004121FA04F220EA02003C
:1006600000EBD3705EEA430E08BF20EAD37070BD82
:1006700094F0000F0FD101F00046400041EB010162
:1006800011F4801F08BF013CF7D041EA060195F044
:10069000000F18BF704703F00046520043EB0303FE
:1006A00013F4801F08BF013DF7D043EA06037047EB
:1006B00094EA0C0F0CEA135518BF95EA0C0F0CD0F6
:1006C00050EA410618BF52EA4306D1D181EA03013C
:1006D00001F000414FF0000070BD50EA410606BF36
:1006E0001046194652EA430619D094EA0C0F02D17B
:1006F00050EA013613D195EA0C0F05D152EA0336C0
:100700001CBF104619460AD181EA030101F00041DD
:1007100041F0FE4141F470014FF0000070BD41F026
:10072000FE4141F4780170BD70B54FF0FF0C4CF400
:10073000E06C1CEA11541DBF1CEA135594EA0C0F1F
:1007400095EA0C0F00F0A7F8A4EB050481EA030E6C
:1007500052EA03354FEA013100F088804FEA033353
:100760004FF0805545EA131343EA12634FEA022221
:1007700045EA111545EA10654FEA00260EF00041E2
:100780009D4208BF964244F1FD0404F5407402D234
:100790005B084FEA3202B61A65EB03055B084FEAC5
:1007A00032024FF480104FF4002CB6EB020E75EBC2
:1007B000030E22BFB61A754640EA0C005B084FEAEA
:1007C0003202B6EB020E75EB030E22BFB61A754667
:1007D00040EA5C005B084FEA3202B6EB020E75EBB2
:1007E000030E22BFB61A754640EA9C005B084FEA2A
:1007F0003202B6EB020E75EB030E22BFB61A754637
:1008000040EADC0055EA060E18D04FEA051545EA25
:1008100016754FEA06164FEAC30343EA52734FEACE
:10082000C2025FEA1C1CC0D111F4801F0BD141EA47
:1008300000014FF000004FF0004CB6E711F4801FAC
:1008400004BF01430020B4F1FD0C88BFBCF5E06F8C
:100850003FF6AFAEB5EB030C04BFB6EB020C5FEA9C
:10086000500C50F1000041EB045170BD0EF0004EF1
:100870004EEA113114EB5C04C2BFD4EB0C0541EA23
:10088000045170BD41F480114FF0000E013C90E620
:1008900045EA060E8DE60CEA135594EA0C0F08BFE4
:1008A00095EA0C0F3FF43BAF94EA0C0F0AD150EAE3
:1008B00001347FF434AF95EA0C0F7FF425AF104676
:1008C00019462CE795EA0C0F06D152EA03353FF49E
:1008D000FDAE1046194622E750EA410618BF52EA1B
:1008E00043067FF4C5AE50EA41047FF40DAF52EAEF
:1008F00043057FF4EBAE12E74FF0FF3C06E000BF8C
:100900004FF0010C02E000BF4FF0010C4DF804CD98
:100910004FEA410C7FEA6C5C4FEA430C18BF7FEA58
:100920006C5C1BD001B050EA410C0CBF52EA430C86
:1009300091EA030F02BF90EA020F0020704710F106
:10094000000F91EA030F58BF994208BF90422CBF95
:10095000D8176FEAE37040F0010070474FEA410C8E
:100960007FEA6C5C02D150EA013C07D14FEA430CAC
:100970007FEA6C5CD6D152EA033CD3D05DF8040B1D
:10098000704700BF8446104662468C46194663464F
:1009900000E000BF01B5FFF7B7FF002848BF10F126
:1009A000000F01BD4DF808EDFFF7F4FF0CBF01206B
:1009B00000205DF808FB00BF4DF808EDFFF7EAFFE7
:1009C00034BF012000205DF808FB00BF4DF808EDA2
:1009D000FFF7E0FF94BF012000205DF808FB00BF97
:1009E0004DF808EDFFF7CEFF94BF012000205DF821
:1009F00008FB00BF4DF808EDFFF7C4FF34BF01202E
:100A000000205DF808FB00BF4FEA410C7FEA6C5CF8
:100A100002D150EA013C0AD14FEA430C7FEA6C5CF8
:100A200002D152EA033C02D14FF0000070474FF070
:100A3000010070474FEA410212F5001215D211D59C
:100A40006FF47873B3EB625212D94FEAC12343F0CB
:100A5000004343EA505311F0004F23FA02F018BF4D
:100A6000404270474FF00000704750EA013005D116
:100A700011F0004008BF6FF0004070474FF00000D9
:100A8000704700BF4A0011D212F5001211D20DD5E5
:100A90006FF47873B3EB62520ED44FEAC12343F084
:100AA000004343EA505323FA02F070474FF000002E
:100AB000704750EA013002D14FF0FF3070474FF0DD
:100AC000000070474FEA4102B2F1E04324BFB3F5A2
:100AD000001CDCF1FE5C0DD901F0004C4FEAC002B5
:100AE0004CEA5070B2F1004F40EB830008BF20F099
:100AF0000100704711F0804F21D113F13872BCBF53
:100B000001F00040704741F480114FEA5252C2F1A7
:100B10001802C2F1200C10FA0CF320FA02F018BFF0
:100B200040F001004FEAC1234FEAD32303FA0CFC43
:100B300040EA0C0023FA02F34FEA4303CCE77FEAD2
:100B4000625307D150EA01331EBF4FF0FE4040F41C
:100B50004000704701F0004040F0FE4040F40000CB
:100B6000704700BF80F0004002E000BF81F000410C
:100B700042001FBF5FEA410392EA030F7FEA226C43
:100B80007FEA236C6AD04FEA1262D2EB1363C1BFD3
:100B9000D218414048404140B8BF5B42192B88BF42
:100BA000704710F0004F40F4000020F07F4018BF65
:100BB000404211F0004F41F4000121F07F4118BF85
:100BC000494292EA030F3FD0A2F1010241FA03FC2D
:100BD00010EB0C00C3F1200301FA03F100F0004315
:100BE00002D5494260EB4000B0F5000F13D3B0F1DD
:100BF000807F06D340084FEA310102F10102FE2A4C
:100C000051D2B1F1004F40EBC25008BF20F00100BB
:100C100040EA03007047490040EB000010F4000F69
:100C2000A2F10102EDD1B0FA80FCACF1080CB2EBFC
:100C30000C0200FA0CF0AABF00EBC250524218435B
:100C4000BCBFD0401843704792F0000F81F4000100
:100C500006BF80F400000132013BB5E74FEA4103D3
:100C60007FEA226C18BF7FEA236C21D092EA030F3F
:100C700004D092F0000F08BF0846704790EA010FB9
:100C80001CBF0020704712F07F4F04D1400028BFE6
:100C900040F00040704712F100723CBF00F50000C8
:100CA000704700F0004343F0FE4040F400007047FE
:100CB0007FEA226216BF08467FEA236301464202AA
:100CC00006BF5FEA412390EA010F40F480007047BD
:100CD0004FF0000304E000BF10F0004348BF404263
:100CE0005FEA000C08BF704743F0964301464FF09F
:100CF00000001CE050EA010208BF70474FF00003FB
:100D00000AE000BF50EA010208BF704711F000433B
:100D100002D5404261EB41015FEA010C02BF84460B
:100D20000146002043F0B64308BFA3F18053A3F56A
:100D30000003BCFA8CF2083AA3EBC25310DB01FAB1
:100D400002FC634400FA02FCC2F12002BCF1004F35
:100D500020FA02F243EB020008BF20F001007047C6
:100D600002F1200201FA02FCC2F1200250EA4C001A
:100D700021FA02F243EB020008BF20EADC70704760
:100D80004FF0FF0C1CEAD0521EBF1CEAD15392EA6E
:100D90000C0F93EA0C0F6FD01A4480EA010C40024A
:100DA00018BF5FEA41211ED04FF0006343EA5010A4
:100DB00043EA5111A0FB01310CF00040B1F5000FE6
:100DC0003EBF490041EAD3715B0040EA010062F195
:100DD0007F02FD2A1DD8B3F1004F40EBC25008BF7F
:100DE00020F00100704790F0000F0CF0004C08BF9D
:100DF00049024CEA502040EA51207F3AC2BFD2F16A
:100E0000FF0340EAC250704740F400004FF0000377
:100E1000013A5DDC12F1190FDCBF00F000407047B1
:100E2000C2F10002410021FA02F1C2F1200200FAEF
:100E300002FC5FEA310040F1000053EA4C0308BFB6
:100E400020EADC70704792F0000F00F0004C02BF07
:100E5000400010F4000F013AF9D040EA0C0093F082
:100E6000000F01F0004C02BF490011F4000F013BDC
:100E7000F9D041EA0C018FE70CEAD15392EA0C0F4A
:100E800018BF93EA0C0F0AD030F0004C18BF31F0B5
:100E9000004CD8D180EA010000F00040704790F08B
:100EA000000F17BF90F0004F084691F0000F91F02F
:100EB000004F14D092EA0C0F01D142020FD193EAF5
:100EC0000C0F03D14B0218BF084608D180EA01007D
:100ED00000F0004040F0FE4040F40000704740F059
:100EE000FE4040F4400070474FF0FF0C1CEAD05227
:100EF0001EBF1CEAD15392EA0C0F93EA0C0F69D083
:100F0000A2EB030280EA010C49024FEA402037D0ED
:100F10004FF0805343EA111143EA10130CF00040E4
:100F20008B4238BF5B0042F17D024FF4000C8B42D4
:100F300024BF5B1A40EA0C00B3EB510F24BFA3EBB4
:100F4000510340EA5C00B3EB910F24BFA3EB910384
:100F500040EA9C00B3EBD10F24BFA3EBD10340EADE
:100F6000DC001B0118BF5FEA1C1CE0D1FD2A3FF624
:100F700050AF8B4240EBC25008BF20F001007047D9
:100F80000CF0004C4CEA50207F32C2BFD2F1FF037C
:100F900040EAC250704740F400004FF00003013AAD
:100FA00037E792F0000F00F0004C02BF400010F451
:100FB000000F013AF9D040EA0C0093F0000F01F065
:100FC000004C02BF490011F4000F013BF9D041EA87
:100FD0000C0195E70CEAD15392EA0C0F08D14202BA
:100FE0007FF47DAF93EA0C0F7FF470AF084676E78D
:100FF00093EA0C0F04D14B023FF44CAF08466EE766
:1010000030F0004C18BF31F0004CCAD130F0004233
:101010007FF45CAF31F000437FF43CAF5FE700BF8B
:101020004FF0FF3C06E000BF4FF0010C02E000BFB4
:101030004FF0010C4DF804CD4FEA40024FEA410356
:101040007FEA226C18BF7FEA236C11D001B052EA0C
:10105000530C18BF90EA010F58BFB2EB030088BFD2
:10106000C81738BF6FEAE17018BF40F00100704741
:101070007FEA226C02D15FEA402C05D17FEA236C23
:10108000E4D15FEA412CE1D05DF8040B704700BF6A
:10109000844608466146FFE70FB5FFF7C9FF002801
:1010A00048BF10F1000F0FBD4DF808EDFFF7F4FF3A
:1010B0000CBF012000205DF808FB00BF4DF808EDD3
:1010C000FFF7EAFF34BF012000205DF808FB00BFF6
:1010D0004DF808EDFFF7E0FF94BF012000205DF818
:1010E00008FB00BF4DF808EDFFF7D2FF94BF0120C9
:1010F00000205DF808FB00BF4DF808EDFFF7C8FFC2
:1011000034BF012000205DF808FB00BF00238022CF
:1011100013B5174C8DF800308DF801308DF8042090
:101120008DF805306A46A379A178942001F0B6FCC9
:10113000A37901AAE178942001F0B0FCA3796A4672
:10114000A178922001F0AAFCA37901AAE17892206B
:1011500001F0A4FCA3796A46A178902001F09EFCDE
:10116000A37901AAE178902001F098FC02B010BDAB
:1011700000000020000000002DE970430E46FFF73C
:10118000A7FDFFF753F9044630460D46FFF7A4FDCF
:1011900013A3D3E90023064629462046FFF79AF910
:1011A00011A3D3E90023FEF7E1FF11A3D3E9002344
:1011B0008046894620462946FFF78CF900220E4BCF
:1011C000FEF7D6FF02460B4640464946FFF7ACFA0B
:1011D000FFF778FC01463046FFF786FEBDE87083D6
:1011E00085ECBC8DCD044E404F92AE99C073B74094
:1011F000CBF0F701C30F293F0000F03F00000000D3
:10120000012BF8B50846144626D1FFF765FD2146A7
:10121000FFF76AFEFFF70AF913A3D3E90023064696
:101220000F46FEF7A5FF12A3D3E9002304460D469F
:1012300030463946FFF74EF902460B460EA1D1E97A
:101240000001FEF793FF02460B4620462946FFF7B2
:101250006BFAFFF737FCF8BD022B02D1FFF7D4F889
:10126000DAE7F8BDAFF300804F92AE99C073B74094
:10127000CBF0F701C30F293F85ECBC8DCD044E4068
:10128000D0B5FFF7D3F82CA3D3E9002306460F46C9
:10129000FFF720F90022384BFEF768FFFFF712FC3A
:1012A00000210446FFF70AFF68B32046FFF7BEF8A7
:1012B00023A3D3E90023FFF70DF923A3D3E90023E8
:1012C000FEF754FFFFF7FEFB01462046FFF758FDEF
:1012D000FFF7ACF81EA3D3E90023FEF749FFFFF7A1
:1012E000F1FB01462046FFF74BFDFFF79FF81AA3DD
:1012F000D3E90023FEF73CFFFFF7E4FB014620465D
:10130000FFF73EFDD0BD16A3D3E900233046394692
:10131000FFF7E0F814A3D3E90023FEF729FF08F054
:1013200035F902460B4612A1D1E90001FEF71EFF76
:10133000FFF7C8FBD0BD00BF7B14AE47E17A843F06
:101340009D8026C286A7FC3FFAD51C2098630740E3
:10135000D122DBF97E4A224091ED7C3F35FA6F4085
:101360006D91B41B01E9D0C00000001469246941EB
:10137000A702EE799E6FAA400000F03F0000000037
:101380002DE9F8430C46FFF751F808F085F80646BA
:1013900020460F46FFF74AF821A3D3E900238046F1
:1013A0008946FFF797F820A3D3E9002304460D46AA
:1013B00040464946FEF7DCFE02460B4620462946DB
:1013C000FFF7B2F91AA3D3E9002304460D463046CD
:1013D0003946FEF7CBFE02460B4620462946FEF76D
:1013E000C7FEFFF76FFBFFF721F813A3D3E9002334
:1013F00006460F46FFF76EF8324604460D4608A132
:10140000D1E900013B46FEF7B1FE02460B462046FD
:101410002946FFF789F9FFF755FBBDE8F88300BFC0
:101420001F85EB51B89E3140A4703D0AD7636E40D2
:101430001655B5BBB16B12406666666666FEA24085
:101440002DE9FF414FF00C08044608FB00F505F1BB
:101450000E0002A9022280B201F0FEF9E01CC0B227
:101460002B4F08FB00F007EB04130634B3F90560BB
:10147000E4B2BDF8083002A9022207EB04140E30D2
:10148000F61A01F0E9F9BDF80830B4F9054005F1A4
:1014900014000DEB0801042280B2E41A01F0DCF91B
:1014A00005EB08000DF10701012280B201F0D4F92B
:1014B0009DF8075036B224B22B46039A3146204697
:1014C000FFF79EFE2946FFF7DBFE0646BDF9080042
:1014D000FFF702FCFEF7AAFF0BA3D3E90023FEF7F8
:1014E000F9FF04460D4630460A49FFF749FCFEF76E
:1014F0009DFF02460B4620462946FEF739FEFFF7C0
:10150000E1FA04B0BDE8F0819A9999999999B93FA7
:10151000F0050020000020412DE9F043C323002600
:1015200085B002968DF80A300323CD4D8DF80B302F
:10153000AB790DF10A0269799420ADF80C6001F0E5
:10154000ADFAC84CB8B1288802F00AF92666AB7922
:1015500002AA2979942001F0C3FA002840F09C8166
:1015600094F861304FF0FF3384F8613094F86230C2
:101570007F2384F862309DF80A300DF10A0203F0EF
:10158000810343F05E038DF80A306979AB799420CA
:1015900001F084FA002800F08F81288802F0E0F83A
:1015A000002302AA23602979AB79942001F098FAEC
:1015B000002840F0798163784FF0FF336370A3789F
:1015C0007F23A37006229DF80A30697962F306131F
:1015D000012262F343038DF80A300DF10A02AB7960
:1015E000942001F05BFAC0B1288802F0B9F800231A
:1015F00002AA23672979AB79942001F071FA0028B7
:1016000040F06D8194F871304FF0FF3384F8713001
:1016100094F872307F2384F872309DF80A300DF10F
:101620000A0243F07E038DF80A306979AB79942081
:1016300001F034FAA0B1288802F092F8002302AA3F
:1016400023612979AB79942001F04AFA002840F00F
:101650004E81637C4FF0FF336374A37C7F23A374BC
:1016600006229DF80A30697962F30613012262F3BB
:1016700043038DF80A300DF10A02AB79922001F094
:101680000DFAC8B1288802F06BF8002302AAC4F84A
:1016900080302979AB79922001F022FA002840F0BD
:1016A0002E8194F881304FF0FF3384F8813094F824
:1016B00082307F2384F882309DF80A300DF10A02CF
:1016C00043F07E038DF80A306979AB79922001F0FE
:1016D000E5F9C0B1288802F043F8002302AA23628A
:1016E0002979AB79922001F0FBF9002840F00F81B5
:1016F00094F821304FF0FF3384F8213094F82230F1
:101700007F2384F82230002647F6FF79350104EB69
:101710000508B8F901304B4510D0404601F06AF891
:10172000B8F90130291D002BB8BF63592144BCBF53
:1017300043F07F436351404601F07EF80136032EAB
:10174000E4D1062647F6FF79350104EB0508B8F920
:1017500001304B4510D0404601F04CF8B8F901304B
:10176000291D002BB8BF63592144BCBF43F07F4300
:101770006351404601F060F80136092EE4D147F686
:10178000FF73B4F90120384D9A4200F0C880002060
:10179000FFF756FE07460020FFF752FEFEF746FE13
:1017A00007F034FEFFF746F900B2288047F6FF73D2
:1017B000B4F911209A4200F0B6800120FFF740FEF4
:1017C000FEF734FE07F022FEFFF734F900B2A883DB
:1017D00047F6FF73B4F921209A4200F0A880022056
:1017E000FFF72EFEFEF722FE07F010FEFFF722F9AC
:1017F00000B2E8832B881D491BB28B424DF6F102E3
:1018000000F00081B4F93500FEF7FEFD10A3D3E926
:101810000023FFF7D1F8164E002800F08C8000233B
:101820003360022258200DEB020101F015F8BDF9DA
:101830000200FFF751FAFEF7F9FD07A3D3E90023F1
:10184000FEF748FE804630688946FEF7EFFD11E05E
:101850005555555589AAB0409A9999999999B93F82
:1018600000000020F00500209E030020F1D8FFFFBB
:101870008006002002460B4640464946FEF778FCAB
:10188000FFF720F96E4C80462146FFF735FC002813
:1018900000F08980346090E0BDF80820130A43EA24
:1018A0000223A4F8613066E6BDF80820130A43EA73
:1018B0000223A4F8013085E6624802F0ADFA0A205E
:1018C00001F04EFF01F084F85F4BDA6942F4001238
:1018D000DA61DB6903F400130193019B72E6BDF842
:1018E0000820130A43EA0223A4F8713095E6BDF8F4
:1018F0000820130A43EA0223A4F81130B0E6BDF829
:101900000820130A43EA0223A4F88130D4E6BDF884
:101910000820130A43EA0223A4F82130F3E64DF627
:10192000F1032B8042E74DF6F103AB8350E74DF610
:10193000F103EB835EE7B4F93500FFF7CDF9FEF76D
:1019400075FD33A3D3E90023FEF710FCFFF7BAF8C7
:10195000FEF76CFD804638468946FEF767FD2EA3EC
:10196000D3E90023FEF7B6FD02460B462CA1D1E9D0
:101970000001FEF7FBFB02460B4640464946FEF7D8
:10198000D3FEFFF79FF8FEF751FD27A3D3E900230D
:10199000FEF7A0FD26A3D3E90023FEF7E9FBFFF73E
:1019A00091F830603DE7002440462146FFF786FB72
:1019B00000287FF46FAFC6F8008034682046FEF739
:1019C00035FD0022214BFEF785FDFFF733F800B20D
:1019D00028813846FEF72AFD17A3D3E90023FEF736
:1019E00079FDFFF76FF801462046FFF7C9FCFEF7C7
:1019F0001DFD07F00BFDFFF71DF800B2688105B073
:101A0000BDE8F0832A816A81F9E700BFAFF3008067
:101A10005655555589AAB040C28F764B8E15CC3F8E
:101A20004C367925F4BC9040FA7E6ABC7493184019
:101A30009A9999999999A93F9A9999999999B93F98
:101A40000000C8424408002000100240000024406A
:101A500073B50026664D0DF10202AB7969799220CB
:101A60000096ADF8046001F019F8624C2B8800284C
:101A700000F0BA80184601F073FEAB796A46297906
:101A80009220266201F02CF8002840F0A58094F8FE
:101A900021304FF0FF3384F8213094F822307F2337
:101AA00084F82230C1238DF80230032300260DF183
:101AB000020269798DF803309020AB7900F0EEFFD7
:101AC000288801F04DFE2979AB796A46902026637B
:101AD00001F006F8BDF800204748130A43EA022344
:101AE000A4F83130B4F93130B342BFBF94F831308B
:101AF00084F8316094F8323084F8326000F07AFE75
:101B00003E490026081F00F097FE05229DF802308E
:101B1000697962F306138DF802300DF10202AB7998
:101B2000902000F0BBFF288801F01AFE2979AB79DC
:101B30006A469020266500F0D3FFBDF800203048AB
:101B4000130A43EA0223A4F85130B4F95130B342E6
:101B5000BFBF94F8513084F8516094F8523084F843
:101B6000526000F047FE27490026081F00F064FE7F
:101B700006229DF80230697962F306138DF802306F
:101B80000DF10202AB79902000F088FF288801F067
:101B9000E7FD2979AB796A469020266400F0A0FF22
:101BA000BDF800201848130A43EA0223A4F8413084
:101BB000B4F94130B342BFBF94F8413084F841607A
:101BC00094F8423084F8426000F014FE0F49081F78
:101BD00000F032FE02B070BDBDF80020130A43EAE7
:101BE0000223A4F821305DE7184601F0B9FD59E75A
:101BF00000000020F0050020200600202406002020
:101C00004006002044060020300600203406002054
:101C100008B5034678B1FFF75BF8FEF707FC08A3A9
:101C2000D3E90023FEF756FC074B0022FEF7A0FA8B
:101C3000FEF728FF83B2184608BD00BFAFF300804F
:101C40007B14AE47E17AE83F00000C40032838B52A
:101C50000C4618D1486800F0ACFCA06800F064FCA9
:101C6000012805460FD161680848FEF771FA50B99E
:101C7000074B1A783AB95A2106481D7059601A6103
:101C80005A6105F0F9F9012038BD00BF989E00089F
:101C9000840600206A9C00082DE9F043134C85B0AF
:101CA000E08980B2FFF7B4FF0746208A80B2FFF7D1
:101CB000AFFF8046608A80B2FFF7AAFF8146A08A04
:101CC00080B2FFF7A5FFE58A268B648B2DB236B272
:101CD00024B28DE8610003944B46424639460448DD
:101CE00005F056F9012005B0BDE8F0839E03002001
:101CF0007C9D000813B50948018802894389848BBB
:101D0000C08B24B200B2019000941BB212B209B28F
:101D1000034805F03DF9012002B010BD9E030020EC
:101D2000E89B0008000000002DE9F04F4FF480719F
:101D300093B0A94801F066F80E250027DFF8BCB281
:101D4000A64C3B01099304EB0309B9F901300DF1ED
:101D5000300813F5004F0FAE0DD10023DA46C9F855
:101D60000430D9465046FEF761FB99A3D3E900231E
:101D7000FEF7FCF94DE002224146284600F06CFDDA
:101D8000B9F905A0BDF8303005F124000222414622
:101D900080B2AAEB030A00F05FFDBB1D04EB031346
:101DA000B3F90590A81DBDF830300422314680B249
:101DB000A9EB030900F050FDA81E0FFA8AFA0FFAEA
:101DC00089F901220DF12F0180B200F045FD9DF847
:101DD0002F300F9A51464846FFF712FA9DF82F1000
:101DE0008246FFF74DFA7E4981465046FFF766F975
:101DF0000021002800F0A6805046FFF773F9002864
:101E0000B0D05046FEF712FB71A3D3E90023FEF7D2
:101E1000AFF94346052205F039F872494846FFF705
:101E20004DF9002800F0AF806F494846FFF764F98C
:101E3000002800F0A88000214846FFF753F9002849
:101E400000F098804846FEF7F1FA61A3D3E9002339
:101E5000FEF78EF93346032205F018F83B012344C0
:101E6000B3F901203946B3F9053060480196CDF841
:101E70000080013705F08CF80C35032FADB27FF4EC
:101E80005FAF5B4A1378013B5BB2002BB8BF1D23E9
:101E90001D1D02EB45029088FEF71AFFFEF7C6FAF9
:101EA0004FF01132534BFEF715FBFEF70BFE4D4979
:101EB0008046FFF703F900287ED04046FEF7B6FAC9
:101EC00043A3D3E90023FEF753F933463A4604F01F
:101ED000DDFF4FF4C050B4F93110B4F93520B4F936
:101EE0003530B4F95170B4F955E0B4F955C0B4F9CE
:101EF0004180B4F94590B4F945404343444300FB65
:101F00000CF007963A4E04F5804406EB4505AD8883
:101F100000F58040C4F3CF34C0F3CF3003F58043E5
:101F2000029006950594CDF81090CDF80C808DE8C0
:101F30008040C3F3CF33304805F02AF8012013B0B6
:101F4000BDE8F08F5046FFF7CDF850B15046FEF790
:101F50006DFA1FA3D3E90023FEF70AF943460622D0
:101F600059E75046FEF762FA19A3D3E90023FEF7BA
:101F7000FDF8F3E74846FEF759FA15A3D3E9002325
:101F8000FEF7F4F866E700214846FFF7ABF850B1DA
:101F90004846FEF74BFA0EA3D3E90023FEF7E8F814
:101FA0003346042258E74846FEF740FA08A3D3E92F
:101FB0000023FEF7DBF8F3E74046FEF737FA04A309
:101FC000D3E90023FEF7D4F8334604227FE700BFAD
:101FD0007B14AE47E17A743FD0080020F005002062
:101FE0000000C84200002041000020C1AF9C000852
:101FF000D40800201111913FE29C00085CFF79C4D5
:102000002DE9F047012888B006460D4640F281814F
:102010004B681C7804F094FF2044437803F00303DA
:10202000022B08BF203CE4B2482C00F00581542C60
:1020300072D0432C40F06D81032E40F0A5806B6878
:102040005C78002C00F0A0809B78002B40F09C80F6
:1020500004F076FF204443784FF0000813F0040F9B
:10206000C74E37D0303CE4B2022C347032D80C2743
:102070007C43DFF834930222494604F1120000F059
:10208000EBFB3078DFF824A37843514602220E3070
:1020900000F0E2FB3278BB4BA86803EB0213B3F904
:1020A0000540BAF900A000F084FA0146B648FEF7F0
:1020B0004FF8002840F03181A9F80000CDF81480D5
:1020C00030780422784305A9143000F0ECFB002896
:1020D00000F01F810C20337808A9584341F8108D77
:1020E0000422143000F0B8FB049C00212046FEF7C7
:1020F000F9FF002800F01E812046FEF797F992A311
:10210000D3E90023FEF734F8052205AB04F0BEFE48
:1021100005AA31789D48EAE0022E40F0FA806B680B
:102120005C78002C00F0F5809B78002B40F0F1806B
:1021300004F006FF671CC35D5B0729D5A4F13005D9
:10214000022D25D80C248F4F6C4307EB0517B7F9E8
:1021500005300DF120080E3428F80C3DA4B23246AB
:102160004146204600F09FFB002800F0D280324616
:102170004146204600F070FBB7F90520BDF9143048
:102180002946834804F004FF012008B0BDE8F08729
:1021900004F0D6FEC35D03F00303022B08BF203C0E
:1021A000412C40F0B680774C0222B4F9053005A9E5
:1021B000ADF81430B4F915300E20ADF81630B4F97E
:1021C0002530ADF8183000F06EFB002840F0A180FB
:1021D00002220DF116011A2000F065FB002840F0E4
:1021E0009880022206A9262000F05DFB002840F01E
:1021F000908005A902220E2000F02EFB0DF11601A1
:1022000002221A2000F028FB06A90222262000F054
:1022100023FBB4F90510B4F91530B4F92500BDF964
:1022200018400190BDF91600BDF9142000900294E9
:10223000584804F0ADFEA7E7524CB4F93500FEF75C
:10224000E3F843A3D3E90023FEF7B6FB002851D1FE
:10225000514BB4F935001C88FEF73EFDFEF7E6F859
:102260003DA3D3E90023FDF781FFFEF72BFCFEF72A
:10227000DDF824B2804620468946FEF72DFDFEF7A4
:10228000D5F837A3D3E90023FEF724F902460B461D
:1022900035A1D1E90001FDF769FF02460B46404632
:1022A0004946FEF741FAFEF70DFCFEF7BFF830A3F2
:1022B000D3E90023FEF70EF92FA3D3E90023FDF79E
:1022C00057FFFEF7FFFBFEF7B1F80022334BFEF796
:1022D00001F9FEF7AFFB032E04B20DD0022205A9CF
:1022E000582000F0B9FA2146BDF914202C4804F01A
:1022F0004FFE49E70020E6E7A86800F015F9001B4B
:10230000ADF81400022205A9582000F0CCFA0028EC
:10231000E4D1244804F0B0FE36E7A868CDF8148074
:1023200000F002F9A4EB0A0109B280B2FEF724FF23
:102330000590C5E62046FEF779F803A3D3E900230C
:10234000FDF714FFE0E600BF7B14AE47E17A743F6F
:102350005555555589AAB0405655555589AAB0408E
:10236000C28F764B8E15CC3F4C367925F4BC90400D
:10237000FA7E6ABC749318409A9999999999A93FE1
:102380005C030020F00500203C9C0008409C0008F5
:10239000FD9B00080B9C00089E03002000002440C9
:1023A0002D9C00084F9C00085E0300206003002065
:1023B00038B5154C2578EDB901224FF480711348DA
:1023C00001F0A8FB012001F0CBF9114804F054FE04
:1023D000012001F0C5F92A464FF480710B4801F045
:1023E00099FB2378013323702378002B0CBF012045
:1023F000022038BD00220521064B22701A705A6057
:1024000019615961F0E700BF620300200008014034
:10241000589C0008840600202DE9F04F03288DB059
:102420000C4647D1886800F0C4F8606800F07CF87A
:10243000A16805462148FDF78BFE00283AD1012D01
:1024400038D11F4C258826896789B4F81C80B4F8D8
:102450001E90E0892DB280B2FFF7DAFB8246208A17
:1024600036B280B2FFF7D4FB8346608A3FB280B2B7
:10247000FFF7CEFB0B90A08A0FFA88F880B2FFF727
:10248000C7FBE38A228B0B99648B1BB212B20FFA43
:1024900089F9079206930590049124B28DE8000F04
:1024A0003B46324629460748089404F071FD064829
:1024B00004F0E2FD01200DB0BDE8F08F7C9C000827
:1024C0009E030020809C00087A9C0008154B03F5B1
:1024D0009472C3F8A8218022A3F8AC21002203F152
:1024E0001801A3F8AE21A3F8B021A3F8B421A3F8F2
:1024F000B221C3F818114FF48071A3F81C11052103
:10250000A3F81E21A3F82021A3F82421A3F8222157
:1025100019615961D3F818111A705A600A70A3F83A
:102520001E2170478406002070B500283DD0037836
:10253000002B3CD02D2B0FD1012243780130302BC2
:1025400012D003F0DF01582911D00024303B092BB1
:1025500016D99AB1644211E02B2B08BF43784FF093
:10256000000208BF0130EAE710F8013FE7E7002466
:102570004578461C284604F0DAFC40B9204670BD78
:10258000E10001EB44041C4410F8013FDEE728465B
:1025900004F07AFDC0B240284FEA041494BF3038EA
:1025A0003738044416F8015FE4E70446E6E71C46C2
:1025B000E4E738B505460446207808B9284638BD12
:1025C00004F062FD04F8010BF6E700000023194651
:1025D00030B5094AB2F81E019CB280B2844203F1C0
:1025E000010504D3A2F81E11A2F8221130BD9BB23E
:1025F000134419762B46EDE78406002000232DE9CD
:10260000F04F624CA0F8AE31256885B00646894689
:10261000A0F8B0316DB102202568002D00F08E8049
:10262000012840F083800023D6F81821236013701E
:1026300072E02A46D0F81871DFF858B100953B785F
:1026400083B1092D02D10DE007F8012B97F8008026
:102650000192404604F062FC019A0028F4D1B8F1DE
:10266000000F27D10023CBF80030494B1D70002DFF
:1026700051D0484B484D1868FFF79BFF95E80F0075
:1026800084E80F00103520680028C4D0414B103575
:102690001968FDF75DFD002841D1237B19EA030F7E
:1026A00042D03E4B1B78012BB5D13D4804F0E4FCF1
:1026B000022031E03946804601354BF8047BEDB20B
:1026C0000F4611F8013B5BB1009878B918460392A8
:1026D0000291019304F022FC019B0299039A28B114
:1026E000B8F1000FABD08AF80020A8E7222B0CD15C
:1026F000B8F1000F08BFBA46009B8AF8002083F0AB
:10270000010300934FF00108DAE7B8F1000FD7D0CA
:102710000AF8013BD4E7012005B0BDE8F08F15E9C8
:102720000F0084E80F00AEE7012075E7184A6368E0
:102730001849107898470128EED174E7B9F1010FD4
:10274000E9D14A464FF48071164801F0E3F9484652
:1027500001F006F8144804F08FFC484601F000F838
:102760002A464FF480710F4801F0D4F9B6F81E21C3
:10277000B6F81C3192B29BB29A42CCD3B6F81C3157
:1027800048469BB2A6F81E31C6E700BF8C03002066
:102790006303002064030020D49D00088406002009
:1027A0007A9C000800080140989D000808B505487B
:1027B000054B036001F04EF818B1BDE8084000F089
:1027C0008FBA08BD3C080020003002400268084B68
:1027D00082B09A420AD1A3F500535A6942F04002EE
:1027E0005A615B6903F040030193019B02B070479B
:1027F00000300240037A026800EB43010133DBB290
:10280000022B88BF002342F30F224A81B0F90C202B
:102810000372B0F90A30B0F90E10934208DA8B4215
:1028200003DA13468B42A8BF0B46A0F8013070476D
:102830008A42F7DB1346F8E70B680268D21A03EB0B
:1028400022130B60704700006C23024A0021A02075
:1028500000F068B9C09E00087F280AD883187F2B33
:1028600007D831B12AB1D3B20A460146A02000F000
:1028700081B90020704710B59CB001AC6C220021DA
:10288000204604F07DFBFF2300228DF80430A35482
:1028900001326C2AFBD121460020FFF7DDFFFFF754
:1028A000D3FF1CB010BD7F280AD883187F2B07D810
:1028B00031B12AB1D3B20A460146A02000F032B9A4
:1028C0000020704710222DE9F04389B00DEB020083
:1028D000002104F055FB3A4B3A4C9A693A4F42F0CA
:1028E00010029A619A69204602F010020092009A42
:1028F0009A694FF4885142F020029A619A6903253F
:1029000002F020020192019A9A69002642F0040224
:102910009A619A694FF0020902F004020292029A47
:102920009A694FF4807842F008029A619B6900220C
:1029300003F008030393039B01F0ECF800223846F0
:102940004FF4807101F0E6F84FF4604304A91F488A
:102950000493059500F08EFF48F23C0304A9384625
:102960000493059500F086FF4EF63F6304A92046C8
:102970000493059500F07EFF01254FF4885304A9C8
:102980002046049305950696CDF81C9000F072FF42
:1029900004A93846CDF8108005950696CDF81C9010
:1029A00000F068FF32464146204601F0B3F82A465F
:1029B0004FF48051204601F0ADF809B0BDE8F08336
:1029C00000100240000C01400008014000100140CE
:1029D00008B50C480C4BDFF834E04FF4804280E837
:1029E0000840002302618360C36043618361C36167
:1029F000036201F091F918B1BDE8084000F070B928
:102A000008BD00BF4408002000540040801A0600A2
:102A100010B5044686B01022002102A804F0B0FAD6
:102A20002268114B9A421CD1104C02A9A36910488C
:102A300043F00803A361A36903F008030093009B1C
:102A4000C0230293122303930323059300F012FF84
:102A5000E36943F40013E361E36903F400130193B2
:102A6000019B06B010BD00BF0054004000100240A2
:102A7000000C01400268064B9A4208D1054AC02169
:102A8000D369054823F40013D36100F0D3BF704726
:102A90000054004000100240000C014030B50024FA
:102AA00085B002948DF8081021468DF80C40CCB208
:102AB000A3420CD8052201460092013302AA07481E
:102AC00001F0C4F9B0FA80F0400905B030BD555CA2
:102AD00002AC0C4465700131E9E700BF44080020F6
:102AE0002DE9FF410526174604AA02F8011D984664
:102AF0000146054601230096094801F0A7F9009612
:102B0000044643463A462946054801F075FA28B17D
:102B1000B4FA84F0F04004B0BDE8F0810120FAE797
:102B200044080020F0B50D4614469FB06E220021E7
:102B3000064602A81F4604F023FA2B0A1EAA611EAD
:102B40008DF8083002F86F5D6B3411F8013FA14237
:102B500002F8013FF9D10F2302AA00933146BB1CB2
:102B6000034801F073F9B0FA80F040091FB0F0BDDE
:102B700044080020F0B51F4685B00B0A8DF80C30D4
:102B80000A230B4C16468DF80D100546009303AA38
:102B900001460223204601F059F90F2332460093E3
:102BA00029463B46204601F027FA012005B0F0BD3A
:102BB00044080020282270B594B00DEB02000021DB
:102BC00004F0DEF9142210250DEB0200002104F0C0
:102BD000D7F92A46002101A804F0D2F909230A9363
:102BE0004FF4803301240B93022612934FF4802379
:102BF0000AA813930E941094119601F069FF0F2305
:102C00000593802307934FF48063214605A808931A
:102C10000993069602F030F94FF4800301A804935B
:102C2000019502F00DFA02F0DFF814B070BD00005B
:102C300001260225264C08B584F8356000F06CFDAD
:102C4000FFF7B8FFFFF73EFEFFF7B0FD03F0F8FE19
:102C500000F0FCFA00F050FB204684F8345000F0FD
:102C60007DF84FF47A6000F07BFD1A4B93F8FC314D
:102C7000032B10D100224FF48051174800F04AFF77
:102C80000A2000F06DFD32464FF48071124800F0CA
:102C900041FF84F8355040F2DC5000F061FD00F057
:102CA000A9FCFFF795FE04210C4800F0ABF80121C8
:102CB0000A4800F0A7F8FFF7DEFD084E044D304645
:102CC00000F08CF92063284600F076F8F7E700BFA3
:102CD00098080020340A0020000C0140D008002091
:102CE000704700002DE9F04106460124184D194FA8
:102CF00005F1180833682BB92022174B83F83920C7
:102D0000BDE8F0812340082B09D0802B18D0336810
:102D100023EA04036400336008BF0124EAE70123C7
:102D200085F826312B78012B18BF02233B703978A8
:102D30002846FFF763FC0128F9D1FFF747FCE6E7D7
:102D4000737A032BE3D141462878FEF7EDFFDEE7E7
:102D5000840600209C030020F0090020032208B50F
:102D6000827607220276114A012342614FF4927261
:102D7000828302228372002380F82A2004220372B5
:102D80000B4B80F8282043600A4A98234262432272
:102D9000838190F8343082854372437680F82930FD
:102DA000FFF794FBBDE80840FEF7B0B95D2E0008C0
:102DB000E52C0008192E0008036B70B5DA050446EF
:102DC00004D5032384F83430002517E01B07FBD516
:102DD0000223F7E72E01A0198389134005D094F848
:102DE00034204272A351436898472644B289236B2A
:102DF000022D23EA02032363E6D80135226B002A61
:102E0000E8D170BDEFF3108372B602680A44026025
:102E100003B962B67047000070B5054601240E4E36
:102E20002B6803B970BD2340012B09D0402B0ED075
:102E30002B6823EA040364002B6008BF0124EFE73A
:102E4000FEF76AFB40213046FFF7DCFFF0E7FEF7B4
:102E5000FFFD0121F7E700BFD00800202DE9F7436F
:102E600007460126DFF87081564C3B6813B903B062
:102E7000BDE8F0833340042B09D0202B12D03B68EF
:102E800023EA060376003B6008BF0126EDE74046D3
:102E900002F04EF90021404602F0DEFB4A4802F003
:102EA00047F9ECE76378494D043304EB43039B880F
:102EB00006219AB2A3689B1AA360AB89A2689BB251
:102EC0001344A3602378043304EB43039B889AB232
:102ED00063689B1A6360AB8962689BB2134463604A
:102EE0002378AA89043392B204EB43039A802378AF
:102EF0000133DBB2237023781D2B84BF00232370A2
:102F000023780F3BDBB2637063781B0641BF6378A5
:102F10001E33DBB26370E3780E2B9FBFE37801337F
:102F2000DBB2E370A3781D2B9FBFA3780133DBB224
:102F3000A370A88980B200F091FA062100B2E8815E
:102F4000A268E3784B4302EB5302B2FBF3F212B2F6
:102F50002A826368A2784A4303EB5203B3FBF2F37D
:102F60001BB26B82002318461A1D04EB42029188A3
:102F7000013389B2814284BF908880B21E2BF3D185
:102F8000062100F06BFA4FF0000900B2A88204217C
:102F90000F48FFF737FFA5F80C900E4D6889297B85
:102FA00000B200F061FA02AB23F8020D184600F0FF
:102FB000E1FABDF9060085F8069000F093FA00F0FA
:102FC000E7FA5CE7D4080020700900209E03002087
:102FD000D00800201C090020B00900200246EFF3B1
:102FE000108372B600210068116003B962B67047A1
:102FF00038B5124B0D4693F835301446022B07D1E5
:103000000F4803F0D3F90E4803F0DEF9204638BD2F
:1030100001224FF480710B4800F07CFD012000F08C
:103020009FFBA2B229463223074802F059FC002236
:103030004FF48071034800F06DFDE7E79808002029
:10304000340A002000080140F00900200E4B82B035
:103050009A6942F001029A619A6902F001020092B3
:10306000009ADA6942F08052DA61DB69074A03F0BC
:1030700080530193019B536823F0E06343F0007396
:10308000536002B0704700BF0010024000000140D2
:1030900001F0C6BFFEE7FEE7FEE7FEE770477047B8
:1030A000704700F04BBB0000014801F035BA00BF8B
:1030B00028160020014802F003B900BFB009002023
:1030C000014802F0FDB800BF70090020036810B588
:1030D000B3F1804F044603D120211448FFF792FE3C
:1030E0002268134B9A4220D1124B93F83430032BB1
:1030F0000BD1114C2378013BDBB223702BB980211B
:103100000A48FFF77FFE052323704FF4B4700B4B82
:1031100046F62A01B3F94130584300F09FF9BDE863
:10312000104081B2064800F0B7B910BDD0080020A9
:10313000000400409808002008000020F00500204E
:10314000220900200268B2F1804F0DD1037F012BCC
:103150000AD106498B8901339BB28B8113699B0588
:1031600044BF6FF400731361704700BF9E030020DB
:10317000204B10B51A68920641BF1A6822F47F727C
:1031800022F003021A605B68DBB20A2B29D00D2BF8
:10319000194C27D108211948FFF734FE0021D4F833
:1031A0001821B4F822319BB2D154B4F81E31B4F8CE
:1031B0001C119BB289B2013393FBF1F201FB123374
:1031C0009BB2A4F81E31B4F82231B4F81C119BB2A2
:1031D00089B2013393FBF1F201FB12339BB2A4F8E5
:1031E000223110BDD4F81811B4F8222192B28B54B8
:1031F000DBE700BF0038014084060020D008002033
:103200000F4B1A6842F001021A6059680D4A0A40D1
:103210005A601A6822F0847222F480321A601A68A6
:1032200022F480221A605A6822F4FE025A604FF497
:103230001F029A604FF00062034B9A60704700BF14
:10324000001002400000FFF800ED00E010B500247F
:103250008AB01022002102A803F092FE102221461B
:1032600006A80094019403F08BFE48F69F434FF0AC
:103270008042204880E80C0049F64043C360802328
:1032800084600461836102F0F5F808B1FFF728FD5E
:103290004FF4805302A91748029301F055FF08B17B
:1032A000FFF71EFD134802F0FFF808B1FFF718FD05
:1032B000002469460F480094019402F0F9F908B11E
:1032C000FFF70EFD012307930323002206A90948F7
:1032D00006940894099302F02BF908B1FFF700FD5A
:1032E000042206A9034802F023F908B1FFF7F8FC0D
:1032F0000AB010BDB009002010B500248AB0102219
:10330000002102A803F03CFE1022214606A80094EA
:10331000019403F035FE40F2E7332148214A8460EE
:1033200080E80C0045F6C053C360802304618361CC
:1033300002F0A0F808B1FFF7D3FC4FF4805302A9C4
:103340001748029301F000FF08B1FFF7C9FC1448C9
:1033500002F0AAF808B1FFF7C3FC00236946104841
:103360000093019302F0A4F908B1FFF7B9FC0A2316
:103370000693012300220793032306A90848089215
:10338000099302F0D5F808B1FFF7AAFC042206A9B8
:10339000034802F0CDF808B1FFF7A2FC0AB010BD57
:1033A0007009002000040040102210B5044688B0C7
:1033B00000210DEB020003F0E3FD2368B3F1804F21
:1033C00023D103F50433DA6904A942F00102DA617A
:1033D000DA691F4802F001020092009A9A6942F0ED
:1033E00004029A619B6903F004030193019B032388
:1033F000049300F03FFA00221C20114600F0D4F99B
:103400001C2000F005FA08B010BD124A9342FAD110
:10341000114B04A9DA690E4842F00202DA61DA6956
:1034200002F002020292029A9A6942F004029A6140
:103430009B6903F004030393039BC023049300F0F0
:1034400019FA00221D20114600F0AEF91D20D8E720
:1034500000080140000400400010024000EB510051
:1034600090FBF1F080B270470028BDBF40420123BD
:1034700000B200230029BCBF494209B289B280B220
:1034800000EB510090FBF1F0BCBF0133DBB2DB0776
:1034900048BF404200B2704703780246012B19D161
:1034A0004088091A8BB219B211F1B40F0DDA03F585
:1034B000B47319B2431819B2937988B20133937176
:1034C00093885180034493807047B429F2DDA3F5BB
:1034D000B473EEE7002383808371012309B2037084
:1034E000EAE7000038B5224C01462046237808332D
:1034F00004EB4303DA88638A9B1A1BB26382637806
:10350000083304EB4303DA8863889B1A1BB2638099
:1035100010F80E5BFFF7C0FFEDB2083500B204EB08
:103520004505E880228A638813441BB263802378B0
:103530000133DBB2237023781D2B84BF002323705B
:1035400023780F3BDBB2637063781B0641BF63785F
:103550001E33DBB2637023790E2B9FBF23790133B7
:10356000DBB22371237D1D2B84BF1E23237538BD41
:103570001C090020B0F90030002B03DA03F5B47306
:1035800003807047B3F5B47FFBDBA3F5B473F7E7B3
:1035900010B5164A164C1178C9B24B1EDBB218068C
:1035A000204644BF01F11D03DBB2083302EB4303A5
:1035B000DB8820F8163FFFF7DDFF5088117900B255
:1035C000FFF752FF0346204620F8183FFFF7D2FFCF
:1035D000508A117D00B2FFF747FF03462046BDE841
:1035E000104020F81A3FFFF7C5BF00BF1C0900209C
:1035F0009E0300204FF4E13310B51448144C0C2204
:1036000084E8090000232046A360E360236162612F
:10361000A361E36102F036F908B1FFF761FB0D4BDE
:1036200093F83530012B0FD100220521252000F021
:10363000BBF8252000F0ECF82023226884F839300C
:10364000D36843F02003D36010BD00BF00380140B1
:10365000F00900209808002010B5044686B010221A
:10366000002102A803F08CFC2268174B9A4228D153
:1036700003F558439A6902A942F480429A619A6913
:10368000124802F480420092009A9A6942F00402C1
:103690009A619B6903F004030193019B4FF400734B
:1036A0000293022303930323059300F0E3F84FF4FE
:1036B00080630293002302A904480393049300F05B
:1036C000D9F806B010BD00BF003801400008014025
:1036D00038B50E4B054618784FF47A73B3FBF0F308
:1036E0000B4A1068B0FBF3F000F09EF8044658B99E
:1036F0000F2D09D8024629464FF0FF3000F054F84C
:10370000044B20461D6038BD012038BD100000204C
:103710000C00002014000020074A08B5136803209D
:1037200043F01003136000F02DF80020FFF7D0FFE6
:10373000FFF78CFC002008BD00200240034A044B28
:1037400011681B780B441360704700BF300A0020DB
:1037500010000020014B1868704700BF300A00209D
:1037600038B50446FFF7F6FF0546631C1EBF044B41
:103770001B78E418FFF7EEFF401B8442FAD838BDEF
:1037800010000020074A0002D36800F4E06023F430
:10379000E0631B041B0C43F0BF6343F4003303439B
:1037A000D360704700ED00E0174B30B5DC68C4F320
:1037B0000224C4F10703251D042B28BF0423062D72
:1037C0004FF0010598BF002405FA03F303F1FF331E
:1037D00088BF033C1940A14005FA04F4013C224093
:1037E000002842EA01024FEA0212AFBF00F1604036
:1037F000064B00F00F00D2B2A5BFD2B200F5614077
:103800001A5480F8002330BD00ED00E014ED00E014
:103810000123420900F01F0003FA00F0014B43F8B6
:103820002200704700E100E00138B0F1807F0AD249
:10383000F021064B064A586082F823100020072228
:1038400098601A6070470120704700BF10E000E0E8
:1038500000ED00E010B5044650B1437903F0FF02DB
:1038600013B90271FEF7B2FF01230020637110BD8E
:10387000012010BD2DE9F74F00221646654BDFF8F9
:10388000A4E1DFF8A4C14FF001080C6808FA06F8BB
:1038900008EA0404A0457FD14D68122D00F0AF80E6
:1038A00000F28880022D00F0A7807CD8002D00F067
:1038B0008E80012D00F09E804FF00F09FF2C93BFEA
:1038C000824606F18045083DD0F800B092BFB500B1
:1038D000D0F804B0AD0009FA05F82BEA080802FA9E
:1038E00005F588BF00F1040A48EA0505CAF800504A
:1038F000D1F804A01AF0805F4ED0474D464FAD6915
:1039000026F0030845F00105BD61BD6908F1804856
:1039100005F00105019508F5803806F0030B019DBF
:103920004FEA8B0BD8F8085009FA0BF925EA090978
:103930003A4DA84268D005F58065A84266D005F5E5
:103940008065A84264D005F58065A8420CBF0325B8
:10395000042505FA0BF545EA0905C8F808501D6865
:103960001AF4803F14BF2543A5431D605D681AF417
:10397000003F14BF2543A5435D609D681AF4801F76
:1039800014BF2543A5439D60DD681AF4001F14BFD2
:103990002C4325EA0404DC600136102E7FF473AF5B
:1039A00003B0BDE8F08F032D22D0112D84D1CA6859
:1039B000043281E71A4FBD4209D012D8DFF86C906B
:1039C0004D4504D009F580394D457FF475AF8A68BF
:1039D000C2B1012A0CBFC0F81080C0F814800822C0
:1039E0006AE77545F3D06545F1D0DFF84490EBE721
:1039F000002261E7CA685FE7CA6808325CE7CA6804
:103A00000C3259E7042257E70025A2E70125A0E779
:103A100002259EE70004014000100240000801401A
:103A200000002110000031100000321000001110C1
:103A3000000022102DE9F04F00224FF001094FF055
:103A40000F0C4FF0040A304CDFF8C4B031FA02F327
:103A500001D1BDE8F08F09FA02F30B404CD0FF2BE7
:103A600098BF07466FEA030385BF02F18045083D12
:103A7000D0F800E0D0F804E094BF9500AD000CFA57
:103A800005F62EEA06060AFA05F588BF071D2E433D
:103A90003E60C56802F003071D40C56022F00305C3
:103AA00005F1804505F58035AE68BF000CFA07F8D2
:103AB00006EA080E154EB04220D006F58066B042E8
:103AC0001ED006F58066B0421CD058450CBF0326B8
:103AD0000426BE40B6450FD1AE6826EA0806AE60A1
:103AE00025681D40256065681D406560A5681D400E
:103AF000A560E5682B40E3600132A7E70026E8E710
:103B00000126E6E70226E4E7000401400008014040
:103B1000001401400AB1016170470904FBE7026823
:103B2000536913F480630DD06FF4806353610423F1
:103B3000202203640023036380F83C3080F83D209A
:103B400001207047184670472DE9F8430446174690
:103B50009946C1F307488EB22568B8F1010F0CBF32
:103B60006B69AB6936EA030314BF0120002008B972
:103B7000BDE8F8836B695A0512D52B68202243F4FF
:103B800000732B606FF480636B6104232364002354
:103B90000120236384F83C3084F83D20BDE8F8839D
:103BA0007B1CD9D04FB900232022236384F83C30FA
:103BB00084F83D200320BDE8F883FFF7CBFDA0EBA0
:103BC00009008742C8D2EEE72DE9F8430446904643
:103BD0001F46089EC1F307498DB22368B9F1010F52
:103BE0000CBF5B699B6935EA03030CBF012300230B
:103BF000434502D00020BDE8F8837B1CEDD05FB9BF
:103C000000232022236384F83C3084F83D200320E5
:103C100084F83E30BDE8F883FFF79CFD801B8742A7
:103C2000DBD2EDE770B504460D46164623685B69A6
:103C30001B0601D5002070BD2046FFF770FFA8B914
:103C40006A1CF3D065B9236C202243F0200323645F
:103C500000230320236384F83C3084F83D2070BDAA
:103C6000FFF778FD801B8542E0D2ECE7012070BDB4
:103C700070B504460D4616462068436913F04003AC
:103C800001D0002070BD4269D2060BD56FF0100242
:103C900042612022236484F83C302363012084F8AD
:103CA0003D2070BD5DB9236C032043F020032364E5
:103CB000202384F83D30002384F83C3070BDFFF7AA
:103CC00049FD801B8542D7D2EDE770B504460D460D
:103CD000164623685B695B0701D5002070BD20464E
:103CE000FFF71DFFA8B96A1CF3D065B9236C202229
:103CF00043F02003236400230320236384F83C3033
:103D000084F83D2070BDFFF725FD801B8542E0D281
:103D1000ECE7012070BD000038B5044608B9012069
:103D200038BD90F83D3003F0FF021BB980F83C200D
:103D3000FEF76EFE2423226884F83D30136823F0DA
:103D40000103136001F04AF963682F4A934230D8A7
:103D50002E4A9042E3D92E4A2168B0FBF2F24A6023
:103D600001320A62284A0138934232D85B00B0FB24
:103D7000F3F0431CC3F30B03042B38BF0423CB61C4
:103D8000226AE369002013430B60E268236913434E
:103D90008B60A26963691343CB600B6843F0010336
:103DA0000B602023206484F83D30206384F83E00BB
:103DB00038BD184A9042B2D9154D4FF49672B0FBF7
:103DC000F5F521686A434D604FF47A75B2FBF5F260
:103DD000C6E7A26852B903EB4303B0FBF3F0431C00
:103DE000C3F30B036BB143F40043C8E719225343F9
:103DF000B0FBF3F0431CC3F30B0313B143F4404394
:103E0000BDE70123BBE700BFA08601007F841E0041
:103E100040420F00FF083D0010B5044698B124232E
:103E2000026880F83D30136823F001031360FEF749
:103E300021FE0020206484F83C0084F83D002063CB
:103E400084F83E0010BD012010BD00002DE9FF41A7
:103E500004461F460D469046FFF77CFC94F83D3023
:103E60000646202B04D00225284604B0BDE8F08188
:103E70000090192301225D492046FFF7A5FE002886
:103E8000F1D194F83C30012BEDD0012384F83C3083
:103E900023681A68D2075EBF1A6842F001021A60EE
:103EA0001A6822F400621A60212284F83D20102250
:103EB00084F83E2000222264A2F580326785E26207
:103EC000628DC4F824802285E26A042A04D0012A83
:103ED00002D012F5803F04D11A6842F480721A6051
:103EE00002E0226B122AF7D000960A9B00224FF0C4
:103EF00001112046FFF768FE28BB23692268B3F54D
:103F0000804F12D105F0FE05156133460A9A3849F3
:103F10002046FFF719FE0546A0B9236803905A69A9
:103F200003929B690393039B50E0EB1103F006039C
:103F300043F0F00313612F4933460A9A2046FFF7F6
:103F400003FE48B1236C236C042B4FF0000307D110
:103F500084F83C30012587E72368EDB21D61D4E782
:103F600084F83C3003257FE732460A992046FFF764
:103F700059FE40B1236C042BF4D12268136843F43A
:103F800000731360E6E7616A20684B1C63620B787C
:103F9000228D0361638D013B9BB263854769531E8C
:103FA0009BB27F0723850AD54BB18B1C63624B788C
:103FB000023A0361638D2285013B9BB263853246E1
:103FC0000A992046FFF781FE0028D3D1238D002BCC
:103FD000CAD121680A6842F400720A60202284F87B
:103FE0003C3084F83D2084F83E303DE7020010006C
:103FF00002000100080001002DE9F043044689B0E9
:1040000098460D469146109FFFF7A4FB94F83D306B
:104010000646202B04D00225284609B0BDE8F083CF
:10402000009019230122A2492046FFF7CDFD002868
:10403000F1D194F83C30012BEDD0012384F83C30D1
:1040400023681A68D2075EBF1A6842F001021A603C
:104050001A6822F400621A60222284F83D2010229D
:1040600084F83E2000222264A2F58032A4F82A803F
:10407000E262628DC4F824902285E26A1968042AFB
:1040800041F48061196004D0012A02D012F5803F0A
:1040900004D11A6842F480721A6002E0226B112A7D
:1040A000F7D000963B4600224FF001112046FFF763
:1040B0008BFD00284DD12369B3F5804F236839D19A
:1040C00045F00105EDB21D6133463A467949204677
:1040D000FFF73AFD054600283AD1228D2368002AD1
:1040E00069D0012A7AD11A6822F480621A6072B605
:1040F000236804955A6904929A690492049A1A688A
:1041000042F400721A6062B6DFF8B081238D002B92
:104110005BD0032B00F2D480012B7BD13246394691
:104120002046FFF7A5FD002800F09380236C202B8C
:1041300016D13EE04FEAE51808F0060848F0F00214
:104140001A615D4933463A462046FFF7FDFC48B107
:10415000236C236C042B4FF0000328D184F83C30EF
:10416000012559E72368EDB21D613A4633465149AE
:104170002046FFF7E9FC02460028E9D123680790B2
:10418000596920460791996907910799196841F47F
:104190008071196000963B464FF00111FFF714FD46
:1041A0000028D6D1226848F0F10313618CE784F827
:1041B0003C30032530E703955A6903929A690392CC
:1041C000039A1A6842F400721A60202384F83D3082
:1041D000002384F83E3084F83C301DE7022A1A6838
:1041E0000ED142F400621A6072B6236805955A69CE
:1041F00005929A690592059A1A6822F4806281E70D
:1042000042F480621A6006955A6906929B69069389
:10421000069B79E7022B00963B464FF00002414691
:10422000204624D1FFF7D0FC0028C2D172B6236803
:104230001A6842F400721A60626A1B69511C61625A
:104240001370238D013B2385638D013B9BB26385F6
:1042500062B6636A5A1C6262226812691A70238D00
:10426000013B2385638D013B9BB263854EE7FFF7DE
:10427000ABFC024600289CD121680B6823F48063C4
:104280000B6072B6636A2046591C61622168096935
:104290001970238D0096013B2385638D4146013BB8
:1042A0009BB263853B46FFF78FFC0028BFD080E7B9
:1042B00002001000020001000800010004000100DB
:1042C000324639462046FFF7D3FC00287FF42EAF54
:1042D000636A5A1C6262226812691A70238D22680E
:1042E000013B2385638D013B9BB2638553695B076B
:1042F0007FF50CAF636A591C6162AEE72DE9F041AE
:10430000044686B0002860D090F8293403F0FF02FC
:104310001BB980F8282402F06BFC254603236E4667
:1043200055F8100B84F8293401F046FB0FCD0FC669
:104330002B6804F10408336098E80E00206801F04F
:104340002BFB0021206801F041FB0021234622467F
:104350000126084604F1100582F8281091860131E3
:104360000F2982F8296082F82B009063D0631064D3
:1043700002F12002F0D10022174683F828229A8603
:1043800001320F2A83F8297283F82B72C3F838722E
:10439000C3F83C72C3F8407203F12003EDD16E46BE
:1043A0000FCD0FC62B68336098E80E00206801F02F
:1043B0000FFB012384F82470206884F8293401F06D
:1043C000DFFD002006B0BDE8F0810120FAE790F89B
:1043D000283410B5012B04460ED0012180F8281492
:1043E00002F02DFD206801F0C9FD206801F0DBFA24
:1043F000002084F8280410BD022010BD90F8282465
:1044000010B5012A04460BD0012280F8282484F834
:104410002410006801F0ACFD002084F8280410BDD1
:10442000022010BD38B5044648B2002801F07F05CF
:10443000B5BF04EB451104EB4111283101F50A71B8
:10444000C00F0D704870CB7094F828340A61012BAE
:1044500009D00123206884F8283401F0D5FA00201F
:1044600084F8280438BD022038BD4BB2002B01F07F
:104470007F02B5BF00EB421100EB4111283101F57D
:104480000A71DB0F10B50A704B7090F8283404469F
:10449000012B09D0012380F82834006801F026FCA4
:1044A000002084F8280410BD022010BD70B500263D
:1044B00001F07F014D01441984F8281205F50A71B5
:1044C0000144C4F83C22C4F84032C4F8446284F881
:1044D0002962006801F06EFD304670BD01F00F01E9
:1044E00000EB4111B1F84402704701F07F0170B553
:1044F0004D01441923640026012384F8281005F196
:1045000028010144E263666484F82930006801F000
:1045100051FD304670BD00002DE9F34704460068A8
:1045200001F030FD000400F19880206801F02AFDC0
:1045300041050FD522682046B2F8443023F4806349
:104540001B041B0CA2F8443002F089FB002120461A
:10455000FFF754FF206801F015FD470408D52268D5
:10456000B2F8443023F480431B041B0CA2F84430FF
:10457000206801F007FD860408D52268B2F84430AF
:1045800023F400531B041B0CA2F84430206801F0F4
:10459000F9FCC5041CD522682046B2F8403023F04F
:1045A00004031B041B0CA2F84030B2F8403023F087
:1045B00008031B041B0CA2F8403002F06DFB2268BC
:1045C000B2F8443023F480531B041B0CA2F844308F
:1045D000206801F0D7FC00051DD52068B0F84030F8
:1045E0009BB243F00803A0F84030B0F8443023F405
:1045F00000631B041B0CA0F84430B0F840309BB2A1
:1046000043F00403A0F8403001F0BCFCC10402D424
:10461000204602F031FB206801F0B4FC82050BD586
:1046200022682046B2F8443023F400731B041B0CAC
:10463000A2F8443002F00FFB206801F0A3FCC30590
:1046400008D52268B2F8443023F480731B041B0C95
:10465000A2F8443002B0BDE8F0870023C84FDFF86D
:104660002483DFF82493ADF80430ADF806302068D9
:10467000B0F844309BB2ADF804301B047FF555AF61
:10468000BDF8045015F00F0540F0AB80BDF80410E4
:10469000038811F010019BB226D13B400380B0F893
:1046A000503094F828209BB203EBC20300EB430088
:1046B000D0F80434E26BC3F3090363641344E36387
:1046C000204602F0C1FA94F82430002BCFD0226C9F
:1046D000002ACCD194F82430216843F08003A1F85B
:1046E0004C3084F82420C2E7ADF80630BDF806301F
:1046F0001A051FD5B0F8503094F828229BB203EB6E
:10470000C20300EB4303D3F80C34B4F82C22C3F3F8
:104710000903C4F8443204F22C4101F04BFD226835
:104720002046138823F070031B051B0D138002F035
:104730007DFA9CE7BDF806301B0498D5038823F06A
:1047400070031B051B0D0380B0F8503094F828222D
:104750009BB203EBC20300EB4303D3F80C34C3F367
:104760000903C4F8443263B1B4F82C22D4F83C12E3
:1047700001F020FDD4F83C32D4F844221344C4F8AC
:104780003C320021204602F057FA2268D4F8385211
:10479000B2F850103E2D89B201F1060102F5806099
:1047A00017D9C5F34F13EE0604BF03F1FF339BB2D5
:1047B00049EA83239BB240F8113013889BB203EA85
:1047C000080383F4405343F4004343F08003138011
:1047D0004DE7C5F34F03ED0744BF01339BB29B0286
:1047E000E8E730F825309BB2ADF80630BDF806306A
:1047F00019043FD530F825304FEA451A23F07003ED
:104800001B051B0D20F8253004EB0A0191F832320C
:10481000002B74D1B0F8503091F828229BB20633A7
:1048200003EBC20300EB4303D3F80064C6F30906AD
:1048300036B1B1F82C223346D1F83C1201F0BAFC63
:1048400004EB0A01D1F84432D1F83C223344C1F8D8
:104850004432D1F840323244C1F83C2223B1D1F87D
:104860003802864280F08680A2449AF828122046B8
:1048700002F0E2F9BDF806301A067FF5F8AE2068BE
:104880006E0130F82530A1199BB23B4020F825304D
:1048900091F832300235002B78D1B0F8503091F8D1
:1048A00028209BB2023303EBC20300EB4303D3F88F
:1048B000003404EB4515C3F309036B601BB18A8D0B
:1048C000C96B01F065FB22682644B2F8503096F8B7
:1048D00028109BB2023303EBC10302EB4303D3F86E
:1048E0000024F36BC2F3090272641A44336CF2635E
:1048F0002046002B40F0858002F0A6F9B7E691F83B
:10490000283230F82320DB0012F4804FB0F850201A
:1049100092B221D00232134400EB4303D3F8006477
:10492000C6F3090636B13346B1F82E22D1F83C124F
:1049300001F040FC04EB0A0393F82812226832F8D5
:10494000213023F0F0031B051B0D43F4004343F01B
:10495000C00322F8213073E70632134400EB43030F
:10496000D3F80064C6F30906002EE3D03346B1F84D
:104970003022DBE791F828122046FFF797FD79E710
:104980000F8FFFFF8FBFFFFF0080FFFF91F82830E0
:1049900030F82320DB0012F0400FB0F8502092B224
:1049A00020D00232134400EB4303D3F8003404EB6D
:1049B0004515C3F309036B601BB1CA8DC96B01F0C8
:1049C000E7FAA31993F82810226832F8213023F06F
:1049D000F0031B051B0D43F4404343F0800322F812
:1049E000213070E70632134400EB4303D3F8003460
:1049F00004EB4515C3F309036B60002BE1D00A8E6D
:104A0000DCE7FFF772FD32E6012238B54BB2002B2E
:104A100001F07F05B5BF00EB451100EB41112831D6
:104A200001F50A71DB0FEDB28A700D704B7090F8D2
:104A30002834044693420ED080F82824006801F000
:104A400023FA25B904F22C41206801F09FFA0020D6
:104A500084F8280438BD022038BD38B500244BB294
:104A6000002B01F07F02B5BF00EB421100EB4111BA
:104A7000283101F50A71DB0F8C700A704B7090F8C9
:104A800028340546012B09D0012380F8283400681A
:104A900001F02CFA85F82844204638BD022038BDA4
:104AA00011F0800F1BBF01F07F0100EB411000EB04
:104AB0004110283008BF00F50A701AB9827283804D
:104AC000002070470122C3801B0C82720381F7E72C
:104AD00003682DE9F341DB07054610D42B689F07D7
:104AE0005ED42B68190700F195802B685A0700F1F6
:104AF000BF80EA69002A40F02D81002014E0904C2C
:104B0000636803F00C03042B07D0636803F00C0305
:104B1000082B0CD16368DE0309D523689C03DDD51F
:104B20006B68002BDAD1012002B0BDE8F0816B6820
:104B3000B3F5803F10D1236843F480332360FEF740
:104B400009FE064623689803C8D4FEF703FE801BBF
:104B50006428F7D90320E7E79BB9236823F480335F
:104B60002360236823F480232360FEF7F3FD0646C9
:104B700023689903B2D5FEF7EDFD801B6428F7D9B1
:104B8000E8E7B3F5A02F236803D143F48023236023
:104B9000D1E723F480332360236823F48023CDE717
:104BA000674C636813F00C0F07D0636803F00C03C5
:104BB000082B10D16368DA030DD423689B0702D554
:104BC0002B69012BAFD123686A6923F0F80343EA0C
:104BD000C203236085E72A695A4B6AB101221A6031
:104BE000FEF7B8FD064623689F07ECD4FEF7B2FD3A
:104BF000801B0228F7D9ADE71A60FEF7ABFD064629
:104C0000236898077FF56DAFFEF7A4FD801B02288F
:104C1000F6D99FE7AA694A4C4B4BDAB101221A60D8
:104C2000FEF798FD0646636A9B070DD54FF4FA52CE
:104C3000464B1B68B3FBF2F3019300BF019B5A1E66
:104C40000192002BF9D150E7FEF784FD801B02286A
:104C5000E9D97FE71A60FEF77DFD0646636A9F0784
:104C60007FF543AFFEF776FD801B0228F6D971E78A
:104C7000334CE369D80024D40127E36943F080531F
:104C8000E361E36903F080530093009B304E336887
:104C9000D90518D5EB68012B26D1236A43F001030F
:104CA0002362FEF757FD41F288368046236A9B0750
:104CB0003FD5002F3FF41DAFE36923F08053E3613C
:104CC00017E70027E2E7336843F480733360FEF7A9
:104CD00041FD80463368DA05DCD4FEF73BFDA0EBEE
:104CE00008006428F6D935E7ABB9236A41F2883861
:104CF00023F001032362236A23F004032362FEF7F7
:104D000029FD0646236A9807D3D5FEF723FD801BAD
:104D10004045F7D91EE7052B236A03D143F004036E
:104D20002362BAE723F001032362236A23F004031A
:104D3000B6E7FEF70FFDA0EB0800B042B6D909E7D1
:104D40000010024000004242800442420C00002059
:104D500000700040224C636803F00C03082B3FF402
:104D6000E2AE00231F4E022A33602BD1FEF7F2FC85
:104D70000746236899011FD42B6AB3F5803F05D1FC
:104D80006268A96822F400320A436260696A626854
:104D90000B4322F474121343636001233360FEF764
:104DA000D9FC054623689A013FF5A7AEFEF7D2FC71
:104DB000401B0228F6D9CDE6FEF7CCFCC01B02282A
:104DC000D7D9C7E6FEF7C6FC054623689B017FF5E9
:104DD00094AEFEF7BFFC401B0228F6D9BAE600BF2E
:104DE00000100240600042420122014B1A607047ED
:104DF0004C00424230B51B4B87B002AC03F11005AA
:104E0000224618685968083303C2AB421446F7D1EA
:104E100001238DF80430022313498DF805304B68C7
:104E200003F00C02042A1BD0082A02D00F4807B056
:104E300030BDC3F3834206A80244DB0312F8102CF2
:104E40000BD54B680A48C3F34043504306AA1344AA
:104E500013F8143CB0FBF3F0E9E706485043E6E7EB
:104E60000348E4E7D89B00080010024000127A00D3
:104E70000024F40000093D00544A2DE9F041136874
:104E8000054603F007038B420E462AD329688C0798
:104E900034D4CA0747D44D4A136803F007039E422F
:104EA000C0F082802A684A4C12F0040F40F08780DC
:104EB000130706D563682A6923F4605343EAC203E3
:104EC0006360FFF797FF6368424AC3F30313D35C41
:104ED000D840414B18600020FEF7FAFB0020BDE8E7
:104EE000F081136823F007030B431360136803F08A
:104EF00007039942CAD00120BDE8F081344B11F07C
:104F0000040F1EBF5A6842F4E0625A60080742BFAD
:104F10005A6842F460525A605A68A86822F0F00257
:104F200002435A60B5E76A68294C012A23681CD1FC
:104F300013F4003FDFD0636841F2883823F00303A5
:104F400013436360FEF706FC6B680746012B14D120
:104F5000636803F00C03042B9DD0FEF7FBFBC01B22
:104F60004045F5D90320BDE8F081022A02D113F0B3
:104F7000007FDFE713F0020FDCE7022B0FD163683D
:104F800003F00C03082B86D0FEF7E4FBC01B404562
:104F9000F5D9E7E7FEF7DEFBC01B4045E2D86368C2
:104FA00013F00C0FF6D176E7136823F007033343B1
:104FB0001360136803F007039E429CD172E7636895
:104FC000E96823F4E0630B43636071E7002002406B
:104FD000001002402C9F00080C000020044B054AE2
:104FE0005B68C3F30223D35C034A1068D840704760
:104FF000001002403C9F00080C000020044B054AB2
:105000005B68C3F3C223D35C034A1068D84070477F
:10501000001002403C9F00080C0000207047000078
:1050200008B5054B9B681B0604D5FFF7F7FF8022E8
:10503000024B1A7008BD00BF001002400A10024067
:1050400003682DE9F341D907054620D5354CE369BE
:10505000DA0032D40127E36943F08053E361E36966
:1050600003F080530193019B2F4E3368DB0526D557
:10507000236A13F4407336D1236A6A6823F44073B9
:10508000134323621FB1E36923F08053E36128686F
:10509000830706D5234AA968536823F440430B438A
:1050A000536010F010001BD01E4AE96853680020BE
:1050B00023F480030B43536012E00027D4E73368E6
:1050C00043F480733360FEF745FB80463368D805B0
:1050D000CED4FEF73FFBA0EB08006428F6D90320EE
:1050E00002B0BDE8F0816A6802F440729342C3D016
:1050F00001200E4A236A1060002023F440711060E2
:105100002162D907B8D5FEF725FB41F2883806465B
:10511000236A9A07B0D4FEF71DFB801B4045F7D9E0
:10512000DDE700BF00100240007000404004424232
:1051300003680020DA6842F00102DA601A6842F07F
:1051400001021A607047704790F83C3070B5012B2F
:105150004FF002031CD0012280F83D30036880F834
:105160003C209A6822F47F4222F077029A600A6813
:10517000402A79D019D8102A00F093800AD8002A42
:1051800000F08980012380F83D30002380F83C3016
:10519000184670BD202A00F08A80302AF2D19A6821
:1051A00022F0700242F0370236E0702A36D01BD867
:1051B000502A42D0602AE5D11C6A4D6824F01004C0
:1051C000CE681C6299691A6A21F4704122F0A0022B
:1051D00042EA051241EA063199611A629A6822F0A0
:1051E000700242F0670217E0B2F5805F11D0B2F5AD
:1051F000005FC7D18A684D689C68C9682A4324F457
:105200007F4442EA012222439A609A6842F4804233
:1052100002E09A6822F007029A60B3E78A684D6854
:105220009C68C9682A4324F47F4442EA012222434D
:105230009A609A6842F07702EEE74C68CE68196A85
:105240001D6A21F00A0125F001051D629A692143BA
:1052500022F0F00242EA06129A6119629A6822F07C
:10526000700242F05702D7E74C68CE68196A1D6A8F
:1052700021F00A0125F001051D629A69214322F0FF
:10528000F00242EA06129A6119629A6822F07002EC
:1052900042F04702C0E79A6822F0700242F007022B
:1052A000BAE79A6822F0700242F01702B4E79A68EF
:1052B00022F0700242F02702AEE770477047704755
:1052C000036810B51A69044691070ED5DA6892078B
:1052D0000BD56FF002021A6101229B6902779B07CE
:1052E00077D0FDF72FFF0023237723681A69500733
:1052F00010D5DA6851070DD56FF004021A61022249
:105300009B69227713F4407F204668D0FDF71AFF8F
:105310000023237723681A6912070FD5DA6810076C
:105320000CD56FF008021A610422DB692277990715
:1053300020465AD0FDF706FF0023237723681A6919
:10534000D20610D5DA68D0060DD56FF010021A61BA
:105350000822DB69227713F4407F20464BD0FDF70B
:10536000F1FE0023237723681A69D10708D5DA688C
:10537000D20705D56FF0010220461A61FDF7A6FE9F
:1053800023681A69100608D5DA68110605D56FF08A
:10539000800220461A6100F0AEF923681A695206AD
:1053A00008D5DA68500605D56FF0400220461A612C
:1053B000FFF785FF23681A69910622D5DA689206FD
:1053C0001FD56FF020022046BDE810401A6100F0A2
:1053D00091B9FFF772FF2046FFF770FF83E7FFF7F1
:1053E0006CFF2046FFF76AFF92E7FFF766FF204653
:1053F000FFF764FFA0E7FFF760FF2046FFF75EFFBF
:10540000AFE710BD1A4A036890420AD0B0F1804F4E
:1054100007D0A2F59432904203D002F58062904208
:1054200015D14A6823F070031343114A90420AD001
:10543000B0F1804F07D0A2F59432904203D002F52C
:105440008062904203D1CA6823F4407313434A69CF
:1054500023F08003134303608B68C3620B6883628D
:10546000034B984204BF0B690363012343617047F8
:10547000002C014010B50446A0B190F83D3003F077
:10548000FF021BB980F83C20FDF78EFF0223206845
:1054900084F83D30211DFFF7B5FF0123002084F87B
:1054A0003D3010BD012010BD10B50446A0B190F8EC
:1054B0003D3003F0FF021BB980F83C20FFF743FEAC
:1054C0000223206884F83D30211DFFF79BFF012354
:1054D000002084F83D3010BD012010BD70B5046A75
:1054E000124E24F001040462B0428469056A0AD0B5
:1054F000B0F1804F07D0A6F59436B04203D006F540
:105500008066B0420FD124F0030422431B0122F035
:10551000F002DBB225F00A0501F00A011A43294323
:105520008261016270BD44F00102EFE7002C01408E
:10553000F8B590F83C300446012B0D464FF00200C0
:1055400019D0012384F83D0084F83C30A2B9CB681F
:10555000206806C9FFF7C2FF2368A9689A6922F08C
:105560000C029A619A690A439A610123002084F827
:105570003D3084F83C00F8BD042A8E68236882C957
:10558000E8681FD11A6A000322F010021A629A69B1
:105590001D6A22F4407242EA072280B222F470426D
:1055A0000901024301F0A00125F0A00001439A6126
:1055B00019629A6922F440629A619A6942EA06265F
:1055C0009E61D2E7082A1A6A1CD122F480721A62FC
:1055D000DA69000122F003021D6A3A43C0B222F0E8
:1055E000F0020902024301F4007125F40070014346
:1055F000DA611962DA6922F00C02DA61DA691643BB
:10560000DE61B2E722F480521A62DA69000322F402
:1056100040721D6A42EA072222F4704280B20903F6
:10562000104301F4005125F400521143D86119626E
:10563000DA6922F44062DA61DA6942EA0626DFE7D3
:1056400010B50124036A8C4023EA04030362036A51
:105650008A401A43026210BD10B504460C290DD8C9
:10566000DFE801F0070C0C0C170C0C0C1C0C0C0CDC
:1056700021000268D36843F00203D360206801224E
:10568000FFF7DEFF22680020136843F00103136078
:1056900010BD0268D36843F00403EEE70268D368E4
:1056A00043F00803E9E70268D36843F01003E4E736
:1056B00090F83C3010B5012B4FF0020318D080F861
:1056C0003D3003680C685A68496822F070025A60DD
:1056D0005A6822435A609A6822F080029A609A6857
:1056E0000A439A60012380F83D30002380F83C3063
:1056F000184610BD704770472DE9F0470568C2682D
:105700002B69016923F4405313432B618368EA68D2
:105710000B43416922F4B05222F00C020B431343B5
:10572000EB606B69826923F4407313436B61404BF8
:1057300081469D424FF0190446D1FFF75FFC04FB00
:1057400000F3D9F804604FF06408B600B3FBF6F339
:10575000B3FBF8F31E01FFF751FC6043D9F80430A6
:105760009B00B0FBF3F7FFF749FC6043D9F8043026
:105770009B00B0FBF3F3B3FBF8F308FB13731B01BF
:105780003233B3FBF8F303F0F007FFF737FC604365
:10579000D9F804209200B0FBF2FAFFF72FFC604327
:1057A000D9F804309B00B0FBF3F3B3FBF8F308FB2C
:1057B00013A31B013233B3FBF8F303F00F033B4396
:1057C0003344AB60BDE8F087FFF708FC04FB00F34F
:1057D000D9F804604FF06408B600B3FBF6F3B3FBEE
:1057E000F8F31E01FFF7FAFB6043D9F804309B0081
:1057F000B0FBF3F7FFF7F2FB6043D9F804309B00EE
:10580000B0FBF3F3B3FBF8F308FB13731B01323364
:10581000B3FBF8F303F0F007FFF7E0FB6043D9F8C0
:1058200004209200B0FBF2FAFFF7D8FBB7E700BF05
:1058300000380140F8B504460E4617461D4621685B
:105840000B6836EA030301D10020F8BD6B1CF7D0CA
:1058500095B923680320DA6822F4D072DA605A69B5
:1058600022F001025A61202384F8393084F83A305A
:10587000002384F83830F8BDFDF76CFFC01B85426B
:10588000DDD2E6E710B5044640B390F8393003F0B6
:10589000FF021BB980F83820FDF7DEFE24232268C2
:1058A00084F83930D368204623F40053D360FFF7DF
:1058B00023FF236800201A6922F490421A615A6972
:1058C00022F02A025A61DA6842F40052DA60202398
:1058D000E06384F8393084F83A3010BD012010BDFF
:1058E0002DE9F0411F4690F839300446202B0D4633
:1058F00090464ED1002949D0002A47D090F8383040
:10590000012B46D0012380F838300023C3632123C4
:1059100080F83930FDF71EFF0646A4F82480A4F86D
:105920002680E38C9BB26BB93B4632464021204631
:10593000FFF780FFA8B9202384F8380084F83930B5
:10594000BDE8F081E38C3246013B9BB2E384A3685F
:105950008021B3F5805F20463B460ED1FFF76AFFFA
:1059600010B10320BDE8F0812B882268C3F308033F
:105970005360236943B90235D3E7FFF75BFF002883
:10598000EFD123682A785A600135CAE70120BDE8C3
:10599000F0810220BDE8F08184B001A880E80E000B
:1059A00004B000207047B0F840309BB243F43F434E
:1059B000A0F8403000207047B0F8403023F4745312
:1059C0005B045B0CA0F8403000207047002070475B
:1059D00084B010B503AC84E80E00BDE8104000228E
:1059E0000123A0F84030A0F84020A0F84420A0F8FF
:1059F0005020B0F8403004B09BB243F43F43A0F8CD
:105A0000403010467047000070B5CB780A78032B01
:105A10000FD8DFE803F00264505930F8223023F445
:105A2000EC4323F070031B041B0C43F4007320F8B9
:105A3000223040F60F730C7830F8242044F40045EF
:105A400045F080051A402A4320F824208A7A0D78F0
:105A5000002A40F097804C788A88002C4AD0B0F811
:105A600050405208A4B204EBC50400EB44045200B9
:105A7000C4F800240C7830F82420520608D530F8F9
:105A80002420134043F4004343F0C00320F82430A3
:105A90000A7830F8223023F4E04323F040031B045B
:105AA0001B0C83F0200343F4004343F0800320F8F1
:105AB0002230002070BD30F8223023F4EC4323F074
:105AC00070031B041B0CB2E730F8223023F4EC43C4
:105AD00023F070031B041B0C43F4C063A7E730F8EA
