:020000040800F2
:1000000000500020493B0008DD080008E108000816
:10001000E3080008E5080008E70800080000000001
:10002000000000000000000000000000E9080008D7
:10003000EB08000800000000ED080008EF080008C9
:10004000913B0008913B0008913B0008913B000860
:10005000913B0008913B0008913B0008913B000850
:10006000913B0008913B0008913B0008913B000840
:10007000913B0008913B0008913B0008913B000830
:10008000913B0008913B0008913B0008913B000820
:10009000F5080008913B0008913B0008913B0008DF
:1000A000913B0008913B0008913B0008913B000800
:1000B000010900080D090008913B0008913B000868
:1000C000913B0008913B0008913B0008913B0008E0
:1000D000913B0008913B0008913B0008913B0008D0
:1000E000913B0008913B0008913B00080000000094
:1000F0000000000000000000000000000000000000
:0C01000000000000000000005FF808F1A3
:10010C0010B5054C237833B9044B13B10448AFF345
:10011C0000800123237010BD3C0300200000000070
:10012C00BC45000808B5034B1BB103490348AFF3AA
:10013C00008008BD0000000040030020BC45000802
:10014C0010F8012B11F8013B012A28BF9A42F7D075
:10015C00D01A704708B5094B1A786AB90121197081
:10016C005A211A6159605A6105490C22054802F05E
:10017C009BFF044802F0A6FF012008BDF0050020FB
:10018C0000000020CC08002038B5154C2578EDB9BE
:10019C0001224FF48071134800F0EEFE012000F0B4
:1001AC0081FD114803F0A2FD012000F07BFD2A46E1
:1001BC004FF480710B4800F0DFFE2378013323707D
:1001CC002378002B0CBF0120022038BD0022052112
:1001DC00064B22701A705A6019615961F0E700BF22
:1001EC005803002000080140E4450008F0050020F9
:1001FC00154B03F59472C3F8A8218022A3F8AC2107
:10020C00002203F11801A3F8AE21A3F8B021A3F842
:10021C00B421A3F8B221C3F818114FF48071A3F8DC
:10022C001C110521A3F81E21A3F82021A3F82421D9
:10023C00A3F8222119615961D3F818111A705A6068
:10024C000A70A3F81E217047F005002038B505464A
:10025C000446207808B9284638BD03F04FFD04F851
:10026C00010BF6E70023194630B5094AB2F81E0116
:10027C009CB280B2844203F1010504D3A2F81E1192
:10028C00A2F8221130BD9BB2134419762B46EDE730
:10029C00F005002000232DE9F04F624CA0F8AE31A0
:1002AC00256885B006468946A0F8B0316DB10220AC
:1002BC002568002D00F08E80012840F083800023FB
:1002CC00D6F818212360137072E02A46D0F8187102
:1002DC00DFF858B100953B7883B1092D02D10DE0C0
:1002EC0007F8012B97F800800192404603F070FC50
:1002FC00019A0028F4D1B8F1000F27D10023CBF8D4
:10030C000030494B1D70002D51D0484B484D18689A
:10031C00FFF79CFF95E80F0084E80F00103520686C
:10032C000028C4D0414B10351968FFF709FF00288D
:10033C0041D1237B19EA030F42D03E4B1B78012B92
:10034C00B5D13D4803F0D2FC022031E0394680465D
:10035C0001354BF8047BEDB20F4611F8013B5BB154
:10036C00009878B9184603920291019303F030FC7F
:10037C00019B0299039A28B1B8F1000FABD08AF80F
:10038C000020A8E7222B0CD1B8F1000F08BFBA4609
:10039C00009B8AF8002083F0010300934FF00108C2
:1003AC00DAE7B8F1000FD7D00AF8013BD4E7012007
:1003BC0005B0BDE8F08F15E90F0084E80F00AEE73B
:1003CC00012075E7184A6368184910789847012886
:1003DC00EED174E7B9F1010FE9D14A464FF48071BF
:1003EC00164800F0C9FD484600F05CFC144803F0C8
:1003FC007DFC484600F056FC2A464FF480710F48AD
:10040C0000F0BAFDB6F81E21B6F81C3192B29BB2C0
:10041C009A42CCD3B6F81C3148469BB2A6F81E3192
:10042C00C6E700BF84030020590300205C030020B2
:10043C0034460008F0050020F4450008000801408F
:10044C00F645000808B50548054B036000F0A4FC10
:10045C0018B1BDE8084000F053B908BDA80700204A
:10046C00003002400268084B82B09A420AD1A3F5D0
:10047C0000535A6942F040025A615B6903F0400331
:10048C000193019B02B070470030024010222DE90D
:10049C00F04188B00DEB0200002103F0C3FB344B9C
:1004AC00344D9A69344C42F010029A619A6928468C
:1004BC0002F010020092009A9A694FF4885142F0AF
:1004CC0020029A619A69032602F020020192019A95
:1004DC009A694FF0010842F004029A619A69002768
:1004EC0002F004020292029A9A6942F008029A619E
:1004FC009B69002203F008030393039B00F03CFD6F
:10050C00002220464FF4807100F036FD4FF460431A
:10051C0004A91A480493059600F04EFC48F23C03DB
:10052C0004A920460493059600F046FC4EF63F6362
:10053C0004A928460493059600F03EFC02264FF4CD
:10054C00885304A928460493CDF81480069707967F
:10055C0000F032FC4FF4807304A920460493CDF8CC
:10056C0014800697079600F027FC08B0BDE8F081D0
:10057C0000100240000C0140000801400010014036
:10058C0008B50C480C4BDFF834E04FF4804280E89F
:10059C000840002302618360C36043618361C361CF
:1005AC00036200F0EFFC18B1BDE8084000F0A8B8F9
:1005BC0008BD00BFB007002000540040A086010019
:1005CC0010B5044686B01022002102A803F02AFBC5
:1005DC002268114B9A421CD1104C02A9A3691048F5
:1005EC0043F00803A361A36903F008030093009B85
:1005FC00C0230293122303930323059300F0DCFB27
:10060C00E36943F40013E361E36903F4001301931A
:10061C00019B06B010BD00BF00540040001002400A
:10062C00000C0140282270B594B00DEB02000021A3
:10063C0003F0F8FA142210250DEB0200002103F050
:10064C00F1FA2A46002101A803F0ECFA09230A93D7
:10065C004FF4803301240B93022612934FF4801332
:10066C000AA813930E941094119601F0F5F80F2329
:10067C000593802307934FF48063214605A80893C4
:10068C000993069601F0B6FA4FF4800301A804937F
:10069C00019501F093FB01F06BFA14B070BD0000F2
:1006AC0008B500F0DBFAFFF7BDFFFFF7EFFEFFF731
:1006BC0067FFFFF7C7FE03F041F800F04DF900F0BB
:1006CC00A1F900F04FFA0C4800F080F841F28830A4
:1006DC0000F0E8FA094C084D1021204600F0B6F85D
:1006EC00204600F0BCF86862034800F091F841F233
:1006FC00883000F0D7FAEFE79403002004080020BC
:10070C00704701234372026802B9704722EA030260
:10071C005B0013F0FF03026008BF0123F3E7FFF750
:10072C00F0BF00002DE9F04385B005466A466E46E1
:10073C00224B03F10807144618685968083303C4A0
:10074C00BB422246F7D118689B882060A380012405
:10075C001B4FDFF87080DFF870906C722B6813B948
:10076C0005B0BDE8F0832340082B0BD0102B1CD018
:10077C002B6823EA0403640014F0FF042B6008BF09
:10078C000124EBE7012387F826313B78012B18BFB6
:10079C00022388F8003098F800103846FFF77AFDED
:1007AC000128F8D1FFF75EFDE2E70E2231464846FC
:1007BC0002F07AFC484602F085FCD9E7A346000813
:1007CC00F0050020C0030020CC0800200223837217
:1007DC0004230372C37501230A4A80F82230426055
:1007EC000023032280F82030C272074B8275072247
:1007FC00C36118230275054A80F823300261FFF7A4
:10080C00F7BC00BF2B070008310700080F070008D2
:10081C0070B5054600240C266A6A02B970BD06FB49
:10082C0004F16818C37A134002D06B5043689847A0
:10083C0006FB0453DA7A6B6A022C23EA020398BF94
:10084C0001346B6294BFE4B20024E5E7EFF310834C
:10085C0072B602680A44026003B962B67047024677
:10086C00EFF3108372B600210068116003B962B611
:10087C007047000010B51446052392B2024801F0EF
:10088C00ADFE204610BD00BF880800200E4B82B084
:10089C009A6942F001029A619A6902F0010200928F
:1008AC00009ADA6942F08052DA61DB69074A03F098
:1008BC0080530193019B536823F0E06343F0007372
:1008CC00536002B0704700BF0010024000000140AE
:1008DC0001F064BAFEE7FEE7FEE7FEE770477047FB
:1008EC00704700F0CDB90000014800F0D9BC00BF42
:1008FC00C0140020014801F098BB00BF480800203C
:10090C00014801F092BB00BF080800200F4B1A6889
:10091C0042F001021A6059680D4A0A405A601A687E
:10092C0022F0847222F480321A601A6822F4802237
:10093C001A605A6822F4FE025A604FF41F029A6041
:10094C004FF00062034B9A60704700BF00100240EA
:10095C000000FFF800ED00E010B500248AB0102272
:10096C00002102A803F05EF91022214606A800948B
:10097C00019403F057F94FF08043214880E81800A8
:10098C004FF6FF73C360802384600461836101F0C0
:10099C0027FC08B1FFF7B4FE4FF4805302A91848A6
:1009AC00029301F084FA08B1FFF7AAFE144801F093
:1009BC0031FC08B1FFF7A4FE0023694610480093F0
:1009CC00019301F0F3FC08B1FFF79AFE02230693A2
:1009DC00012300220793032306A9094808920993CF
:1009EC0001F05CFC08B1FFF78BFE042206A9044859
:1009FC0001F054FC08B1FFF783FE0AB010BD00BF34
:100A0C004808002010B500248AB01022002102A84A
:100A1C0003F008F91022214606A80094019403F073
:100A2C0001F92148214B846080E818004FF6FF73D0
:100A3C00C36080230461836101F0D2FB08B1FFF72E
:100A4C005FFE4FF4805302A91748029301F02FFA6E
:100A5C0008B1FFF755FE144801F0DCFB08B1FFF7B5
:100A6C004FFE0023694610480093019301F09EFC51
:100A7C0008B1FFF745FE02230693012300220793DA
:100A8C00032306A908480892099301F007FC08B152
:100A9C00FFF736FE042206A9034801F0FFFB08B15C
:100AAC00FFF72EFE0AB010BD08080020000400401D
:100ABC00102210B5044688B000210DEB020003F0A3
:100ACC00B1F82368B3F1804F23D103F50433DA690D
:100ADC0004A942F00102DA61DA691F4802F001024E
:100AEC000092009A9A6942F004029A619B6903F0A1
:100AFC0004030193019B0323049300F05DF900228E
:100B0C001C20114600F0F2F81C2000F023F908B06C
:100B1C0010BD124A9342FAD1114B04A9DA690E485E
:100B2C0042F00202DA61DA6902F002020292029ADF
:100B3C009A6942F004029A619B6903F004030393DF
:100B4C00039BC023049300F037F900221D201146AB
:100B5C0000F0CCF81D20D8E700080140000400404C
:100B6C000010024008B54FF4E13E0A480A4B0C2233
:100B7C0080E80840002342618360C36003618361A5
:100B8C00C36101F0FDFC18B1BDE80840FFF7B8BD2A
:100B9C0008BD00BF880800200038014010B504468D
:100BAC0086B01022002102A803F03CF82268174BF3
:100BBC009A4228D103F558439A6902A942F480421B
:100BCC009A619A69124802F480420092009A9A69DA
:100BDC0042F004029A619B6903F004030193019BA8
:100BEC004FF400730293022303930323059300F045
:100BFC00E3F84FF480630293002302A904480393A3
:100C0C00049300F0D9F806B010BD00BF00380140C5
:100C1C000008014038B50E4B054618784FF47A732E
:100C2C00B3FBF0F30B4A1068B0FBF3F000F09EF846
:100C3C00044658B90F2D09D8024629464FF0FF300B
:100C4C0000F054F8044B20461D6038BD012038BD1F
:100C5C00100000200C00002014000020074A08B5EA
:100C6C001368032043F01003136000F02DF80020EC
:100C7C00FFF7D0FFFFF70AFE002008BD002002405E
:100C8C00034A044B11681B780B441360704700BF78
:100C9C00C808002010000020014B1868704700BFE6
:100CAC00C808002038B50446FFF7F6FF0546631C5C
:100CBC001EBF044B1B78E418FFF7EEFF401B844269
:100CCC00FAD838BD10000020074A0002D36800F49F
:100CDC00E06023F4E0631B041B0C43F0BF6343F49C
:100CEC0000330343D360704700ED00E0174B30B581
:100CFC00DC68C4F30224C4F10703251D042B28BFB0
:100D0C000423062D4FF0010598BF002405FA03F3C8
:100D1C0003F1FF3388BF033C1940A14005FA04F4EA
:100D2C00013C2240002842EA01024FEA0212AFBF06
:100D3C0000F16040064B00F00F00D2B2A5BFD2B25A
:100D4C0000F561401A5480F8002330BD00ED00E03E
:100D5C0014ED00E00123420900F01F0003FA00F03B
:100D6C00014B43F82200704700E100E00138B0F17C
:100D7C00807F0AD2F021064B064A586082F8231075
:100D8C000020072298601A6070470120704700BF4E
:100D9C0010E000E000ED00E010B5044650B14379DE
:100DAC0003F0FF0213B90271FFF75CFB0123002073
:100DBC00637110BD012010BD2DE9F74F00221646BE
:100DCC00654BDFF8A4E1DFF8A4C14FF001080C6813
:100DDC0008FA06F808EA0404A0457FD14D68122DE4
:100DEC0000F0AF8000F28880022D00F0A7807CD844
:100DFC00002D00F08E80012D00F09E804FF00F0929
:100E0C00FF2C93BF824606F18045083DD0F800B018
:100E1C0092BFB500D0F804B0AD0009FA05F82BEA82
:100E2C00080802FA05F588BF00F1040A48EA05052E
:100E3C00CAF80050D1F804A01AF0805F4ED0474D8C
:100E4C00464FAD6926F0030845F00105BD61BD694B
:100E5C0008F1804805F00105019508F5803806F089
:100E6C00030B019D4FEA8B0BD8F8085009FA0BF9CC
:100E7C0025EA09093A4DA84268D005F58065A842D3
:100E8C0066D005F58065A84264D005F58065A8425A
:100E9C000CBF0325042505FA0BF545EA0905C8F82E
:100EAC0008501D681AF4803F14BF2543A5431D60EC
:100EBC005D681AF4003F14BF2543A5435D609D682F
:100ECC001AF4801F14BF2543A5439D60DD681AF4F6
:100EDC00001F14BF2C4325EA0404DC600136102EDD
:100EEC007FF473AF03B0BDE8F08F032D22D0112D2A
:100EFC0084D1CA68043281E71A4FBD4209D012D896
:100F0C00DFF86C904D4504D009F580394D457FF4E0
:100F1C0075AF8A68C2B1012A0CBFC0F81080C0F846
:100F2C00148008226AE77545F3D06545F1D0DFF8E7
:100F3C004490EBE7002261E7CA685FE7CA680832B1
:100F4C005CE7CA680C3259E7042257E70025A2E790
:100F5C000125A0E702259EE7000401400010024095
:100F6C000008014000002110000031100000321078
:100F7C0000001110000022100AB101617047090431
:100F8C00FBE7000038B5044608B9012038BD90F8DD
:100F9C003D3003F0FF021BB980F83C20FFF710FB3B
:100FAC002423226884F83D30136823F00103136076
:100FBC0000F0D2FE63682F4A934230D82E4A9042FA
:100FCC00E3D92E4A2168B0FBF2F24A6001320A6280
:100FDC00284A0138934232D85B00B0FBF3F0431C33
:100FEC00C3F30B03042B38BF0423CB61226AE369E0
:100FFC00002013430B60E268236913438B60A269E2
:10100C0063691343CB600B6843F001030B6020232F
:10101C00206484F83D30206384F83E0038BD184AC3
:10102C009042B2D9154D4FF49672B0FBF5F521688C
:10103C006A434D604FF47A75B2FBF5F2C6E7A268CD
:10104C0052B903EB4303B0FBF3F0431CC3F30B03A4
:10105C006BB143F40043C8E719225343B0FBF3F0E0
:10106C00431CC3F30B0313B143F44043BDE701230B
:10107C00BBE700BFA08601007F841E0040420F002A
:10108C00FF083D002DE9F041044686B0002860D0F1
:10109C0090F8293403F0FF021BB980F8282402F0E1
:1010AC0025FC254603236E4655F8100B84F829348D
:1010BC0001F000FB0FCD0FC62B6804F10408336060
:1010CC0098E80E00206801F0E5FA0021206801F094
:1010DC00FBFA0021234622460126084604F110059E
:1010EC0082F82810918601310F2982F8296082F844
:1010FC002B009063D063106402F12002F0D1002227
:10110C00174683F828229A8601320F2A83F829720F
:10111C0083F82B72C3F83872C3F83C72C3F8407270
:10112C0003F12003EDD16E460FCD0FC62B68336053
:10113C0098E80E00206801F0C9FA012384F82470A5
:10114C00206884F8293401F099FD002006B0BDE830
:10115C00F0810120FAE790F8283410B5012B0446F1
:10116C000ED0012180F8281402F0E7FC206801F071
:10117C0083FD206801F095FA002084F8280410BD46
:10118C00022010BD90F8282410B5012A04460BD07B
:10119C00012280F8282484F82410006801F066FDF0
:1011AC00002084F8280410BD022010BD38B5044678
:1011BC0048B2002801F07F05B5BF04EB451104EBE4
:1011CC004111283101F50A71C00F0D704870CB70B8
:1011DC0094F828340A61012B09D00123206884F883
:1011EC00283401F08FFA002084F8280438BD02203E
:1011FC0038BD4BB2002B01F07F02B5BF00EB4211A2
:10120C0000EB4111283101F50A71DB0F10B50A70A2
:10121C004B7090F828340446012B09D0012380F838
:10122C002834006801F0E0FB002084F8280410BD8D
:10123C00022010BD70B5002601F07F014D0144194C
:10124C0084F8281205F50A710144C4F83C22C4F84C
:10125C004032C4F8446284F82962006801F028FD29
:10126C00304670BD01F00F0100EB4111B1F84402A2
:10127C00704701F07F0170B54D01441923640026BD
:10128C00012384F8281005F128010144E263666407
:10129C0084F82930006801F00BFD304670BD000069
:1012AC002DE9F3470446006801F0EAFC000400F164
:1012BC009880206801F0E4FC41050FD52268204697
:1012CC00B2F8443023F480631B041B0CA2F84430A6
:1012DC0002F043FB00212046FFF754FF206801F089
:1012EC00CFFC470408D52268B2F8443023F480437D
:1012FC001B041B0CA2F84430206801F0C1FC8604CE
:10130C0008D52268B2F8443023F400531B041B0C9C
:10131C00A2F84430206801F0B3FCC5041CD5226847
:10132C002046B2F8403023F004031B041B0CA2F837
:10133C004030B2F8403023F008031B041B0CA2F819
:10134C00403002F027FB2268B2F8443023F480537B
:10135C001B041B0CA2F84430206801F091FC000522
:10136C001DD52068B0F840309BB243F00803A0F8BC
:10137C004030B0F8443023F400631B041B0CA0F87D
:10138C004430B0F840309BB243F00403A0F8403036
:10139C0001F076FCC10402D4204602F0EBFA20687E
:1013AC0001F06EFC82050BD522682046B2F8443061
:1013BC0023F400731B041B0CA2F8443002F0C9FA8E
:1013CC00206801F05DFCC30508D52268B2F84430F2
:1013DC0023F480731B041B0CA2F8443002B0BDE84C
:1013EC00F0870023C84FDFF82483DFF82493ADF88F
:1013FC000430ADF806302068B0F844309BB2ADF83C
:10140C0004301B047FF555AFBDF8045015F00F05E3
:10141C0040F0AB80BDF80410038811F010019BB2B2
:10142C0026D13B400380B0F8503094F828209BB272
:10143C0003EBC20300EB4300D0F80434E26BC3F3BC
:10144C00090363641344E363204602F07BFA94F8C7
:10145C002430002BCFD0226C002ACCD194F824302D
:10146C00216843F08003A1F84C3084F82420C2E7B3
:10147C00ADF80630BDF806301A051FD5B0F850305F
:10148C0094F828229BB203EBC20300EB4303D3F87E
:10149C000C34B4F82C22C3F30903C4F8443204F21C
:1014AC002C4101F005FD22682046138823F07003BF
:1014BC001B051B0D138002F037FA9CE7BDF80630B4
:1014CC001B0498D5038823F070031B051B0D0380A8
:1014DC00B0F8503094F828229BB203EBC20300EB17
:1014EC004303D3F80C34C3F30903C4F8443263B197
:1014FC00B4F82C22D4F83C1201F0DAFCD4F83C32CB
:10150C00D4F844221344C4F83C320021204602F0A3
:10151C0011FA2268D4F83852B2F850103E2D89B224
:10152C0001F1060102F5806017D9C5F34F13EE06E1
:10153C0004BF03F1FF339BB249EA83239BB240F80B
:10154C00113013889BB203EA080383F4405343F42D
:10155C00004343F0800313804DE7C5F34F03ED07C1
:10156C0044BF01339BB29B02E8E730F825309BB2B5
:10157C00ADF80630BDF8063019043FD530F82530EB
:10158C004FEA451A23F070031B051B0D20F825307C
:10159C0004EB0A0191F83232002B74D1B0F85030C0
:1015AC0091F828229BB2063303EBC20300EB4303F2
:1015BC00D3F80064C6F3090636B1B1F82C223346D1
:1015CC00D1F83C1201F074FC04EB0A01D1F844325E
:1015DC00D1F83C223344C1F84432D1F84032324481
:1015EC00C1F83C2223B1D1F83802864280F08680C3
:1015FC00A2449AF82812204602F09CF9BDF8063055
:10160C001A067FF5F8AE20686E0130F82530A11966
:10161C009BB23B4020F8253091F832300235002B3C
:10162C0078D1B0F8503091F828209BB2023303EBFC
:10163C00C20300EB4303D3F8003404EB4515C3F3AA
:10164C0009036B601BB18A8DC96B01F01FFB22680B
:10165C002644B2F8503096F828109BB2023303EBB4
:10166C00C10302EB4303D3F80024F36BC2F309026A
:10167C0072641A44336CF2632046002B40F0858070
:10168C0002F060F9B7E691F8283230F82320DB003D
:10169C0012F4804FB0F8502092B221D00232134491
:1016AC0000EB4303D3F80064C6F3090636B13346A6
:1016BC00B1F82E22D1F83C1201F0FAFB04EB0A032C
:1016CC0093F82812226832F8213023F0F0031B051E
:1016DC001B0D43F4004343F0C00322F8213073E7A1
:1016EC000632134400EB4303D3F80064C6F3090637
:1016FC00002EE3D03346B1F83022DBE791F8281204
:10170C002046FFF797FD79E70F8FFFFF8FBFFFFF95
:10171C000080FFFF91F8283030F82320DB0012F016
:10172C00400FB0F8502092B220D00232134400EB9C
:10173C004303D3F8003404EB4515C3F309036B6082
:10174C001BB1CA8DC96B01F0A1FAA31993F828102B
:10175C00226832F8213023F0F0031B051B0D43F4F3
:10176C00404343F0800322F8213070E706321344E3
:10177C0000EB4303D3F8003404EB4515C3F3090322
:10178C006B60002BE1D00A8EDCE7FFF772FD32E6CE
:10179C00012238B54BB2002B01F07F05B5BF00EB31
:1017AC00451100EB4111283101F50A71DB0FEDB247
:1017BC008A700D704B7090F82834044693420ED00A
:1017CC0080F82824006801F0DDF925B904F22C41D9
:1017DC00206801F059FA002084F8280438BD022052
:1017EC0038BD38B500244BB2002B01F07F02B5BFD9
:1017FC0000EB421100EB4111283101F50A71DB0FAE
:10180C008C700A704B7090F828340546012B09D067
:10181C00012380F82834006801F0E6F985F82844A3
:10182C00204638BD022038BD11F0800F1BBF01F0DF
:10183C007F0100EB411000EB4110283008BF00F590
:10184C000A701AB982728380002070470122C3800B
:10185C001B0C82720381F7E703682DE9F341DB0768
:10186C00054610D42B689F075ED42B68190700F12E
:10187C0095802B685A0700F1BF80EA69002A40F076
:10188C002D81002014E0904C636803F00C03042BB2
:10189C0007D0636803F00C03082B0CD16368DE03DC
:1018AC0009D523689C03DDD56B68002BDAD10120A8
:1018BC0002B0BDE8F0816B68B3F5803F10D12368AE
:1018CC0043F480332360FFF7E7F906462368980357
:1018DC00C8D4FFF7E1F9801B6428F7D90320E7E7A8
:1018EC009BB9236823F480332360236823F480237B
:1018FC002360FFF7D1F9064623689903B2D5FFF7A9
:10190C00CBF9801B6428F7D9E8E7B3F5A02F23683F
:10191C0003D143F480232360D1E723F48033236085
:10192C00236823F48023CDE7674C636813F00C0F16
:10193C0007D0636803F00C03082B10D16368DA033B
:10194C000DD423689B0702D52B69012BAFD12368DB
:10195C006A6923F0F80343EAC203236085E72A6926
:10196C005A4B6AB101221A60FFF796F906462368B2
:10197C009F07ECD4FFF790F9801B0228F7D9ADE74D
:10198C001A60FFF789F90646236898077FF56DAF53
:10199C00FFF782F9801B0228F6D99FE7AA694A4C07
:1019AC004B4BDAB101221A60FFF776F90646636AEF
:1019BC009B070DD54FF4FA52464B1B68B3FBF2F361
:1019CC00019300BF019B5A1E0192002BF9D150E7E5
:1019DC00FFF762F9801B0228E9D97FE71A60FFF74D
:1019EC005BF90646636A9F077FF543AFFFF754F92F
:1019FC00801B0228F6D971E7334CE369D80024D454
:101A0C000127E36943F08053E361E36903F08053FA
:101A1C000093009B304E3368D90518D5EB68012B29
:101A2C0026D1236A43F001032362FFF735F941F213
:101A3C0088368046236A9B073FD5002F3FF41DAFA5
:101A4C00E36923F08053E36117E70027E2E733688B
:101A5C0043F480733360FFF71FF980463368DA056F
:101A6C00DCD4FFF719F9A0EB08006428F6D935E7A8
:101A7C00ABB9236A41F2883823F001032362236A4D
:101A8C0023F004032362FFF707F90646236A98073D
:101A9C00D3D5FFF701F9801B4045F7D91EE7052B7D
:101AAC00236A03D143F004032362BAE723F0010352
:101ABC002362236A23F00403B6E7FFF7EDF8A0EBEB
:101ACC000800B042B6D909E70010024000004242BB
:101ADC00800442420C00002000700040224C6368DD
:101AEC0003F00C03082B3FF4E2AE00231F4E022A36
:101AFC0033602BD1FFF7D0F80746236899011FD428
:101B0C002B6AB3F5803F05D16268A96822F40032D4
:101B1C000A436260696A62680B4322F474121343CD
:101B2C00636001233360FFF7B7F8054623689A0119
:101B3C003FF5A7AEFFF7B0F8401B0228F6D9CDE66B
:101B4C00FFF7AAF8C01B0228D7D9C7E6FFF7A4F8FD
:101B5C00054623689B017FF594AEFFF79DF8401B6B
:101B6C000228F6D9BAE600BF0010024060004242DB
:101B7C000122014B1A6070474C00424230B5194BA0
:101B8C0087B002AC03F11005224618685968083377
:101B9C0003C2AB421446F7D101238DF80430022363
:101BAC0011498DF805304B6803F00C02082A17D147
:101BBC00C3F3834206A80244DB0312F8102C0CD5A5
:101BCC004B680A48C3F34043504306AA134413F826
:101BDC00143CB0FBF3F007B030BD05485043FAE7B6
:101BEC000248F8E7D44500080010024000127A00C1
:101BFC0000093D00544A2DE9F0411368054603F0F5
:101C0C0007038B420E462AD329688C0734D4CA07A3
:101C1C0047D44D4A136803F007039E42C0F08280FC
:101C2C002A684A4C12F0040F40F08780130706D53F
:101C3C0063682A6923F4605343EAC2036360FFF7C5
:101C4C009DFF6368424AC3F30313D35CD840414BF6
:101C5C0018600020FEF7DEFF0020BDE8F08113685D
:101C6C0023F007030B431360136803F00703994237
:101C7C00CAD00120BDE8F081344B11F0040F1EBF17
:101C8C005A6842F4E0625A60080742BF5A6842F44C
:101C9C0060525A605A68A86822F0F00202435A60F7
:101CAC00B5E76A68294C012A23681CD113F4003F5C
:101CBC00DFD0636841F2883823F003031343636079
:101CCC00FEF7EAFF6B680746012B14D1636803F03B
:101CDC000C03042B9DD0FEF7DFFFC01B4045F5D94C
:101CEC000320BDE8F081022A02D113F0007FDFE768
:101CFC0013F0020FDCE7022B0FD1636803F00C0327
:101D0C00082B86D0FEF7C8FFC01B4045F5D9E7E786
:101D1C00FEF7C2FFC01B4045E2D8636813F00C0FFE
:101D2C00F6D176E7136823F0070333431360136887
:101D3C0003F007039E429CD172E76368E96823F4C1
:101D4C00E0630B43636071E7002002400010024027
:101D5C00B14600080C000020044B054A5B68C3F335
:101D6C000223D35C034A1068D8407047001002402D
:101D7C00C14600080C000020044B054A5B68C3F305
:101D8C00C223D35C034A1068D8407047001002404D
:101D9C00C14600080C0000207047000008B5054B38
:101DAC009B681B0604D5FFF7F7FF8022024B1A70C5
:101DBC0008BD00BF001002400A10024003682DE964
:101DCC00F341D907054620D5354CE369DA0032D406
:101DDC000127E36943F08053E361E36903F0805327
:101DEC000193019B2F4E3368DB0526D5236A13F430
:101DFC00407336D1236A6A6823F440731343236219
:101E0C001FB1E36923F08053E3612868830706D58B
:101E1C00234AA968536823F440430B43536010F0E2
:101E2C0010001BD01E4AE9685368002023F480037D
:101E3C000B43536012E00027D4E7336843F48073FC
:101E4C003360FEF729FF80463368D805CED4FEF701
:101E5C0023FFA0EB08006428F6D9032002B0BDE8EC
:101E6C00F0816A6802F440729342C3D001200E4A9A
:101E7C00236A1060002023F4407110602162D9079E
:101E8C00B8D5FEF709FF41F288380646236A9A074F
:101E9C00B0D4FEF701FF801B4045F7D9DDE700BF4A
:101EAC00001002400070004040044242704790F81D
:101EBC003C3070B5012B4FF002031CD0012280F88E
:101ECC003D30036880F83C209A6822F47F4222F06F
:101EDC0077029A600A68402A79D019D8102A00F043
:101EEC0093800AD8002A00F08980012380F83D30C5
:101EFC00002380F83C30184670BD202A00F08A8000
:101F0C00302AF2D19A6822F0700242F0370236E0A1
:101F1C00702A36D01BD8502A42D0602AE5D11C6AD0
:101F2C004D6824F01004CE681C6299691A6A21F479
:101F3C00704122F0A00242EA051241EA0631996191
:101F4C001A629A6822F0700242F0670217E0B2F54A
:101F5C00805F11D0B2F5005FC7D18A684D689C686C
:101F6C00C9682A4324F47F4442EA012222439A603E
:101F7C009A6842F4804202E09A6822F007029A6062
:101F8C00B3E78A684D689C68C9682A4324F47F4487
:101F9C0042EA012222439A609A6842F07702EEE705
:101FAC004C68CE68196A1D6A21F00A0125F00105FA
:101FBC001D629A69214322F0F00242EA06129A61EC
:101FCC0019629A6822F0700242F05702D7E74C6807
:101FDC00CE68196A1D6A21F00A0125F001051D62FF
:101FEC009A69214322F0F00242EA06129A611962C0
:101FFC009A6822F0700242F04702C0E79A6822F019
:10200C00700242F00702BAE79A6822F0700242F0BE
:10201C001702B4E79A6822F0700242F02702AEE78A
:10202C0070477047704770477047036810B51A695E
:10203C00044691070ED5DA6892070BD56FF00202B1
:10204C001A6101229B6902779B0777D0FFF7EAFFA1
:10205C000023237723681A69500710D5DA685107D3
:10206C000DD56FF004021A6102229B69227713F4DA
:10207C00407F204668D0FFF7D5FF002323772368E5
:10208C001A6912070FD5DA6810070CD56FF0080221
:10209C001A610422DB692277990720465AD0FFF790
:1020AC00C1FF0023237723681A69D20610D5DA689A
:1020BC00D0060DD56FF010021A610822DB69227769
:1020CC0013F4407F20464BD0FFF7ACFF002323775F
:1020DC0023681A69D10708D5DA68D20705D56FF0DD
:1020EC00010220461A61FFF79BFF23681A6910064C
:1020FC0008D5DA68110605D56FF0800220461A6102
:10210C0000F077F923681A69520608D5DA68500688
:10211C0005D56FF0400220461A61FFF785FF236852
:10212C001A69910622D5DA6892061FD56FF0200243
:10213C002046BDE810401A6100F05AB9FFF771FF54
:10214C002046FFF770FF83E7FFF76BFF2046FFF792
:10215C006AFF92E7FFF765FF2046FFF764FFA0E7F1
:10216C00FFF75FFF2046FFF75EFFAFE710BD0000F3
:10217C001A4A036890420AD0B0F1804F07D0A2F5FA
:10218C009432904203D002F58062904215D14A6895
:10219C0023F070031343114A90420AD0B0F1804FE0
:1021AC0007D0A2F59432904203D002F5806290429F
:1021BC0003D1CA6823F4407313434A6923F08003A4
:1021CC00134303608B68C3620B688362034B9842B2
:1021DC0004BF0B690363012343617047002C01406A
:1021EC0010B50446A0B190F83D3003F0FF021BB9C6
:1021FC0080F83C20FEF75CFC0223206884F83D301C
:10220C00211DFFF7B5FF0123002084F83D3010BDE0
:10221C00012010BD10B50446A0B190F83D3003F07C
:10222C00FF021BB980F83C20FFF740FE0223206818
:10223C0084F83D30211DFFF79BFF0123002084F81B
:10224C003D3010BD012010BD70B5046A124E24F053
:10225C0001040462B0428469056A0AD0B0F1804F6F
:10226C0007D0A6F59436B04203D006F58066B0428E
:10227C000FD124F0030422431B0122F0F002DBB245
:10228C0025F00A0501F00A011A4329438261016213
:10229C0070BD44F00102EFE7002C0140F8B590F856
:1022AC003C300446012B0D464FF0020019D001239F
:1022BC0084F83D0084F83C30A2B9CB68206806C98C
:1022CC00FFF7C2FF2368A9689A6922F00C029A6191
:1022DC009A690A439A610123002084F83D3084F8FE
:1022EC003C00F8BD042A8E68236882C9E8681FD1B7
:1022FC001A6A000322F010021A629A691D6A22F40B
:10230C00407242EA072280B222F470420901024371
:10231C0001F0A00125F0A00001439A6119629A69AD
:10232C0022F440629A619A6942EA06269E61D2E7DB
:10233C00082A1A6A1CD122F480721A62DA69000126
:10234C0022F003021D6A3A43C0B222F0F0020902E5
:10235C00024301F4007125F400700143DA61196243
:10236C00DA6922F00C02DA61DA691643DE61B2E74F
:10237C0022F480521A62DA69000322F440721D6A58
:10238C0042EA072222F4704280B20903104301F49E
:10239C00005125F400521143D8611962DA6922F414
:1023AC004062DA61DA6942EA0626DFE790F83C30EF
:1023BC0010B5012B4FF0020318D080F83D300368A4
:1023CC000C685A68496822F070025A605A682243B5
:1023DC005A609A6822F080029A609A680A439A605E
:1023EC00012380F83D30002380F83C30184610BDA6
:1023FC00704770472DE9F0470568C2682B69016981
:10240C0023F4405313432B618368EA680B434169FF
:10241C0022F4B05222F00C020B431343EB606B69B5
:10242C00826923F4407313436B61404B81469D4298
:10243C004FF0190446D1FFF79FFC04FB00F3D9F8C9
:10244C0004604FF06408B600B3FBF6F3B3FBF8F38B
:10245C001E01FFF791FC6043D9F804309B00B0FBE0
:10246C00F3F7FFF789FC6043D9F804309B00B0FB0D
:10247C00F3F3B3FBF8F308FB13731B013233B3FB19
:10248C00F8F303F0F007FFF777FC6043D9F804206A
:10249C009200B0FBF2FAFFF76FFC6043D9F80430FE
:1024AC009B00B0FBF3F3B3FBF8F308FB13A31B0186
:1024BC003233B3FBF8F303F00F033B433344AB600D
:1024CC00BDE8F087FFF748FC04FB00F3D9F8046083
:1024DC004FF06408B600B3FBF6F3B3FBF8F31E0140
:1024EC00FFF73AFC6043D9F804309B00B0FBF3F7DC
:1024FC00FFF732FC6043D9F804309B00B0FBF3F3D8
:10250C00B3FBF8F308FB13731B013233B3FBF8F383
:10251C0003F0F007FFF720FC6043D9F80420920089
:10252C00B0FBF2FAFFF718FCB7E700BF0038014028
:10253C00F8B504460E4617461D4621680B6836EA68
:10254C00030301D10020F8BD6B1CF7D095B92368AB
:10255C000320DA6822F4D072DA605A6922F00102A0
:10256C005A61202384F8393084F83A30002384F8F7
:10257C003830F8BDFEF790FBC01B8542DDD2E6E794
:10258C0010B5044640B390F8393003F0FF021BB984
:10259C0080F83820FEF702FB2423226884F83930B7
:1025AC00D368204623F40053D360FFF723FF23683E
:1025BC0000201A6922F490421A615A6922F02A0208
:1025CC005A61DA6842F40052DA602023E06384F83E
:1025DC00393084F83A3010BD012010BD2DE9F0419E
:1025EC001F4690F839300446202B0D4690464ED1AC
:1025FC00002949D0002A47D090F83830012B46D01A
:10260C00012380F838300023C363212380F839304C
:10261C00FEF742FB0646A4F82480A4F82680E38C3F
:10262C009BB26BB93B46324640212046FFF780FFF8
:10263C00A8B9202384F8380084F83930BDE8F0813B
:10264C00E38C3246013B9BB2E384A3688021B3F553
:10265C00805F20463B460ED1FFF76AFF10B1032086
:10266C00BDE8F0812B882268C3F30803536023690B
:10267C0043B90235D3E7FFF75BFF0028EFD123689E
:10268C002A785A600135CAE70120BDE8F0810220A2
:10269C00BDE8F08184B001A880E80E0004B00020F1
:1026AC007047B0F840309BB243F43F43A0F8403041
:1026BC0000207047B0F8403023F474535B045B0C7B
:1026CC00A0F84030002070470020704784B010B54F
:1026DC0003AC84E80E00BDE8104000220123A0F8F2
:1026EC004030A0F84020A0F84420A0F85020B0F8CA
:1026FC00403004B09BB243F43F43A0F84030104646
:10270C007047000070B5CB780A78032B0FD8DFE840
:10271C0003F00264505930F8223023F4EC4323F0D8
:10272C0070031B041B0C43F4007320F8223040F69A
:10273C000F730C7830F8242044F4004545F08005E4
:10274C001A402A4320F824208A7A0D78002A40F077
:10275C0097804C788A88002C4AD0B0F850405208A8
:10276C00A4B204EBC50400EB44045200C4F80024EA
:10277C000C7830F82420520608D530F82420134069
:10278C0043F4004343F0C00320F824300A7830F8B7
:10279C00223023F4E04323F040031B041B0C83F092
:1027AC00200343F4004343F0800320F82230002040
:1027BC0070BD30F8223023F4EC4323F070031B047B
:1027CC001B0CB2E730F8223023F4EC4323F07003F7
:1027DC001B041B0C43F4C063A7E730F8223023F42E
:1027EC00EC4323F070031B041B0C43F480639CE745
:1027FC00B0F8503052089BB2043303EBC5035200BF
:10280C0000F5806444F81320B0F850200D6992B2A2
:10281C000B7806323E2D02EBC30229D9C5F34F16B5
:10282C00EB0604BF06F1FF339EB26E4B43EA8623E0
:10283C009BB244F812300A7830F822305E040BD583
:10284C0030F8223023F0F0031B051B0D43F44043FA
:10285C0043F0800320F822300A7830F8223023F439
:10286C00804323F070031B041B0C83F4405398E744
:10287C00C5F34F03ED0744BF01339BB29B02D7E76F
:10288C0030F8252022F4F8721205120D42F40142A0
:10289C0042F0800220F82520B0F850200C7892B23B
:1028AC0002EBC402CC8800F580656408640045F82E
:1028BC001240B0F850200C7892B2043202EBC402F1
:1028CC000C896408640045F812404A780C78002A98
:1028DC0047D130F82420550408D530F82420134073
:1028EC0043F4404343F0800320F824300A7830F856
:1028FC0022305C060BD530F8223023F0F0031B0598
:10290C001B0D43F4004343F0C00320F822300A7837
:10291C0030F8223023F0F0031B051B0D43F4004369
:10292C0043F0C00320F8223048F280020C7830F8D3
:10293C00243023F4804323F070031B041B0C83F41A
:10294C004053134320F82430097830F8213023F415
:10295C00E04323F040031B041B0C134320F82130ED
:10296C0025E730F82420520408D530F824201340F1
:10297C0043F4404343F0800320F824300A7830F8C5
:10298C0022305B060BD530F8223023F0F0031B0508
:10299C001B0D43F4004343F0C00320F822300A78A7
:1029AC0030F8223023F0F0031B051B0D43F4404399
:1029BC0043F0800320F8223048F280020C7830F883
:1029CC00243023F4E04323F040031B041B0C13437B
:1029DC0020F82430097830F8213023F4804323F098
:1029EC007003B8E70080FFFF10B58C7A4A780B783B
:1029FC00CCBB02B330F8232052060BD530F8232081
:102A0C0022F0F0021205120D42F4004242F0C00214
:102A1C0020F823200A7830F8223023F4E04323F006
:102A2C0040031B041B0C43F4004343F0800320F8C9
:102A3C002230002010BD30F8232054040BD530F880
:102A4C00232022F0F0021205120D42F4404242F013
:102A5C00800220F823200A7830F8223023F48043B7
:102A6C0023F07003DDE7002A48D130F8232052040C
:102A7C000BD530F8232022F0F0021205120D42F48F
:102A8C00404242F0800220F823200A7830F82230AD
:102A9C005C060BD530F8223023F0F0031B051B0D20
:102AAC0043F4004343F0C00320F822300A7830F896
:102ABC00223023F0F0031B051B0D43F4004343F0BD
:102ACC00C00320F8223048F280020C7830F8243011
:102ADC0023F4804323F070031B041B0C134320F8D6
:102AEC002430097830F8213023F4E04323F04003FC
:102AFC001B041B0C134320F821309AE730F82320D9
:102B0C0052040BD530F8232022F0F0021205120DDE
:102B1C0042F4404242F0800220F823200A7830F838
:102B2C0022305B060BD530F8223023F0F0031B0566
:102B3C001B0D43F4004343F0C00320F822300A7805
:102B4C0030F8223023F0F0031B051B0D43F44043F7
:102B5C0043F0800320F8223048F280020C7830F8E1
:102B6C00243023F4E04323F040031B041B0C1343D9
:102B7C0020F82430097830F8213023F4804323F0F6
:102B8C007003B5E70A788AB9038823F4804323F0ED
:102B9C0040031B041B0C83F4805383F0100343F499
:102BAC00004343F080030380002070474B7883B1CF
:102BBC0030F8223023F4E04323F040031B041B0CB9
:102BCC0083F0100343F4004343F0800320F82230D9
:102BDC00EAE730F8223023F4804323F070031B041F
:102BEC001B0C83F48053EDE74B780A7813B330F861
:102BFC0022305B060BD530F8223023F0F0031B0596
:102C0C001B0D43F4004343F0C00320F822300A7834
:102C1C0030F8223023F4E04323F040031B041B0C58
:102C2C0083F0300343F4004343F0800320F8223058
:102C3C000020704730F822305B040BD530F822307E
:102C4C0023F0F0031B051B0D43F4404343F08003BA
:102C5C0020F822300A7830F8223023F4804323F015
:102C6C0070031B041B0C83F44053DBE711B9802366
:102C7C00A0F84C30002070470020704700207047AF
:102C8C00B0F8440080B270470020704710B50024A3
:102C9C00013300F580605B1000EB4202A34200D1CF
:102CAC0010BD31F8020B22F824000134F6E70000C5
:102CBC0070B50E468A694978054601293369B07AA0
:102CCC0066D19A421C469BBF00231446D21AB361AC
:102CDC0088BFB261A3B210BBB28871692846FFF7F6
:102CEC00D5FFB5F8503032789BB2023303EBC203F8
:102CFC0005EB4303C3F80044327835F8223023F453
:102D0C00E04323F040031B041B0C83F0300343F41B
:102D1C00004343F0800325F82230002070BD327848
:102D2C0035F82210D20011F0400FB5F8501089B2CE
:102D3C001AD002310A4405EB4202C2F8004432892F
:102D4C0071692846FFF7A2FF737832789BB935F882
:102D5C00223023F0F0031B051B0D43F4004343F01A
:102D6C00C00325F82230C7E70A4405EB4202C2F83B
:102D7C000444F288E4E7012BBED135F8223023F06D
:102D8C00F0031B051B0D43F4404343F08003E8E7BD
:102D9C009A4293BF0023D21AB261B36198BF134613
:102DAC00327870BBB5F850103E2B89B201F1060198
:102DBC0001EBC20105F5806018D9C3F34F12DB0695
:102DCC0004BF02F1FF339AB2384B43EA82239BB221
:102DDC0040F81130327835F8223023F4804323F058
:102DEC0070031B041B0C83F4405390E7C3F34F0296
:102DFC00DC0744BF013292B2920292B240F8112029
:102E0C00E8E7B9B9B5F850103E2B89B201F10201CF
:102E1C0001EBC20105F5806428D9C3F34F10DA0623
:102E2C0004BF00F1FF3290B2204A42EA802292B2F3
:102E3C0044F81120727831785ABBB5F850203E2BEB
:102E4C0092B202F1060202EBC10205F5806015D9BF
:102E5C00C3F34F11DC0604BF01F1FF3399B2134BDE
:102E6C0043EA81239BB240F81230B3E7C3F34F021D
:102E7C00D80744BF013292B29202D8E7C3F34F0194
:102E8C00DB0744BF013189B2890289B240F81210C4
:102E9C00A0E7012A9ED1B5F8502092B2023202EB83
:102EAC00C10205EB4202C2F8003493E70080FFFF39
:102EBC0010B50024013300F580605B1000EB42027A
:102ECC00A34200D110BD52F8240021F814000134A3
:102EDC00F6E7D0F818321BB10020C3F81402704783
:102EEC0002207047D0F81C3210B5D0F818425BB1F4
:102EFC0094F80002FF2807D09B6894F80122214621
:102F0C009847FF2384F80032002010BD4323038030
:102F1C00004870475000002043230380004870474E
:102F2C00940000204323038000487047E4000020F5
:102F3C000A23038000487047D800002038B50546A6
:102F4C00D0F8184200F0EEFDD5F81832C4F80C0297
:102F5C004BB1D5F81C3204F50371DB68D4F80402CC
:102F6C009847002038BD022038BD0000F8B50F7816
:102F7C00064617F060030C4623D0202B19D1CA88C3
:102F8C004B78C2B13906D0F818520BD5D0F81C12B8
:102F9C0018468F682946B84729463046E28800F023
:102FAC008AFB06E085F8003285F80122294600F0FC
:102FBC0097FB0020F8BDD0F81C0284681846A04787
:102FCC00F7E74B780A2BF4D101220149E7E700BF60
:102FDC00C103002010B50446812100F03FFD012102
:102FEC00204600F03BFD8221204600F037FDD4F84E
:102FFC00183253B1D4F81C325B689847D4F81802D5
:10300C0000F09AFD0023C4F81832002010BDF8B56A
:10301C00037C04467BBB4FF400730222812100F039
:10302C000DFD4FF4007302220121204600F006FD35
:10303C00082303228221204600F000FD4FF4077084
:10304C0000F076FD0646C4F8180220B30025D4F82B
:10305C001C321B689847277CC6F81452C6F81852C5
:10306C0087B94FF40073D6F804220121204600F0F2
:10307C004BFD3846F8BD40230222812100F0DEFCD6
:10308C004023D0E74023D6F804220121204600F04B
:10309C003BFD2846F8BD0120F8BD19B1C0F81C1243
:1030AC000020704702207047D0F818320020C3F877
:1030BC000812C3F810227047D0F818320020C3F859
:1030CC0004127047D0F8182210B572B1D2F814421D
:1030DC00012364B9C2F814328121B2F81032D2F84B
:1030EC00082200F003FD204610BD022010BD18463A
:1030FC0010BDD0F8182210B562B1047C44B94FF45D
:10310C000073D2F80422012100F0FEFC002010BD57
:10311C004023F6E7022010BD08B580B1D0F8143278
:10312C0013B10023C0F8143209B1C0F810120123F6
:10313C00027080F8FC3100F031FC002008BD022048
:10314C0008BD19B1C0F81412002070470220704756
:10315C0008B500F065FC002008BD08B5D0F81432A5
:10316C000BB9022008BD1B6898470028F9D108BD8F
:10317C0008B5D0F814325B689847002008BD38B504
:10318C0000F502750446284600F065FA012394F810
:10319C000812C4F8F431B4F80E32C4F8F83101F066
:1031AC001F03012B0ED007D3022B10D001F080018E
:1031BC00204600F061FC03E02946204600F0D6F8DA
:1031CC00002038BD2946204600F0CAF9F8E7294608
:1031DC00204600F0DDF9F3E738B50446154611BB7F
:1031EC00D0F8F431032B0FD1D0F80C31D0F81021DA
:1031FC0093420BD99B1A9A4228BF1A46C0F80C313D
:10320C0092B2294600F07BFA002038BDD0F8143277
:10321C001B6923B190F8FC21032A00D19847204662
:10322C0000F075FAF0E7D0F814329B69002BEBD064
:10323C0090F8FC21032AE7D19847E5E770B51346CF
:10324C0004460E4600293DD1D0F8F421022A0FD1B4
:10325C00C569026A954214D9AA1AC261194692B27A
:10326C0000F036FA33461A461946204600F04CFC5C
:10327C0094F80032012B02D1002384F80032002094
:10328C0070BD8369B3FBF2F502FB153565B99A4243
:10329C000AD8D0F8F821934206D22A4600F018FA40
:1032AC00C4F8F8512B46DEE7D4F81432DB682BB1A6
:1032BC0094F8FC21032A01D120469847204600F0BF
:1032CC0031FAD5E7D0F814325B69002BD7D090F8DF
:1032DC00FC21032AD3D19847D1E7002238B5044604
:1032EC0040251146402300F0A9FB2B46C4F8105191
:1032FC0000228021204600F0A1FB012384F8FC3140
:10330C00D4F8183225622BB1D4F8143221795B68C9
:10331C0020469847002038BD01740020704790F873
:10332C00FC3180F8FD31042380F8FC31002070471B
:10333C0090F8FD3180F8FC310020704708B590F80A
:10334C00FC21032A04D1D0F81432DB6903B198476D
:10335C00002008BD10B50446802100F08DFB2046EE
:10336C00BDE81040002100F087BB000037B54B785A
:10337C0004460D46092B79D8DFE813F0C900E500A7
:10338C007800D90078006D000A007800B9008D0033
:10339C004B881A0A013A062A68D8DFE802F0041CA6
:1033AC00296767495200D0F810321B680DF10601ED
:1033BC00207C9847BDF80620002A67D0EB88002BAC
:1033CC0064D09A4228BF1A460146ADF80620204622
:1033DC0000F071F95AE0027CD0F8143232B99B6AD1
:1033EC000DF10600984702234370E3E7DB6AF7E729
:1033FC00DBB2052B3AD8DFE803F003070B0F1317EA
:10340C00D0F810325B68D1E7D0F810329B68CDE76A
:10341C00D0F81032DB68C9E7D0F810321B69C5E769
:10342C00D0F810325B69C1E7D0F810329B69BDE768
:10343C00037CDBB9D0F814320DF106005B6B9847B6
:10344C00B8E7037C93B9D0F814320DF106001B6B6E
:10345C0098470723C8E78B8843B9CB8833B990F8D2
:10346C00FC318D78032B05F07F0503D12046FFF747
:10347C0071FF0BE080F8FE51294600F029FB204635
:10348C0000F045F92DB1022384F8FC31002003B083
:10349C0030BD0123F8E78978304D01292970E5D832
:1034AC0090F8FC31022B0CD0032BDFD1B1B90223E5
:1034BC00416080F8FC31FFF75BFE204600F027F9F5
:1034CC00E4E70029F9D001210323416080F8FC31A5
:1034DC002046FFF742FE0228EFD1C7E741680129D9
:1034EC00EBD0C9B2FFF744FE29786160F0E7CA88D7
:1034FC00012ABBD190F8FC31022B03D0032BB5D1A0
:10350C00011D64E70146002341F8083F5FE790F88E
:10351C00FC31023B012BA9D80123C360D0F8043243
:10352C000BB10323C360022204F10C014FE74B885B
:10353C00012BABD1C4F80432D4F8143229469B6861
:10354C0020469847B9E790F8FC31023B012B8DD807
:10355C004B88012B9AD10023ECE700BFC20300205B
:10356C0038B590F8FC310446032B0D460DD10B7980
:10357C00012B0AD8D0F814329B689847EB8813B902
:10358C00204600F0C4F8002038BDFFF7E3FEFAE750
:10359C0070B50A788E8802F06002202A04460D4627
:1035AC00F3B205D1D0F814329B689847002070BD57
:1035BC004A78012A1CD02AD3032AF7D190F8FC218F
:1035CC00022A40D0032A02D0FFF7C4FEEEE74A8855
:1035DC0022B95E0602D0194600F04EFAD4F8143225
:1035EC0029469B6820469847204600F090F8DDE776
:1035FC0090F8FC21022A26D0032AE5D14A88002A19
:10360C00D4D15906F0D0194600F044FAE6E790F808
:10361C00FC21022A17D0032AD6D103F07F0516F01D
:10362C00800F00EB0515194614BF143505F582758E
:10363C0000F03EFA68B101232B6002222946204695
:10364C0000F039F8B2E75A06B0D0194600F014FA77
:10365C00ACE72860F1E70B7803704B784370CA78BD
:10366C008B7803EB022343804A790B7903EB02231B
:10367C008380CA798B7903EB0223C380704730B502
:10368C0088B105462B1A15F8014BDBB2002CF9D189
:10369C005B00023313800B7003234B700223013841
:1036AC0010F8015F05B930BD5A1CCD54D2B20233AB
:1036BC00DBB28C54F4E71346022210B5C0F8F421A7
:1036CC0083610A46C361002100F010FA002010BD8E
:1036DC0008B513460A46002100F008FA002008BD80
:1036EC001346032210B5C0F8F421C0F808310A467D
:1036FC00C0F80C31002100F007FA002010BD08B50D
:10370C0013460A46002100F0FFF9002008BD08B559
:10371C000423C0F8F43100231A46194600F0E6F9E8
:10372C00002008BD08B50523C0F8F43100231A4663
:10373C00194600F0E9F9002008BD000010B5094C4D
:10374C00002209492046FFF7E7FC08492046FFF70D
:10375C00F8FC20460649FFF7A0FC2046BDE81040C7
:10376C00FFF7F6BCCC080020380100201800002020
:10377C002801002000207047002070472DE9F041FF
:10378C0005460E4601462348FFF796FC2148FFF7F5
:10379C00B0FC0027204CDFF884803268FBB29A42E0
:1037AC0002D80020BDE8F081EA5C0A2A01D00D2A7B
:1037BC0028D108214046FDF749F80021D4F81821FA
:1037CC00B4F822319BB2D154B4F81E31B4F81C11A8
:1037DC009BB289B2013393FBF1F201FB12339BB222
:1037EC00A4F81E31B4F82231B4F81C119BB289B282
:1037FC00013393FBF1F201FB12339BB2A4F822319B
:10380C000137CAE7D4F81811B4F822319BB2CA5464
:10381C00DAE700BFCC080020F005002004080020E7
:10382C0010B5064C002206492046FFF73DFC054921
:10383C002046FFF741FC002010BD00BFCC08002043
:10384C00D80E0020F00A0020122301480B8070478C
:10385C0054010020042301480B80704768010020AC
:10386C0010B5044C0A4604482146FFF708FF2046D1
:10387C0010BD00BFC0120020E246000810B5044C79
:10388C000A4604482146FFF7FAFE204610BD00BF49
:10389C00C0120020F546000810B5044C0A46044836
:1038AC002146FFF7ECFE204610BD00BFC0120020E1
:1038BC000B47000810B5044C0A4604482146FFF794
:1038CC00DEFE204610BD00BFC0120020C946000815
:1038DC0010B5044C0A4604482146FFF7D0FE20469A
:1038EC0010BD00BFC0120020D446000807B50D4B18
:1038FC0002689A4212D103F5DA33DA69142042F4E1
:10390C000002DA610022DB69114603F40003019323
:10391C00019BFDF7EBF91420FDF71CFA03B05DF8E1
:10392C0004FB00BF005C004000F22C41D0F85C04AA
:10393C00FFF725BC00EB4113D3F83C22D0F85C0414
:10394C00FFF74ABC00EB4113DA6BD0F85C04FFF7CD
:10395C0075BCD0F85C04FFF7F1BC10B5044601212E
:10396C00D0F85C04FFF7D8FCD4F85C04BDE8104038
:10397C00FFF7B3BC10B50446D0F85C04FFF7CFFCDE
:10398C00A36923B1024A136943F00603136110BD06
:10399C0000ED00E0D0F85C04FFF7CABC10B50223C0
:1039AC0008224FF0030E04461B491C4880E80E40C9
:1039BC000023C0F85C44C4F820028361C361036235
:1039CC00FDF760FB08B1FCF79BFE002218231146A3
:1039DC00D4F82002FDF728FF582300228021D4F8C8
:1039EC002002FDF721FFC02300228121D4F8200200
:1039FC00FDF71AFF4FF4887300220121D4F820023E
:103A0C00FDF712FF4FF4807300228221D4F82002BC
:103A1C00FDF70AFF002010BD005C0040C014002020
:103A2C0008B5D0F82002FDF796FB03289ABF024B8D
:103A3C00185C022008BD00BF1847000810B51C46D2
:103A4C00D0F8200213462246FDF7B0FB03289ABF9C
:103A5C00014B185C022010BD1847000808B5D0F8BF
:103A6C002002FDF7C6FB03289ABF024B185C02200C
:103A7C0008BD00BF1847000808B5D0F82002FDF7B4
:103A8C0087FE03289ABF024B185C022008BD00BFBA
:103A9C001847000808B5D0F82002FDF7A2FE03284D
:103AAC009ABF024B185C022008BD00BF18470008E3
:103ABC000A06D0F8203245BF01F07F0103EB411319
:103ACC0003EB411393F82A0058BF93F82A0270476E
:103ADC0008B5D0F82002FDF755FB03289ABF024B1E
:103AEC00185C022008BD00BF1847000808B5D0F8C4
:103AFC002002FDF7BEFB03289ABF024B185C022084
:103B0C0008BD00BF1847000808B5D0F82002FDF723
:103B1C0091FB03289ABF024B185C022008BD00BF22
:103B2C001847000808B5D0F82002FDF79BFB08BD2C
:103B3C0000487047C403002070477047002103E021
:103B4C000B4B5B58435004310A480B4B42189A42BA
:103B5C00F6D30A4A02E0002342F8043B084B9A428F
:103B6C00F9D3FCF7D3FE00F00FF8FCF799FD704782
:103B7C0094480008000000203C0300203C03002077
:103B8C0024190020FEE7000070B500250C4E0D4CEA
:103B9C00A41BA410A54209D100F00AFD00250A4E71
:103BAC000A4CA41BA410A54205D170BD56F82530B3
:103BBC0098470135EEE756F8253098470135F2E77E
:103BCC008C4800088C4800088C4800089048000875
:103BDC0010B5044600F006F82044407800F00800C8
:103BEC0010BD0000044B054A1B681B6A002B08BF64
:103BFC001346D3F8EC007047D80200206C0100206B
:103C0C0082B001B901A942B14BB113780B601278A3
:103C1C00101C18BF012002B070471046FBE76FF074
:103C2C000100F8E703460244934200D1704703F8C1
:103C3C00011BF9E770B50E46054618B183690BB93F
:103C4C0000F02AFAAB69AC6813B9284600F024FAE4
:103C5C00234B9C4217D16C68A3891B071DD5236984
:103C6C00DBB1013EA36816F8011F013BA360E9B963
:103C7C00002B2EDA22460A21284600F04DF801309E
:103C8C0011D00A2070BD174B9C4201D1AC68E3E700
:103C9C00154B9C4208BFEC68DEE72146284600F035
:103CAC009BF80028DDD04FF0FF3070BD002B04DAFC
:103CBC00A269934206DB0A2904D023685A1C2260AD
:103CCC001970CFE72246284600F026F80130C9D1FA
:103CDC00E9E70A2023685A1C2260187070BD00BFE7
:103CEC00484800086848000828480008024B01466C
:103CFC001868FFF79FBF00BFD802002010B504461C
:103D0C00FFF770FF2044437803F00303022B08BF36
:103D1C00203C204610BD0000F8B50E461446054662
:103D2C0018B183690BB900F0B7F9214B9C422AD129
:103D3C006C68A369A360A3891A072ED5236963B3A2
:103D4C0023692068F6B2C01A63693746984204DBCF
:103D5C002146284600F036F928BBA3680130013B08
:103D6C00A36023685A1C22601E706369984204D0B9
:103D7C00A389DB0719D50A2E17D12146284600F056
:103D8C0021F990B10FE00B4B9C4201D1AC68D0E70C
:103D9C00094B9C4208BFEC68CBE72146284600F053
:103DAC001BF80028CCD04FF0FF373846F8BD00BFC9
:103DBC0048480008684800082848000849B1FF2A0C
:103DCC008BBF8A230A700360012088BF4FF0FF303D
:103DDC007047084670470000324B70B51D680646A8
:103DEC000C4625B1AB6913B9284600F055F92E4B9A
:103DFC009C420FD16C68B4F90C309AB215072CD4D4
:103E0C00D00611D40922326043F04003A3814FF055
:103E1C00FF3070BD254B9C4201D1AC68EBE7244BC5
:103E2C009C4208BFEC68E6E7510712D5616B41B1C3
:103E3C0004F14403994202D0304600F01BFA0023EF
:103E4C006363A38923F02403A381002363602369A4
:103E5C002360A38943F00803A38123694BB9A38989
:103E6C0003F42073B3F5007F03D02146304600F0F5
:103E7C00C1F9A28912F001030CD00023A36063697D
:103E8C005B42A361236953B9B4F90C3013F0800081
:103E9C00BAD170BD920758BF6369A360F2E70020E6
:103EAC00F7E700BFD802002048480008684800081F
:103EBC00284800088A892DE9F041054610070C4670
:103ECC005AD44B68002B05DC0B6C002B02DC002059
:103EDC00BDE8F081E66A002EF9D0002312F480527E
:103EEC002F682B6033D0606DA3895A0705D56368A2
:103EFC00C01A636B0BB1236CC01A00230246E66A2E
:103F0C00216A2846B047431CA38906D129681D297C
:103F1C004BD82B4ACA40D60747D50022626022698B
:103F2C00D904226004D5421C01D12B6803B9606509
:103F3C00616B2F600029CAD004F14403994202D06E
:103F4C00284600F097F900206063BDE8F081216AF3
:103F5C0001232846B047411CC6D12B68002BC3D087
:103F6C001D2B01D0162B01D12F60B0E7A38943F094
:103F7C004003A381BDE8F0810F69002FA7D0930700
:103F8C0018BF00230E6808BF4B69A6EB07080F602B
:103F9C008B60B8F1000F9ADD43463A46216A2846F9
:103FAC00A66AB047002807DCA38943F04003A3812D
:103FBC004FF0FF30BDE8F0810744A8EB0008E8E7BC
:103FCC000100402038B50B6905460C46DBB118B131
:103FDC0083690BB900F060F80C4B9C4209D16C68FA
:103FEC00B4F90C307BB121462846BDE83840FFF7C8
:103FFC0061BF074B9C4201D1AC68F1E7054B9C4279
:10400C0008BFEC68ECE7002038BD00BF484800084A
:10401C006848000828480008014900F0A9B800BF0A
:10402C00D13F0008002310B5044603604360836051
:10403C0081814366C2810361436183611946082211
:10404C005C30FFF7EFFD054B24626362044BA36207
:10405C00044BE362044B236310BD00BFF54300081F
:10406C00174400084F4400087344000870B56825D5
:10407C004A1E55430E4605F1740100F047F90446FB
:10408C0040B1002180E842000C30A06005F16802CC
:10409C00FFF7C8FD204670BD836910B5044633BBDD
:1040AC008364C3640365124B124A1B688262984294
:1040BC0004BF0123836100F01FF86060204600F00C
:1040CC001BF8A060204600F017F80022E0600421E5
:1040DC006068FFF7A7FF01220921A068FFF7A2FF84
:1040EC0002221221E068FFF79DFF0123A36110BD9E
:1040FC008848000825400008F8B51C4B07461E6888
:10410C00B36913B93046FFF7C7FF4836B468736814
:10411C00013B03D5336833B13668F7E7B4F90C507B
:10412C006DB16834F4E704213846FFF79FFF306027
:10413C000028F1D10C2304463B602046F8BD4FF615
:10414C00FF73E38101236566A3812560A56065602B
:10415C0025616561A5610822294604F15C00FFF721
:10416C0061FD6563A563A564E564E6E7884800081E
:10417C002DE9F84380468946002600F1480414B91D
:10418C003046BDE8F883A5686768013F01D524680F
:10419C00F5E7AB89012B07D9B5F90E30013303D004
:1041AC0029464046C84706436835EEE770B50E46CB
:1041BC00B1F90E1090B0002914461D4607DA002301
:1041CC002B60B3891A0610D44FF480630EE001AA59
:1041DC0000F070F90028F2DB029A02F47042A2F5AA
:1041EC0000535A425A412A60EEE7402300202360D4
:1041FC0010B070BD8B8973B59D0706460C4607D56C
:10420C0004F14703236023610123636102B070BD95
:10421C0001AB6A46FFF7CAFF00990546304600F02D
:10422C0075F848B9B4F90C309A05EFD423F00303B0
:10423C0043F00203A381E3E70D4BB362A389206033
:10424C0043F08003A381009B20616361019B5BB100
:10425C00B4F90E10304600F03FF928B1A38923F0D1
:10426C00030343F00103A381A3891D43A581CDE77B
:10427C002540000838B50546002943D051F8043CC8
:10428C000C1F002BB8BFE41800F048F91E4A136845
:10429C00104633B9636014602846BDE8384000F01E
:1042AC003EB9A3420BD921686218934201BF1A6828
:1042BC005B685218226063600460EDE713465A682D
:1042CC000AB1A242FAD919685818A0420BD1206839
:1042DC000144581882421960DED1106852680144BA
:1042EC0019605A60D8E702D90C232B60D4E72068F8
:1042FC0021188A4201BF1168526809182160626056
:10430C005C60C9E738BD00BFE405002070B5CD1C6A
:10431C0025F0030508350C2D38BF0C25002D06465D
:10432C0001DBA94203D90C233360002070BD00F0DF
:10433C00F5F8234A1468214691B9224C23681BB91D
:10434C00304600F041F820602946304600F03CF839
:10435C00431C26D10C233046336000F0E0F8E4E730
:10436C000B685B1B1AD40B2B0FD90B60CC18CD50E0
:10437C00304600F0D4F804F10B00231D20F00700A8
:10438C00C31A1BD05A42E25070BD8C420BBF6368FB
:10439C004B681360636018BF0C46E9E70C4649682C
:1043AC00CAE7C41C24F00304A04205D0211A3046ED
:1043BC0000F00AF80130CDD02560D9E770BD00BF00
:1043CC00E4050020E805002038B50023054C05461F
:1043DC000846236000F0DEF8431C02D1236803B1C9
:1043EC002B6038BD2019002010B50C46B1F90E1009
:1043FC0000F096F80028ABBF636DA3891B1823F45B
:10440C008053ACBF6365A38110BD2DE9F0411F46FD
:10441C008B890546DB050C46164605D50223002282
:10442C00B1F90E1000F068F8A389324623F48053DA
:10443C00A381B4F90E103B462846BDE8F04100F0CC
:10444C0017B810B50C46B1F90E1000F055F8431C16
:10445C00A38915BF606523F4805343F48053A38173
:10446C0018BFA38110BDB1F90E1000F013B80000F5
:10447C0038B50546084611460022054C22601A46FE
:10448C00FCF7F8F9431C02D1236803B12B6038BD4B
:10449C002019002038B50023054C0546084623603A
:1044AC0000F050F8431C02D1236803B12B6038BDD7
:1044BC002019002038B50023064C05460846114645
:1044CC00236000F047F8431C02D1236803B12B6032
:1044DC0038BD00BF2019002038B50023054C054617
:1044EC000846236000F03EF8431C02D1236803B158
:1044FC002B6038BD2019002038B5054608461146FA
:10450C000022054C22601A4600F034F8431C02D1FC
:10451C00236803B12B6038BD201900207047704709
:10452C0038B50546084611460022054C22601A464D
:10453C0000F028F8431C02D1236803B12B6038BD6E
:10454C00201900205822024B4FF0FF301A607047A0
:10455C00201900205822024B4FF0FF301A60704790
:10456C00201900205822024B00201A60704700BF0F
:10457C00201900205822024B4FF0FF301A60704770
:10458C00201900205822024B4FF0FF301A60704760
:10459C0020190020044B0246196809B90349196017
:1045AC00186802441A607047EC050020241900209A
:1045BC00F8B500BFF8BC08BC9E467047F8B500BF04
:0845CC00F8BC08BC9E467047D4
:1045D40002030405060708090A0B0C0D0E0F101040
:1045E4000D0A53455353494F4E20434C4F534544B2
:1045F4000D000D0A554E4B4E4F574E20434F4D4D17
:10460400414E442E20464F522041204C49535420C1
:104614004F46204B4E4F574E20434F4D4D414E4435
:104624005320454E5445522048454C500D0000003F
:1046340074460008610100087C460008020000007E
:1046440089460008610100087C4600080200000059
:104654008F460008950100089546000801000000F7
:104664000000000000000000000000000000000046
:10467400434F4E4E454354004F50454E20434F4EFA
:10468400534F4C4500535441525400434C4F5345EF
:1046940000434C4F534520434F4E534F4C45004825
:1046A400656C6C6F2C206B697474792100000000B8
:1046B40000000000000102030406070809000000CE
:1046C400000102030443444320436F6E666967009C
:1046D40043444320496E74657266616365005354B4
:1046E4004D6963726F656C656374726F6E69637331
:1046F4000053544D3332205669727475616C2043F3
:104704006F6D506F72740030303030303030303074
:1047140030314100000201024300504F5349580018
:104724002E00002020202020202020202828282897
:10473400282020202020202020202020202020206D
:1047440020202088101010101010101010101010BD
:1047540010101004040404040404040404101010CD
:104764001010101041414141414101010101010179
:104774000101010101010101010101010101101007
:10478400101010104242424242420202020202024D
:1047940002020202020202020202020202021010D9
:1047A40010102000000000000000000000000000C5
:1047B40000000000000000000000000000000000F5
:1047C40000000000000000000000000000000000E5
:1047D40000000000000000000000000000000000D5
:1047E40000000000000000000000000000000000C5
:1047F40000000000000000000000000000000000B5
:1048040000000000000000000000000000000000A4
:104814000000000000000000000000000000000094
:104824000000000000000000000000000000000084
:104834000000000000000000000000000000000074
:104844000000000000000000000000000000000064
:104854000000000000000000000000000000000054
:104864000000000000000000000000000000000044
:104874000000000000000000000000000000000034
:0848840000000000DC0200202E
:04488C0031010008EE
:044890000D0100080E
:104894005472617048617070656E730000A24A04BE
:1048A40001000000100000001B300008E12F000888
:1048B400792F000800000000F12E0008DF2E000808
:1048C400492F000800000000000000000000000064
:1048D400252F0008192F0008312F00083D2F00084C
:1048E40009024300020100C032090400000102026F
:1048F4000100052400100105240100010424020222
:1049040005240600010705820308001009040100BC
:10491400020A0000000705010240000007058102A9
:104924004000000009024300020100C032090400F3
:104934000001020201000524001001052401000108
:10494400042402020524060001070582030800105E
:1049540009040100020A0000000705010200020028
:1049640007058102000200000A0600020000004060
:104974000100000009074300020104C032090400D9
:1049840000010202010005240010010524010001B8
:10499400042402020524060001070582030800FF1F
:1049A40009040100020A000000070501024000009A
:1049B40007058102400000002D38000881370008F7
:1049C4008537000889370008553800086138000821
:1049D4006D38000889380008A5380008C138000877
:1049E400DD3800081201000202020040830440572F
:1049F4000002010203010000040309044300000053
:104A040000000000000000000000000000000000A2
:104A1400000000000000000000000000430000004F
:104A24000000000000000000000000000000000082
:104A3400000000000000000000000000430000002F
:104A44000000000000000000000000000000000062
:104A5400000000000000000000000000430000000F
:104A64000000000000000000000000000000000042
:104A740000000000000000000000000043000000EF
:104A84000000000000000000000000000000000022
:104A940000000000000000000000000043000000CF
:104AA4000000000000000000000000000000000002
:104AB40000000000000000000000000043000000AF
:104AC40000000000000000000000000000000000E2
:104AD400000000000000000000000000C93D0008C4
:104AE4000D3C000800000000264700082447000889
:104AF400F5450008F5450008F5450008F5450008AA
:104B0400F5450008F5450008F5450008F545000899
:104B1400F5450008FFFFFFFFFFFFFFFFFFFFFFFF5B
:104B2400FFFF000001004153434949000000000019
:104B34000000000000000000000000000000000071
:104B440000000000000041534349490000000000F8
:104B54000000000000000000000000000000000051
:104B64000000000000000000DC0200200000000043
:104B74004848000868480008284800080000000069
:104B84000000000000000000000000000000000021
:104B94000000000000000000000000000000000011
:104BA4000000000000000000000000000000000001
:104BB40000000000000000000000000000000000F1
:0C4BC400000000000000000000000000E5
:0400000508003B496B
:00000001FF
