:020000040800F2
:100000000050002009360008510500085505000879
:1000100057050008590500085B05000800000000AE
:100020000000000000000000000000005D05000866
:100030005F05000800000000610500086305000876
:100040005136000851360008513600085136000874
:100050005136000851360008513600085136000864
:100060005136000851360008513600085136000854
:100070005136000851360008513600085136000844
:100080005136000851360008513600085136000834
:10009000690500085136000851360008513600083D
:1000A0005136000851360008513600085136000814
:1000B0007505000881050008513600085136000812
:1000C00051360008513600085136000851360008F4
:1000D00051360008513600085136000851360008E4
:1000E0005136000851360008513600080000000063
:1000F0000000000000000000000000000000000000
:0C01000000000000000000005FF808F1A3
:10010C0010B5054C237833B9044B13B10448AFF345
:10011C0000800123237010BD60010020000000004E
:10012C00AC36000808B5034B1BB103490348AFF3C9
:10013C00008008BD0000000064010020AC360008FF
:10014C0008B50548054B036000F04EFC18B1BDE83E
:10015C00084000F047B908BDCC0300200030024035
:10016C000268084B82B09A420AD1A3F500535A692F
:10017C0042F040025A615B6903F040030193019B1A
:10018C0002B070470030024010222DE9F04188B0D7
:10019C000DEB0200002103F07BFA344B344D9A69CD
:1001AC00344C42F010029A619A69284602F010020F
:1001BC000092009A9A694FF4885142F020029A6199
:1001CC009A69032602F020020192019A9A694FF073
:1001DC00010842F004029A619A69002702F00402B5
:1001EC000292029A9A6942F008029A619B69002273
:1001FC0003F008030393039B00F0E6FC0022204667
:10020C004FF4807100F0E0FC4FF4604304A91A48ED
:10021C000493059600F0F8FB48F23C0304A9204631
:10022C000493059600F0F0FB4EF63F6304A92846B4
:10023C000493059600F0E8FB02264FF4885304A9BA
:10024C0028460493CDF814800697079600F0DCFB43
:10025C004FF4807304A920460493CDF814800697BC
:10026C00079600F0D1FB08B0BDE8F0810010024009
:10027C00000C0140000801400010014008B50C487A
:10028C000C4BDFF834E04FF4804280E80840002348
:10029C0002618360C36043618361C361036200F0E8
:1002AC0099FC18B1BDE8084000F09CB808BD00BF2F
:1002BC00D403002000540040A086010010B5044671
:1002CC0086B01022002102A803F0E2F92268114B3B
:1002DC009A421CD1104C02A9A369104843F00803A0
:1002EC00A361A36903F008030093009BC02302934E
:1002FC00122303930323059300F086FBE36943F475
:10030C000013E361E36903F400130193019B06B04E
:10031C0010BD00BF0054004000100240000C014012
:10032C00282270B594B00DEB0200002103F0B0F957
:10033C00142210250DEB0200002103F0A9F92A4626
:10034C00002101A803F0A4F909230A934FF4803388
:10035C0001240B93022612934FF480130AA81393D3
:10036C000E941094119601F09FF80F23059380239F
:10037C0007934FF48063214605A8089309930696CA
:10038C0001F060FA4FF4800301A80493019501F089
:10039C003DFB01F015FA14B070BD000008B500F07B
:1003AC0097FAFFF7BDFFFFF7EFFEFFF767FFFFF7C9
:1003BC00C7FE02F067FF00F009F900F05DF900F0EC
:1003CC000BFA064800F054F8054D044C284600F092
:1003DC008DF86062014800F06BF8F7E77C010020B3
:1003EC0028040020704701234372026802B9704749
:1003FC0022EA03025B0013F0FF03026008BF012333
:10040C00F3E7FFF7F0BF0000F0B585B005466A468C
:10041C006E46154B03F108071446186859680833E3
:10042C0003C4BB422246F7D118689B882060A38086
:10043C0001240E4F6C722B680BB905B0F0BD234034
:10044C00102B07D10E223146384602F0D1FB38462C
:10045C0002F0DCFB2B6823EA0403640014F0FF04B5
:10046C002B6008BF0124E6E7D4360008F004002016
:10047C000223837204230372C3750123094A80F893
:10048C00223042600023032280F82030C272064BD7
:10049C0082750722C36118230275044A80F8233041
:1004AC00026170470F04000815040008F3030008EC
:1004BC0070B5054600240C266A6A02B970BD06FBAD
:1004CC0004F16818C37A134002D06B504368984704
:1004DC0006FB0453DA7A6B6A022C23EA020398BFF8
:1004EC0001346B6294BFE4B20024E5E70246EFF3FB
:1004FC00108372B600210068116003B962B67047B0
:10050C000E4B82B09A6942F001029A619A6902F02C
:10051C0001020092009ADA6942F08052DA61DB69DA
:10052C00074A03F080530193019B536823F0E06367
:10053C0043F00073536002B0704700BF00100240DC
:10054C000000014001F052BAFEE7FEE7FEE7FEE7CD
:10055C0070477047704700F0CDB90000014800F0BB
:10056C00C7BC00BFE4100020014801F086BB00BFEF
:10057C006C040020014801F080BB00BF2C0400205B
:10058C000F4B1A6842F001021A6059680D4A0A4072
:10059C005A601A6822F0847222F480321A601A6847
:1005AC0022F480221A605A6822F4FE025A604FF438
:1005BC001F029A604FF00062034B9A60704700BFB5
:1005CC00001002400000FFF800ED00E010B5002420
:1005DC008AB01022002102A803F05AF810222146FA
:1005EC0006A80094019403F053F84FF0804321487F
:1005FC0080E818004FF6FF73C360802384600461A9
:10060C00836101F015FC08B1FFF7ECFE4FF4805349
:10061C0002A91848029301F072FA08B1FFF7E2FE42
:10062C00144801F01FFC08B1FFF7DCFE00236946FB
:10063C0010480093019301F0E1FC08B1FFF7D2FEE2
:10064C0002230693012300220793032306A90948DA
:10065C000892099301F04AFC08B1FFF7C3FE04228B
:10066C0006A9044801F042FC08B1FFF7BBFE0AB032
:10067C0010BD00BF6C04002010B500248AB01022FD
:10068C00002102A803F004F81022214606A80094C9
:10069C00019402F0FDFF2148214B846080E8180092
:1006AC004FF6FF73C36080230461836101F0C0FBCC
:1006BC0008B1FFF797FE4FF4805302A91748029335
:1006CC0001F01DFA08B1FFF78DFE144801F0CAFBCA
:1006DC0008B1FFF787FE0023694610480093019389
:1006EC0001F08CFC08B1FFF77DFE02230693012379
:1006FC0000220793032306A908480892099301F0E6
:10070C00F5FB08B1FFF76EFE042206A9034801F0C1
:10071C00EDFB08B1FFF766FE0AB010BD2C040020FB
:10072C0000040040102210B5044688B000210DEBE7
:10073C00020002F0ADFF2368B3F1804F23D103F523
:10074C000433DA6904A942F00102DA61DA691F485C
:10075C0002F001020092009A9A6942F004029A6136
:10076C009B6903F004030193019B0323049300F0A2
:10077C004BF900221C20114600F0E0F81C2000F080
:10078C0011F908B010BD124A9342FAD1114B04A9C9
:10079C00DA690E4842F00202DA61DA6902F002020A
:1007AC000292029A9A6942F004029A619B6903F0E0
:1007BC0004030393039BC023049300F025F9002248
:1007CC001D20114600F0BAF81D20D8E700080140A2
:1007DC00000400400010024008B54FF4E13E0A4806
:1007EC000A4B0C2280E80840002342618360C360FE
:1007FC0003618361C36101F0C3FC18B1BDE808401B
:10080C00FFF7F0BD08BD00BFAC040020003801406C
:10081C0010B5044686B01022002102A802F038FF61
:10082C002268174B9A4228D103F558439A6902A9BA
:10083C0042F480429A619A69124802F48042009212
:10084C00009A9A6942F004029A619B6903F00403CE
:10085C000193019B4FF40073029302230393032330
:10086C00059300F0D1F84FF480630293002302A9A2
:10087C0004480393049300F0C7F806B010BD00BF02
:10088C00003801400008014038B50E4B0546187879
:10089C004FF47A73B3FBF0F30B4A1068B0FBF3F030
:1008AC0000F08CF8044658B90F2D09D80246294699
:1008BC004FF0FF3000F042F8044B20461D6038BD6D
:1008CC00012038BD0400002000000020080000209A
:1008DC00074A08B51368032043F01003136000F0B7
:1008EC001BF80020FFF7D0FFFFF70AFE002008BD21
:1008FC0000200240034A044B11681B780B44136020
:10090C00704700BFEC04002004000020014B186865
:10091C00704700BFEC040020074A0002D36800F4C3
:10092C00E06023F4E0631B041B0C43F0BF6343F44F
:10093C0000330343D360704700ED00E0174B30B534
:10094C00DC68C4F30224C4F10703251D042B28BF63
:10095C000423062D4FF0010598BF002405FA03F37C
:10096C0003F1FF3388BF033C1940A14005FA04F49E
:10097C00013C2240002842EA01024FEA0212AFBFBA
:10098C0000F16040064B00F00F00D2B2A5BFD2B20E
:10099C0000F561401A5480F8002330BD00ED00E0F2
:1009AC0014ED00E00123420900F01F0003FA00F0EF
:1009BC00014B43F82200704700E100E00138B0F130
:1009CC00807F0AD2F021064B064A586082F8231029
:1009DC000020072298601A6070470120704700BF02
:1009EC0010E000E000ED00E010B5044650B1437992
:1009FC0003F0FF0213B90271FFF7B2FB01230020D1
:100A0C00637110BD012010BD2DE9F74F0022164671
:100A1C00654BDFF8A4E1DFF8A4C14FF001080C68C6
:100A2C0008FA06F808EA0404A0457FD14D68122D97
:100A3C0000F0AF8000F28880022D00F0A7807CD8F7
:100A4C00002D00F08E80012D00F09E804FF00F09DC
:100A5C00FF2C93BF824606F18045083DD0F800B0CC
:100A6C0092BFB500D0F804B0AD0009FA05F82BEA36
:100A7C00080802FA05F588BF00F1040A48EA0505E2
:100A8C00CAF80050D1F804A01AF0805F4ED0474D40
:100A9C00464FAD6926F0030845F00105BD61BD69FF
:100AAC0008F1804805F00105019508F5803806F03D
:100ABC00030B019D4FEA8B0BD8F8085009FA0BF980
:100ACC0025EA09093A4DA84268D005F58065A84287
:100ADC0066D005F58065A84264D005F58065A8420E
:100AEC000CBF0325042505FA0BF545EA0905C8F8E2
:100AFC0008501D681AF4803F14BF2543A5431D60A0
:100B0C005D681AF4003F14BF2543A5435D609D68E2
:100B1C001AF4801F14BF2543A5439D60DD681AF4A9
:100B2C00001F14BF2C4325EA0404DC600136102E90
:100B3C007FF473AF03B0BDE8F08F032D22D0112DDD
:100B4C0084D1CA68043281E71A4FBD4209D012D849
:100B5C00DFF86C904D4504D009F580394D457FF494
:100B6C0075AF8A68C2B1012A0CBFC0F81080C0F8FA
:100B7C00148008226AE77545F3D06545F1D0DFF89B
:100B8C004490EBE7002261E7CA685FE7CA68083265
:100B9C005CE7CA680C3259E7042257E70025A2E744
:100BAC000125A0E702259EE7000401400010024049
:100BBC00000801400000211000003110000032102C
:100BCC0000001110000022100AB1016170470904E5
:100BDC00FBE7000038B5044608B9012038BD90F891
:100BEC003D3003F0FF021BB980F83C20FFF766FB99
:100BFC002423226884F83D30136823F0010313602A
:100C0C0000F0D2FE63682F4A934230D82E4A9042AD
:100C1C00E3D92E4A2168B0FBF2F24A6001320A6233
:100C2C00284A0138934232D85B00B0FBF3F0431CE6
:100C3C00C3F30B03042B38BF0423CB61226AE36993
:100C4C00002013430B60E268236913438B60A26995
:100C5C0063691343CB600B6843F001030B602023E3
:100C6C00206484F83D30206384F83E0038BD184A77
:100C7C009042B2D9154D4FF49672B0FBF5F5216840
:100C8C006A434D604FF47A75B2FBF5F2C6E7A26881
:100C9C0052B903EB4303B0FBF3F0431CC3F30B0358
:100CAC006BB143F40043C8E719225343B0FBF3F094
:100CBC00431CC3F30B0313B143F44043BDE70123BF
:100CCC00BBE700BFA08601007F841E0040420F00DE
:100CDC00FF083D002DE9F041044686B0002860D0A5
:100CEC0090F8293403F0FF021BB980F8282402F095
:100CFC005DFB254603236E4655F8100B84F829340A
:100D0C0001F07CFA0FCD0FC62B6804F10408336098
:100D1C0098E80E00206801F061FA0021206801F0CB
:100D2C0077FA0021234622460126084604F11005D5
:100D3C0082F82810918601310F2982F8296082F8F7
:100D4C002B009063D063106402F12002F0D10022DA
:100D5C00174683F828229A8601320F2A83F82972C3
:100D6C0083F82B72C3F83872C3F83C72C3F8407224
:100D7C0003F12003EDD16E460FCD0FC62B68336007
:100D8C0098E80E00206801F045FA012384F82470DD
:100D9C00206884F8293401F015FD002006B0BDE868
:100DAC00F0810120FAE790F8283410B5012B0446A5
:100DBC000ED0012180F8281402F01FFC206801F0ED
:100DCC00FFFC206801F011FA002084F8280410BD03
:100DDC00022010BD90F8282410B5012A04460BD02F
:100DEC00012280F8282484F82410006801F0E2FC29
:100DFC00002084F8280410BD022010BD38B504462C
:100E0C0048B2002801F07F05B5BF04EB451104EB97
:100E1C004111283101F50A71C00F0D704870CB706B
:100E2C0094F828340A61012B09D00123206884F836
:100E3C00283401F00BFA002084F8280438BD022075
:100E4C0038BD4BB2002B01F07F02B5BF00EB421155
:100E5C0000EB4111283101F50A71DB0F10B50A7056
:100E6C004B7090F828340446012B09D0012380F8EC
:100E7C002834006801F05CFB002084F8280410BDC5
:100E8C00022010BD70B5002601F07F014D01441900
:100E9C0084F8281205F50A710144C4F83C22C4F800
:100EAC004032C4F8446284F82962006801F0A4FC62
:100EBC00304670BD01F00F0100EB4111B1F8440256
:100ECC00704701F07F0170B54D0144192364002671
:100EDC00012384F8281005F128010144E2636664BB
:100EEC0084F82930006801F087FC304670BD0000A2
:100EFC002DE9F3470446006801F066FC000400F19C
:100F0C009880206801F060FC41050FD522682046CE
:100F1C00B2F8443023F480631B041B0CA2F8443059
:100F2C0002F07BFA00212046FFF754FF206801F005
:100F3C004BFC470408D52268B2F8443023F48043B4
:100F4C001B041B0CA2F84430206801F03DFC860405
:100F5C0008D52268B2F8443023F400531B041B0C50
:100F6C00A2F84430206801F02FFCC5041CD522687F
:100F7C002046B2F8403023F004031B041B0CA2F8EB
:100F8C004030B2F8403023F008031B041B0CA2F8CD
:100F9C00403002F05FFA2268B2F8443023F48053F8
:100FAC001B041B0CA2F84430206801F00DFC00055A
:100FBC001DD52068B0F840309BB243F00803A0F870
:100FCC004030B0F8443023F400631B041B0CA0F831
:100FDC004430B0F840309BB243F00403A0F84030EA
:100FEC0001F0F2FBC10402D4204602F023FA20687F
:100FFC0001F0EAFB82050BD522682046B2F844309A
:10100C0023F400731B041B0CA2F8443002F001FA09
:10101C00206801F0D9FBC30508D52268B2F844302A
:10102C0023F480731B041B0CA2F8443002B0BDE8FF
:10103C00F0870023C84FDFF82483DFF82493ADF842
:10104C000430ADF806302068B0F844309BB2ADF8EF
:10105C0004301B047FF555AFBDF8045015F00F0597
:10106C0040F0AB80BDF80410038811F010019BB266
:10107C0026D13B400380B0F8503094F828209BB226
:10108C0003EBC20300EB4300D0F80434E26BC3F370
:10109C00090363641344E363204602F0B3F994F844
:1010AC002430002BCFD0226C002ACCD194F82430E1
:1010BC00216843F08003A1F84C3084F82420C2E767
:1010CC00ADF80630BDF806301A051FD5B0F8503013
:1010DC0094F828229BB203EBC20300EB4303D3F832
:1010EC000C34B4F82C22C3F30903C4F8443204F2D0
:1010FC002C4101F081FC22682046138823F07003F8
:10110C001B051B0D138002F06FF99CE7BDF8063030
:10111C001B0498D5038823F070031B051B0D03805B
:10112C00B0F8503094F828229BB203EBC20300EBCA
:10113C004303D3F80C34C3F30903C4F8443263B14A
:10114C00B4F82C22D4F83C1201F056FCD4F83C3202
:10115C00D4F844221344C4F83C320021204602F057
:10116C0049F92268D4F83852B2F850103E2D89B2A1
:10117C0001F1060102F5806017D9C5F34F13EE0695
:10118C0004BF03F1FF339BB249EA83239BB240F8BF
:10119C00113013889BB203EA080383F4405343F4E1
:1011AC00004343F0800313804DE7C5F34F03ED0775
:1011BC0044BF01339BB29B02E8E730F825309BB269
:1011CC00ADF80630BDF8063019043FD530F825309F
:1011DC004FEA451A23F070031B051B0D20F8253030
:1011EC0004EB0A0191F83232002B74D1B0F8503074
:1011FC0091F828229BB2063303EBC20300EB4303A6
:10120C00D3F80064C6F3090636B1B1F82C22334684
:10121C00D1F83C1201F0F0FB04EB0A01D1F8443296
:10122C00D1F83C223344C1F84432D1F84032324434
:10123C00C1F83C2223B1D1F83802864280F0868076
:10124C00A2449AF82812204602F0D4F8BDF80630D1
:10125C001A067FF5F8AE20686E0130F82530A1191A
:10126C009BB23B4020F8253091F832300235002BF0
:10127C0078D1B0F8503091F828209BB2023303EBB0
:10128C00C20300EB4303D3F8003404EB4515C3F35E
:10129C0009036B601BB18A8DC96B01F09BFA226844
:1012AC002644B2F8503096F828109BB2023303EB68
:1012BC00C10302EB4303D3F80024F36BC2F309021E
:1012CC0072641A44336CF2632046002B40F0858024
:1012DC0002F098F8B7E691F8283230F82320DB00BA
:1012EC0012F4804FB0F8502092B221D00232134445
:1012FC0000EB4303D3F80064C6F3090636B133465A
:10130C00B1F82E22D1F83C1201F076FB04EB0A0363
:10131C0093F82812226832F8213023F0F0031B05D1
:10132C001B0D43F4004343F0C00322F8213073E754
:10133C000632134400EB4303D3F80064C6F30906EA
:10134C00002EE3D03346B1F83022DBE791F82812B7
:10135C002046FFF797FD79E70F8FFFFF8FBFFFFF49
:10136C000080FFFF91F8283030F82320DB0012F0CA
:10137C00400FB0F8502092B220D00232134400EB50
:10138C004303D3F8003404EB4515C3F309036B6036
:10139C001BB1CA8DC96B01F01DFAA31993F8281063
:1013AC00226832F8213023F0F0031B051B0D43F4A7
:1013BC00404343F0800322F8213070E70632134497
:1013CC0000EB4303D3F8003404EB4515C3F30903D6
:1013DC006B60002BE1D00A8EDCE7FFF772FD32E682
:1013EC00012238B54BB2002B01F07F05B5BF00EBE5
:1013FC00451100EB4111283101F50A71DB0FEDB2FB
:10140C008A700D704B7090F82834044693420ED0BD
:10141C0080F82824006801F059F925B904F22C4110
:10142C00206801F0D5F9002084F8280438BD02208A
:10143C0038BD38B500244BB2002B01F07F02B5BF8C
:10144C0000EB421100EB4111283101F50A71DB0F61
:10145C008C700A704B7090F828340546012B09D01B
:10146C00012380F82834006801F062F985F82844DB
:10147C00204638BD022038BD11F0800F1BBF01F093
:10148C007F0100EB411000EB4110283008BF00F544
:10149C000A701AB982728380002070470122C380BF
:1014AC001B0C82720381F7E703682DE9F341DB071C
:1014BC00054610D42B689F075ED42B68190700F1E2
:1014CC0095802B685A0700F1BF80EA69002A40F02A
:1014DC002D81002014E0904C636803F00C03042B66
:1014EC0007D0636803F00C03082B0CD16368DE0390
:1014FC0009D523689C03DDD56B68002BDAD101205C
:10150C0002B0BDE8F0816B68B3F5803F10D1236861
:10151C0043F480332360FFF7F9F9064623689803F8
:10152C00C8D4FFF7F3F9801B6428F7D90320E7E749
:10153C009BB9236823F480332360236823F480232E
:10154C002360FFF7E3F9064623689903B2D5FFF74A
:10155C00DDF9801B6428F7D9E8E7B3F5A02F2368E1
:10156C0003D143F480232360D1E723F48033236039
:10157C00236823F48023CDE7674C636813F00C0FCA
:10158C0007D0636803F00C03082B10D16368DA03EF
:10159C000DD423689B0702D52B69012BAFD123688F
:1015AC006A6923F0F80343EAC203236085E72A69DA
:1015BC005A4B6AB101221A60FFF7A8F90646236854
:1015CC009F07ECD4FFF7A2F9801B0228F7D9ADE7EF
:1015DC001A60FFF79BF90646236898077FF56DAFF5
:1015EC00FFF794F9801B0228F6D99FE7AA694A4CA9
:1015FC004B4BDAB101221A60FFF788F90646636A91
:10160C009B070DD54FF4FA52464B1B68B3FBF2F314
:10161C00019300BF019B5A1E0192002BF9D150E798
:10162C00FFF774F9801B0228E9D97FE71A60FFF7EE
:10163C006DF90646636A9F077FF543AFFFF766F9BE
:10164C00801B0228F6D971E7334CE369D80024D407
:10165C000127E36943F08053E361E36903F08053AE
:10166C000093009B304E3368D90518D5EB68012BDD
:10167C0026D1236A43F001032362FFF747F941F2B5
:10168C0088368046236A9B073FD5002F3FF41DAF59
:10169C00E36923F08053E36117E70027E2E733683F
:1016AC0043F480733360FFF731F980463368DA0511
:1016BC00DCD4FFF72BF9A0EB08006428F6D935E74A
:1016CC00ABB9236A41F2883823F001032362236A01
:1016DC0023F004032362FFF719F90646236A9807DF
:1016EC00D3D5FFF713F9801B4045F7D91EE7052B1F
:1016FC00236A03D143F004032362BAE723F0010306
:10170C002362236A23F00403B6E7FFF7FFF8A0EB8C
:10171C000800B042B6D909E700100240000042426E
:10172C00800442420000002000700040224C63689C
:10173C0003F00C03082B3FF4E2AE00231F4E022AE9
:10174C0033602BD1FFF7E2F80746236899011FD4C9
:10175C002B6AB3F5803F05D16268A96822F4003288
:10176C000A436260696A62680B4322F47412134381
:10177C00636001233360FFF7C9F8054623689A01BB
:10178C003FF5A7AEFFF7C2F8401B0228F6D9CDE60D
:10179C00FFF7BCF8C01B0228D7D9C7E6FFF7B6F88D
:1017AC00054623689B017FF594AEFFF7AFF8401B0D
:1017BC000228F6D9BAE600BF00100240600042428F
:1017CC000122014B1A6070474C00424230B5194B54
:1017DC0087B002AC03F1100522461868596808332B
:1017EC0003C2AB421446F7D101238DF80430022317
:1017FC0011498DF805304B6803F00C02082A17D1FB
:10180C00C3F3834206A80244DB0312F8102C0CD558
:10181C004B680A48C3F34043504306AA134413F8D9
:10182C00143CB0FBF3F007B030BD05485043FAE769
:10183C000248F8E7C43600080010024000127A0093
:10184C0000093D00544A2DE9F0411368054603F0A8
:10185C0007038B420E462AD329688C0734D4CA0757
:10186C0047D44D4A136803F007039E42C0F08280B0
:10187C002A684A4C12F0040F40F08780130706D5F3
:10188C0063682A6923F4605343EAC2036360FFF779
:10189C009DFF6368424AC3F30313D35CD840414BAA
:1018AC0018600020FEF7F0FF0020BDE8F0811368FF
:1018BC0023F007030B431360136803F007039942EB
:1018CC00CAD00120BDE8F081344B11F0040F1EBFCB
:1018DC005A6842F4E0625A60080742BF5A6842F400
:1018EC0060525A605A68A86822F0F00202435A60AB
:1018FC00B5E76A68294C012A23681CD113F4003F10
:10190C00DFD0636841F2883823F00303134363602C
:10191C00FEF7FCFF6B680746012B14D1636803F0DC
:10192C000C03042B9DD0FEF7F1FFC01B4045F5D9ED
:10193C000320BDE8F081022A02D113F0007FDFE71B
:10194C0013F0020FDCE7022B0FD1636803F00C03DA
:10195C00082B86D0FEF7DAFFC01B4045F5D9E7E728
:10196C00FEF7D4FFC01B4045E2D8636813F00C0FA0
:10197C00F6D176E7136823F007033343136013683B
:10198C0003F007039E429CD172E76368E96823F475
:10199C00E0630B43636071E70020024000100240DB
:1019AC00E236000800000020044B054A5B68C3F3D4
:1019BC000223D35C034A1068D840704700100240E1
:1019CC00F236000800000020044B054A5B68C3F3A4
:1019DC00C223D35C034A1068D84070470010024001
:1019EC00F2360008000000207047000008B5054BD7
:1019FC009B681B0604D5FFF7F7FF8022024B1A7079
:101A0C0008BD00BF001002400A10024003682DE917
:101A1C00F341D907054620D5354CE369DA0032D4B9
:101A2C000127E36943F08053E361E36903F08053DA
:101A3C000193019B2F4E3368DB0526D5236A13F4E3
:101A4C00407336D1236A6A6823F4407313432362CC
:101A5C001FB1E36923F08053E3612868830706D53F
:101A6C00234AA968536823F440430B43536010F096
:101A7C0010001BD01E4AE9685368002023F4800331
:101A8C000B43536012E00027D4E7336843F48073B0
:101A9C003360FEF73BFF80463368D805CED4FEF7A3
:101AAC0035FFA0EB08006428F6D9032002B0BDE88E
:101ABC00F0816A6802F440729342C3D001200E4A4E
:101ACC00236A1060002023F4407110602162D90752
:101ADC00B8D5FEF71BFF41F288380646236A9A07F1
:101AEC00B0D4FEF713FF801B4045F7D9DDE700BFEC
:101AFC00001002400070004040044242704790F8D1
:101B0C003C3070B5012B4FF002031CD0012280F841
:101B1C003D30036880F83C209A6822F47F4222F022
:101B2C0077029A600A68402A79D019D8102A00F0F6
:101B3C0093800AD8002A00F08980012380F83D3078
:101B4C00002380F83C30184670BD202A00F08A80B3
:101B5C00302AF2D19A6822F0700242F0370236E055
:101B6C00702A36D01BD8502A42D0602AE5D11C6A84
:101B7C004D6824F01004CE681C6299691A6A21F42D
:101B8C00704122F0A00242EA051241EA0631996145
:101B9C001A629A6822F0700242F0670217E0B2F5FE
:101BAC00805F11D0B2F5005FC7D18A684D689C6820
:101BBC00C9682A4324F47F4442EA012222439A60F2
:101BCC009A6842F4804202E09A6822F007029A6016
:101BDC00B3E78A684D689C68C9682A4324F47F443B
:101BEC0042EA012222439A609A6842F07702EEE7B9
:101BFC004C68CE68196A1D6A21F00A0125F00105AE
:101C0C001D629A69214322F0F00242EA06129A619F
:101C1C0019629A6822F0700242F05702D7E74C68BA
:101C2C00CE68196A1D6A21F00A0125F001051D62B2
:101C3C009A69214322F0F00242EA06129A61196273
:101C4C009A6822F0700242F04702C0E79A6822F0CC
:101C5C00700242F00702BAE79A6822F0700242F072
:101C6C001702B4E79A6822F0700242F02702AEE73E
:101C7C0070477047704770477047036810B51A6912
:101C8C00044691070ED5DA6892070BD56FF0020265
:101C9C001A6101229B6902779B0777D0FFF7EAFF55
:101CAC000023237723681A69500710D5DA68510787
:101CBC000DD56FF004021A6102229B69227713F48E
:101CCC00407F204668D0FFF7D5FF00232377236899
:101CDC001A6912070FD5DA6810070CD56FF00802D5
:101CEC001A610422DB692277990720465AD0FFF744
:101CFC00C1FF0023237723681A69D20610D5DA684E
:101D0C00D0060DD56FF010021A610822DB6922771C
:101D1C0013F4407F20464BD0FFF7ACFF0023237712
:101D2C0023681A69D10708D5DA68D20705D56FF090
:101D3C00010220461A61FFF79BFF23681A691006FF
:101D4C0008D5DA68110605D56FF0800220461A61B5
:101D5C0000F077F923681A69520608D5DA6850063C
:101D6C0005D56FF0400220461A61FFF785FF236806
:101D7C001A69910622D5DA6892061FD56FF02002F7
:101D8C002046BDE810401A6100F05AB9FFF771FF08
:101D9C002046FFF770FF83E7FFF76BFF2046FFF746
:101DAC006AFF92E7FFF765FF2046FFF764FFA0E7A5
:101DBC00FFF75FFF2046FFF75EFFAFE710BD0000A7
:101DCC001A4A036890420AD0B0F1804F07D0A2F5AE
:101DDC009432904203D002F58062904215D14A6849
:101DEC0023F070031343114A90420AD0B0F1804F94
:101DFC0007D0A2F59432904203D002F58062904253
:101E0C0003D1CA6823F4407313434A6923F0800357
:101E1C00134303608B68C3620B688362034B984265
:101E2C0004BF0B690363012343617047002C01401D
:101E3C0010B50446A0B190F83D3003F0FF021BB979
:101E4C0080F83C20FEF76EFC0223206884F83D30BD
:101E5C00211DFFF7B5FF0123002084F83D3010BD94
:101E6C00012010BD10B50446A0B190F83D3003F030
:101E7C00FF021BB980F83C20FFF740FE02232068CC
:101E8C0084F83D30211DFFF79BFF0123002084F8CF
:101E9C003D3010BD012010BD70B5046A124E24F007
:101EAC0001040462B0428469056A0AD0B0F1804F23
:101EBC0007D0A6F59436B04203D006F58066B04242
:101ECC000FD124F0030422431B0122F0F002DBB2F9
:101EDC0025F00A0501F00A011A43294382610162C7
:101EEC0070BD44F00102EFE7002C0140F8B590F80A
:101EFC003C300446012B0D464FF0020019D0012353
:101F0C0084F83D0084F83C30A2B9CB68206806C93F
:101F1C00FFF7C2FF2368A9689A6922F00C029A6144
:101F2C009A690A439A610123002084F83D3084F8B1
:101F3C003C00F8BD042A8E68236882C9E8681FD16A
:101F4C001A6A000322F010021A629A691D6A22F4BE
:101F5C00407242EA072280B222F470420901024325
:101F6C0001F0A00125F0A00001439A6119629A6961
:101F7C0022F440629A619A6942EA06269E61D2E78F
:101F8C00082A1A6A1CD122F480721A62DA690001DA
:101F9C0022F003021D6A3A43C0B222F0F002090299
:101FAC00024301F4007125F400700143DA611962F7
:101FBC00DA6922F00C02DA61DA691643DE61B2E703
:101FCC0022F480521A62DA69000322F440721D6A0C
:101FDC0042EA072222F4704280B20903104301F452
:101FEC00005125F400521143D8611962DA6922F4C8
:101FFC004062DA61DA6942EA0626DFE790F83C30A3
:10200C0010B5012B4FF0020318D080F83D30036857
:10201C000C685A68496822F070025A605A68224368
:10202C005A609A6822F080029A609A680A439A6011
:10203C00012380F83D30002380F83C30184610BD59
:10204C00704770472DE9F0470568C2682B69016934
:10205C0023F4405313432B618368EA680B434169B3
:10206C0022F4B05222F00C020B431343EB606B6969
:10207C00826923F4407313436B61404B81469D424C
:10208C004FF0190446D1FFF79FFC04FB00F3D9F87D
:10209C0004604FF06408B600B3FBF6F3B3FBF8F33F
:1020AC001E01FFF791FC6043D9F804309B00B0FB94
:1020BC00F3F7FFF789FC6043D9F804309B00B0FBC1
:1020CC00F3F3B3FBF8F308FB13731B013233B3FBCD
:1020DC00F8F303F0F007FFF777FC6043D9F804201E
:1020EC009200B0FBF2FAFFF76FFC6043D9F80430B2
:1020FC009B00B0FBF3F3B3FBF8F308FB13A31B013A
:10210C003233B3FBF8F303F00F033B433344AB60C0
:10211C00BDE8F087FFF748FC04FB00F3D9F8046036
:10212C004FF06408B600B3FBF6F3B3FBF8F31E01F3
:10213C00FFF73AFC6043D9F804309B00B0FBF3F78F
:10214C00FFF732FC6043D9F804309B00B0FBF3F38B
:10215C00B3FBF8F308FB13731B013233B3FBF8F337
:10216C0003F0F007FFF720FC6043D9F8042092003D
:10217C00B0FBF2FAFFF718FCB7E700BF00380140DC
:10218C0010B5044640B390F8393003F0FF021BB988
:10219C0080F83820FEF73CFB2423226884F8393081
:1021AC00D368204623F40053D360FFF74BFF23681A
:1021BC0000201A6922F490421A615A6922F02A020C
:1021CC005A61DA6842F40052DA602023E06384F842
:1021DC00393084F83A3010BD012010BD84B001A80C
:1021EC0080E80E0004B000207047B0F840309BB27D
:1021FC0043F43F43A0F8403000207047B0F8403023
:10220C0023F474535B045B0CA0F84030002070473F
:10221C000020704784B010B503AC84E80E00BDE814
:10222C00104000220123A0F84030A0F84020A0F874
:10223C004420A0F85020B0F8403004B09BB243F4D6
:10224C003F43A0F8403010467047000070B5CB7883
:10225C000A78032B0FD8DFE803F00264505930F8EA
:10226C00223023F4EC4323F070031B041B0C43F4C7
:10227C00007320F8223040F60F730C7830F82420CD
:10228C0044F4004545F080051A402A4320F82420E8
:10229C008A7A0D78002A40F097804C788A88002C36
:1022AC004AD0B0F850405208A4B204EBC50400EB7D
:1022BC0044045200C4F800240C7830F82420520650
:1022CC0008D530F82420134043F4004343F0C003F6
:1022DC0020F824300A7830F8223023F4E04323F03D
:1022EC0040031B041B0C83F0200343F4004343F016
:1022FC00800320F82230002070BD30F8223023F407
:10230C00EC4323F070031B041B0CB2E730F82230B3
:10231C0023F4EC4323F070031B041B0C43F4C06345
:10232C00A7E730F8223023F4EC4323F070031B04AE
:10233C001B0C43F480639CE7B0F8503052089BB2FE
:10234C00043303EBC503520000F5806444F81320FA
:10235C00B0F850200D6992B20B7806323E2D02EB8C
:10236C00C30229D9C5F34F16EB0604BF06F1FF33A0
:10237C009EB26E4B43EA86239BB244F812300A7825
:10238C0030F822305E040BD530F8223023F0F00305
:10239C001B051B0D43F4404343F0800320F822300F
:1023AC000A7830F8223023F4804323F070031B04A6
:1023BC001B0C83F4405398E7C5F34F03ED0744BF60
:1023CC0001339BB29B02D7E730F8252022F4F87238
:1023DC001205120D42F4014242F0800220F8252031
:1023EC00B0F850200C7892B202EBC402CC8800F505
:1023FC0080656408640045F81240B0F850200C78F1
:10240C0092B2043202EBC4020C896408640045F8F1
:10241C0012404A780C78002A47D130F82420550411
:10242C0008D530F82420134043F4404343F0800394
:10243C0020F824300A7830F822305C060BD530F8BE
:10244C00223023F0F0031B051B0D43F4004343F033
:10245C00C00320F822300A7830F8223023F0F00341
:10246C001B051B0D43F4004343F0C00320F822303E
:10247C0048F280020C7830F8243023F4804323F0A7
:10248C0070031B041B0C83F44053134320F82430BB
:10249C00097830F8213023F4E04323F040031B0487
:1024AC001B0C134320F8213025E730F8242052046C
:1024BC0008D530F82420134043F4404343F0800304
:1024CC0020F824300A7830F822305B060BD530F82F
:1024DC00223023F0F0031B051B0D43F4004343F0A3
:1024EC00C00320F822300A7830F8223023F0F003B1
:1024FC001B051B0D43F4404343F0800320F82230AE
:10250C0048F280020C7830F8243023F4E04323F0B6
:10251C0040031B041B0C134320F82430097830F8BB
:10252C00213023F4804323F07003B8E70080FFFFD1
:10253C0010B58C7A4A780B78CCBB02B330F82320D8
:10254C0052060BD530F8232022F0F0021205120DA2
:10255C0042F4004242F0C00220F823200A7830F8FE
:10256C00223023F4E04323F040031B041B0C43F400
:10257C00004343F0800320F82230002010BD30F8D7
:10258C00232054040BD530F8232022F0F00212053E
:10259C00120D42F4404242F0800220F823200A78C7
:1025AC0030F8223023F4804323F07003DDE7002A57
:1025BC0048D130F8232052040BD530F8232022F0D8
:1025CC00F0021205120D42F4404242F0800220F853
:1025DC0023200A7830F822305C060BD530F82230F4
:1025EC0023F0F0031B051B0D43F4004343F0C00321
:1025FC0020F822300A7830F8223023F0F0031B0543
:10260C001B0D43F4004343F0C00320F8223048F282
:10261C0080020C7830F8243023F4804323F07003CC
:10262C001B041B0C134320F82430097830F821309C
:10263C0023F4E04323F040031B041B0C134320F84A
:10264C0021309AE730F8232052040BD530F82320A0
:10265C0022F0F0021205120D42F4404242F08002C8
:10266C0020F823200A7830F822305B060BD530F89E
:10267C00223023F0F0031B051B0D43F4004343F001
:10268C00C00320F822300A7830F8223023F0F0030F
:10269C001B051B0D43F4404343F0800320F822300C
:1026AC0048F280020C7830F8243023F4E04323F015
:1026BC0040031B041B0C134320F82430097830F81A
:1026CC00213023F4804323F07003B5E70A788AB9EC
:1026DC00038823F4804323F040031B041B0C83F476
:1026EC00805383F0100343F4004343F080030380D2
:1026FC00002070474B7883B130F8223023F4E0434C
:10270C0023F040031B041B0C83F0100343F4004321
:10271C0043F0800320F82230EAE730F8223023F42B
:10272C00804323F070031B041B0C83F48053EDE7F0
:10273C004B780A7813B330F822305B060BD530F89F
:10274C00223023F0F0031B051B0D43F4004343F030
:10275C00C00320F822300A7830F8223023F4E0430A
:10276C0023F040031B041B0C83F0300343F40043A1
:10277C0043F0800320F822300020704730F82230DC
:10278C005B040BD530F8223023F0F0031B051B0D36
:10279C0043F4404343F0800320F822300A7830F8A9
:1027AC00223023F4804323F070031B041B0C83F4AE
:1027BC004053DBE711B98023A0F84C300020704760
:1027CC000020704700207047B0F8440080B270477A
:1027DC000020704710B50024013300F580605B10B9
:1027EC0000EB4202A34200D110BD31F8020B22F8DB
:1027FC0024000134F6E7000070B50E468A6949786A
:10280C00054601293369B07A66D19A421C469BBFB2
:10281C0000231446D21AB36188BFB261A3B210BBB5
:10282C00B28871692846FFF7D5FFB5F85030327879
:10283C009BB2023303EBC20305EB4303C3F8004422
:10284C00327835F8223023F4E04323F040031B04A4
:10285C001B0C83F0300343F4004343F0800325F852
:10286C002230002070BD327835F82210D20011F0E1
:10287C00400FB5F8501089B21AD002310A4405EB5A
:10288C004202C2F80044328971692846FFF7A2FF60
:10289C00737832789BB935F8223023F0F0031B059E
:1028AC001B0D43F4004343F0C00325F82230C7E767
:1028BC000A4405EB4202C2F80444F288E4E7012B17
:1028CC00BED135F8223023F0F0031B051B0D43F469
:1028DC00404343F08003E8E79A4293BF0023D21AA7
:1028EC00B261B36198BF1346327870BBB5F8501023
:1028FC003E2B89B201F1060101EBC20105F58060A6
:10290C0018D9C3F34F12DB0604BF02F1FF339AB29E
:10291C00384B43EA82239BB240F81130327835F8B9
:10292C00223023F4804323F070031B041B0C83F42C
:10293C00405390E7C3F34F02DC0744BF013292B21D
:10294C00920292B240F81120E8E7B9B9B5F85010EC
:10295C003E2B89B201F1020101EBC20105F5806445
:10296C0028D9C3F34F10DA0604BF00F1FF3290B23E
:10297C00204A42EA802292B244F8112072783178CF
:10298C005ABBB5F850203E2B92B202F1060202EB74
:10299C00C10205F5806015D9C3F34F11DC0604BFE5
:1029AC0001F1FF3399B2134B43EA81239BB240F8F8
:1029BC001230B3E7C3F34F02D80744BF013292B2CF
:1029CC009202D8E7C3F34F01DB0744BF013189B250
:1029DC00890289B240F81210A0E7012A9ED1B5F8FD
:1029EC00502092B2023202EBC10205EB4202C2F855
:1029FC00003493E70080FFFF10B50024013300F58D
:102A0C0080605B1000EB4202A34200D110BD52F873
:102A1C00240021F814000134F6E7D0F818321BB169
:102A2C000020C3F81402704702207047D0F81C3203
:102A3C0010B5D0F818425BB194F80002FF2807D00B
:102A4C009B6894F8012221469847FF2384F80032B2
:102A5C00002010BD43230380004870474400002031
:102A6C0043230380004870478800002043230380E1
:102A7C0000487047D80000200A23038000487047A4
:102A8C00CC00002038B50546D0F8184200F0AAFD5D
:102A9C00D5F81832C4F80C024BB1D5F81C3204F539
:102AAC000371DB68D4F804029847002038BD02207B
:102ABC0038BD0000F8B50F78064617F060030C46D9
:102ACC0023D0202B19D1CA884B78C2B13906D0F843
:102ADC0018520BD5D0F81C1218468F682946B847E7
:102AEC0029463046E28800F08AFB06E085F8003281
:102AFC0085F80122294600F097FB0020F8BDD0F89C
:102B0C001C0284681846A047F7E74B780A2BF4D1CF
:102B1C0001220149E7E700BFA801002010B50446D7
:102B2C00812100F0FBFC0121204600F0F7FC822102
:102B3C00204600F0F3FCD4F8183253B1D4F81C3210
:102B4C005B689847D4F8180200F056FD0023C4F8CF
:102B5C001832002010BDF8B5037C04467BBB4FF443
:102B6C0000730222812100F0C9FC4FF40073022291
:102B7C000121204600F0C2FC0823032282212046BA
:102B8C0000F0BCFC4FF4077000F032FD0646C4F8B0
:102B9C00180220B30025D4F81C321B689847277CF8
:102BAC00C6F81452C6F8185287B94FF40073D6F809
:102BBC0004220121204600F007FD3846F8BD4023D1
:102BCC000222812100F09AFC4023D0E74023D6F862
:102BDC0004220121204600F0F7FC2846F8BD012014
:102BEC00F8BD19B1C0F81C120020704702207047C4
:102BFC00D0F818320020C3F80812C3F8102270471E
:102C0C00D0F818320020C3F804127047D0F81822FC
:102C1C0010B572B1D2F81442012364B9C2F814325F
:102C2C008121B2F81032D2F8082200F0BFFC204605
:102C3C0010BD022010BD184610BDD0F8182210B5DA
:102C4C0062B1047C44B94FF40073D2F80422012120
:102C5C0000F0BAFC002010BD4023F6E7022010BDA6
:102C6C0008B580B1D0F8143213B10023C0F8143277
:102C7C0009B1C0F810120123027080F8FC3100F089
:102C8C00EDFB002008BD022008BD19B1C0F81412DC
:102C9C00002070470220704708B500F021FC00208E
:102CAC0008BD08B5D0F814320BB9022008BD1B685A
:102CBC0098470028F9D108BD08B5D0F814325B68E4
:102CCC009847002008BD38B500F502750446284623
:102CDC0000F065FA012394F80812C4F8F431B4F842
:102CEC000E32C4F8F83101F01F03012B0ED007D3BC
:102CFC00022B10D001F08001204600F01DFC03E0F7
:102D0C002946204600F0D6F8002038BD294620463A
:102D1C0000F0CAF9F8E72946204600F0DDF9F3E7A0
:102D2C0038B50446154611BBD0F8F431032B0FD13E
:102D3C00D0F80C31D0F8102193420BD99B1A9A423F
:102D4C0028BF1A46C0F80C3192B2294600F07BFA23
:102D5C00002038BDD0F814321B6923B190F8FC2147
:102D6C00032A00D19847204600F075FAF0E7D0F816
:102D7C0014329B69002BEBD090F8FC21032AE7D18D
:102D8C009847E5E770B5134604460E4600293DD139
:102D9C00D0F8F421022A0FD1C569026A954214D9E0
:102DAC00AA1AC261194692B200F036FA33461A4694
:102DBC001946204600F008FC94F80032012B02D191
:102DCC00002384F80032002070BD8369B3FBF2F558
:102DDC0002FB153565B99A420AD8D0F8F82193420E
:102DEC0006D22A4600F018FAC4F8F8512B46DEE752
:102DFC00D4F81432DB682BB194F8FC21032A01D1EE
:102E0C0020469847204600F031FAD5E7D0F8143226
:102E1C005B69002BD7D090F8FC21032AD3D19847BB
:102E2C00D1E7002238B5044640251146402300F076
:102E3C0065FB2B46C4F8105100228021204600F07F
:102E4C005DFB012384F8FC31D4F8183225622BB1D8
:102E5C00D4F8143221795B6820469847002038BD9D
:102E6C0001740020704790F8FC3180F8FD31042388
:102E7C0080F8FC310020704790F8FD3180F8FC316F
:102E8C000020704708B590F8FC21032A04D1D0F833
:102E9C001432DB6903B19847002008BD10B5044615
:102EAC00802100F049FB2046BDE81040002100F0D5
:102EBC0043BB000037B54B7804460D46092B79D837
:102ECC00DFE813F0C900E5007800D90078006D0048
:102EDC000A007800B9008D004B881A0A013A062ABC
:102EEC0068D8DFE802F0041C296767495200D0F863
:102EFC0010321B680DF10601207C9847BDF80620A6
:102F0C00002A67D0EB88002B64D09A4228BF1A465F
:102F1C000146ADF80620204600F071F95AE0027C1B
:102F2C00D0F8143232B99B6A0DF10600984702238F
:102F3C004370E3E7DB6AF7E7DBB2052B3AD8DFE84F
:102F4C0003F003070B0F1317D0F810325B68D1E7AF
:102F5C00D0F810329B68CDE7D0F81032DB68C9E7A7
:102F6C00D0F810321B69C5E7D0F810325B69C1E7A5
:102F7C00D0F810329B69BDE7037CDBB9D0F8143272
:102F8C000DF106005B6B9847B8E7037C93B9D0F85A
:102F9C0014320DF106001B6B98470723C8E78B888A
:102FAC0043B9CB8833B990F8FC318D78032B05F0FD
:102FBC007F0503D12046FFF771FF0BE080F8FE512F
:102FCC00294600F0E5FA204600F045F92DB1022320
:102FDC0084F8FC31002003B030BD0123F8E7897878
:102FEC00304D01292970E5D890F8FC31022B0CD01A
:102FFC00032BDFD1B1B90223416080F8FC31FFF71C
:10300C005BFE204600F027F9E4E70029F9D0012106
:10301C000323416080F8FC312046FFF742FE022872
:10302C00EFD1C7E741680129EBD0C9B2FFF744FEE5
:10303C0029786160F0E7CA88012ABBD190F8FC318D
:10304C00022B03D0032BB5D1011D64E701460023ED
:10305C0041F8083F5FE790F8FC31023B012BA9D8FF
:10306C000123C360D0F804320BB10323C3600222E6
:10307C0004F10C014FE74B88012BABD1C4F804329F
:10308C00D4F8143229469B6820469847B9E790F843
:10309C00FC31023B012B8DD84B88012B9AD100239C
:1030AC00ECE700BFA901002038B590F8FC310446CC
:1030BC00032B0D460DD10B79012B0AD8D0F8143205
:1030CC009B689847EB8813B9204600F0C4F80020A1
:1030DC0038BDFFF7E3FEFAE770B50A788E8802F088
:1030EC006002202A04460D46F3B205D1D0F8143202
:1030FC009B689847002070BD4A78012A1CD02AD3BF
:10310C00032AF7D190F8FC21022A40D0032A02D0DE
:10311C00FFF7C4FEEEE74A8822B95E0602D01946D4
:10312C0000F00AFAD4F8143229469B6820469847D6
:10313C00204600F090F8DDE790F8FC21022A26D01A
:10314C00032AE5D14A88002AD4D15906F0D0194671
:10315C0000F000FAE6E790F8FC21022A17D0032AC7
:10316C00D6D103F07F0516F0800F00EB051519463C
:10317C0014BF143505F5827500F0FAF968B1012316
:10318C002B6002222946204600F039F8B2E75A0695
:10319C00B0D0194600F0D0F9ACE72860F1E70B7815
:1031AC0003704B784370CA788B7803EB022343800F
:1031BC004A790B7903EB02238380CA798B7903EB71
:1031CC000223C380704730B588B105462B1A15F819
:1031DC00014BDBB2002CF9D15B00023313800B7076
:1031EC0003234B700223013810F8015F05B930BD81
:1031FC005A1CCD54D2B20233DBB28C54F4E71346D2
:10320C00022210B5C0F8F42183610A46C361002183
:10321C0000F0CCF9002010BD08B513460A46002179
:10322C0000F0C4F9002008BD1346032210B5C0F805
:10323C00F421C0F808310A46C0F80C31002100F026
:10324C00C3F9002010BD08B513460A46002100F052
:10325C00BBF9002008BD08B50423C0F8F4310023E5
:10326C001A46194600F0A2F9002008BD08B505233E
:10327C00C0F8F43100231A46194600F0A5F90020D5
:10328C0008BD000010B5094C002209492046FFF783
:10329C00E7FC08492046FFF7F8FC20460649FFF7F3
:1032AC00A0FC2046BDE81040FFF7F6BCF00400205F
:1032BC002C0100200C0000201C0100200020704775
:1032CC000020704710B5054C01462046FFF798FCCE
:1032DC002046FFF7B2FC002010BD00BFF004002018
:1032EC0010B5064C002206492046FFF781FC054923
:1032FC002046FFF785FC002010BD00BFF004002025
:10330C00FC0A002014070020122301480B80704790
:10331C0048010020042301480B8070475C01002009
:10332C0010B5044C0A4604482146FFF74CFF2046D2
:10333C0010BD00BFE40E00201337000810B5044C7C
:10334C000A4604482146FFF73EFF204610BD00BF49
:10335C00E40E00202637000810B5044C0A46044839
:10336C002146FFF730FF204610BD00BFE40E0020C1
:10337C003C37000810B5044C0A4604482146FFF7B8
:10338C0022FF204610BD00BFE40E0020FA360008D4
:10339C0010B5044C0A4604482146FFF714FF20469A
:1033AC0010BD00BFE40E00200537000807B50D4B1B
:1033BC0002689A4212D103F5DA33DA69142042F426
:1033CC000002DA610022DB69114603F40003019369
:1033DC00019BFDF7B3FA1420FDF7E4FA03B05DF896
:1033EC0004FB00BF005C004000F22C41D0F85C04F0
:1033FC00FFF769BC00EB4113D3F83C22D0F85C0416
:10340C00FFF78EBC00EB4113DA6BD0F85C04FFF7CE
:10341C00B9BCD0F85C04FFF735BD10B504460121EA
:10342C00D0F85C04FFF71CFDD4F85C04BDE8104038
:10343C00FFF7F7BC10B50446D0F85C04FFF713FD9A
:10344C00A36923B1024A136943F00603136110BD4B
:10345C0000ED00E0D0F85C04FFF70EBD10B50223C0
:10346C0008224FF0030E04461B491C4880E80E400E
:10347C000023C0F85C44C4F820028361C36103627A
:10348C00FDF728FC08B1FCF7ADFF0022182311460C
:10349C00D4F82002FDF7F0FF582300228021D4F845
:1034AC002002FDF7E9FFC02300228121D4F820027D
:1034BC00FDF7E2FF4FF4887300220121D4F82002BB
:1034CC00FDF7DAFF4FF4807300228221D4F820023A
:1034DC00FDF7D2FF002010BD005C0040E41000207E
:1034EC0008B5D0F82002FDF75EFC03289ABF024B0A
:1034FC00185C022008BD00BF4937000810B51C46F7
:10350C00D0F8200213462246FDF778FC03289ABF18
:10351C00014B185C022010BD4937000808B5D0F8E3
:10352C002002FDF78EFC03289ABF024B185C022088
:10353C0008BD00BF4937000808B5D0F82002FDF7D8
:10354C004FFF03289ABF024B185C022008BD00BF36
:10355C004937000808B5D0F82002FDF76AFF0328A8
:10356C009ABF024B185C022008BD00BF4937000807
:10357C000A06D0F8203245BF01F07F0103EB41135E
:10358C0003EB411393F82A0058BF93F82A027047B3
:10359C0008B5D0F82002FDF71DFC03289ABF024B9A
:1035AC00185C022008BD00BF4937000808B5D0F8E8
:1035BC002002FDF786FC03289ABF024B185C022000
:1035CC0008BD00BF4937000808B5D0F82002FDF748
:1035DC0059FC03289ABF024B185C022008BD00BF9F
:1035EC004937000808B5D0F82002FDF763FC08BD88
:1035FC0000487047AC01002070477047002103E081
:10360C000B4B5B58435004310A480B4B42189A42FF
:10361C00F6D30A4A02E0002342F8043B084B9A42D4
:10362C00F9D3FCF7ADFF00F00FF8FCF7B7FE7047CD
:10363C0058370008000000206001002060010020C5
:10364C0044150020FEE7000070B500250C4E0D4C13
:10365C00A41BA410A54209D100F022F800250A4EA3
:10366C000A4CA41BA410A54205D170BD56F82530F8
:10367C0098470135EEE756F8253098470135F2E7C3
:10368C0050370008503700085037000854370008EE
:10369C0003460244934200D1704703F8011BF9E73B
:1036AC00F8B500BFF8BC08BC9E467047F8B500BF23
:0836BC00F8BC08BC9E467047F3
:1036C40002030405060708090A0B0C0D0E0F10105F
:1036D40048656C6C6F2C206B697474792100000050
:1036E40000000000000001020304060708090000AE
:1036F40000000102030443444320436F6E6669677C
:103704000043444320496E746572666163650053E7
:10371400544D6963726F656C656374726F6E69632F
:10372400730053544D3332205669727475616C20A2
:10373400436F6D506F727400303030303030303041
:0C374400303031410000020102000000A2
:04375000310100083B
:043754000D0100085B
:1037580000A24A040100000010000000632B0008CA
:10376800292B0008C12A000800000000392A000897
:10377800272A0008912A0008000000000000000025
:10378800000000006D2A0008612A0008792A000854
:10379800852A000809024300020100C0320904001A
:1037A80000010202010005240010010524010001A6
:1037B80004240202052406000107058203080010FC
:1037C80009040100020A0000000705010240000088
:1037D800070581024000000009024300020100C001
:1037E800320904000001020201000524001001054D
:1037F80024010001042402020524060001070582B1
:103808000308001009040100020A0000000705016E
:103818000200020007058102000200000A060002F9
:10382800000000400100000009074300020104C035
:1038380032090400000102020100052400100105FC
:103848002401000104240202052406000107058260
:10385800030800FF09040100020A0000000705012F
:10386800024000000705810240000000ED32000818
:10387800C9320008CD320008D132000815330008DB
:10388800213300082D330008493300086533000848
:10389800813300089D330008120100020202004033
:1038A80083044057000201020301000004030904D5
:0400000508003609B0
:00000001FF
